S0120000536D6172745F486F6D652E7372656323
S11300000C9482000C94CE0E0C949F000C949F00D0
S11300100C949F000C949F000C949F000C949F00E0
S11300200C949F000C949F000C949F000C949F00D0
S11300300C949F000C94490E0C949F000C949F0008
S11300400C94080F0C949F000C949F000C949F0038
S11300500C949F0087038B038F03930397039B03E5
S11300609F03A905BD05BD05BD05BD05BD05BD05B0
S1130070BD05BF05BD05BD05BD05BD05BD05BD056A
S1130080BD05AB05BD05BD05BD05BD05BD05BD056E
S1130090BD05AD05BD05BD05BD05BD05BD05BD055C
S11300A0BD05AF05BD05BD05BD05BD05BD05BD054A
S11300B0BD05B105BD05BD05BD05BD05BD05BD0538
S11300C0BD05B305BD05BD05BD05BD05BD05BD0526
S11300D0BD05B505BD05BD05BD05BD05BD05BD0514
S11300E0BD05B705BD05BD05BD05BD05BD05BD0502
S11300F0BD05B905BD05BD05BD05BD05BD05BD05F0
S1130100BD05BB0511241FBECFE5D8E0DEBFCDBFC2
S113011016E0A0E6B0E0E6E3FDE202C005900D9231
S1130120AE36B107D9F726E0AEE6B6E001C01D92BF
S1130130AA3EB207E1F70E9459030C9499160C9455
S1130140000060E875E280E090E00E94CF0A0E941F
S1130150C80A0E94150A0E94070A0E94F20E63E070
S113016084E40E94C200789481E08093710608952B
S1130170809171068111FCCFF89463E084E40E94BD
S1130180CB00FFCF982F862F41E0692F0E94C00338
S1130190811181E00895982F862F41E0692F0E94F4
S11301A05A04811182E008950E94C10508950F93B5
S11301B01F93CF93DF93C82FD62F8A010E94C505C2
S11301C0CC0F80EA8C0F0E94CD058D2F0E94CD05A7
S11301D00E94C50581EA8C0F0E94CD05C8010E94CA
S11301E0E1050E94EC05DF91CF911F910F910895D5
S11301F0EF92FF920F931F93CF93DF93C82FD62FC5
S11302007A0189010E94C505CC0F80EA8C0F0E94F7
S1130210CD058D2F0E94CD050E94C50581EA8C0F66
S11302200E94CD05C0E0D0E006C0C8018C0F9D1F20
S11302300E94D6052196C7010197C817D907A8F3CC
S1130240C8018C0F9D1F0E94E1050E94EC05DF91FF
S1130250CF911F910F91FF90EF9008951F93CF932B
S1130260DF93C82F162FD42F0E94C5058C2F880F1B
S113027080560E94CD05812F0E94CD058D2F0E94AE
S1130280CD050E94EC058FE39CE90197F1F700C0CE
S11302900000DF91CF911F9108956F927F928F920A
S11302A09F92AF92BF92CF92DF92EF92FF920F9301
S11302B01F93CF93DF93782E662E6A018901862FD0
S11302C08F7020E130E07901E81AF1084E155F05DE
S11302D008F47A010E94C505872D880F0F2EF0EAD5
S11302E07F2EF02D780E872D0E94CD05862D0E943D
S11302F0CD05C0E0D0E007C0F801EC0FFD1F808100
S11303000E94CD052196CE15DF05B0F30E94EC05C1
S11303108FE39CE90197F1F700C00000EC14FD04A1
S113032009F461C05601A60CB11C9FE0A922BB24AC
S1130330CE18DF08CA18DB08D694C794D694C7949D
S1130340D694C794D694C794E12CF12C27C00E946C
S1130350C505872D0E94CD058C2F860D0E94CD05E5
S1130360812C912C0BC0FE01E80DF91DE00FF11F4B
S113037080810E94CD058FEF881A980A90E1891632
S1130380910488F360960E94EC058FE39CE9019741
S1130390F1F700C000009FEFE91AF90AEC14FD041C
S11303A0B0F20E94C505872D0E94CD058C2F860DC5
S11303B00E94CD05E12CF12C0BC0FE01EE0DFF1DBA
S11303C0E00FF11F80810E94CD058FEFE81AF80A33
S11303D0EA14FB0490F30E94EC058FE39CE9019777
S11303E0F1F700C00000DF91CF911F910F91FF90B2
S11303F0EF90DF90CF90BF90AF909F908F907F90C1
S11304006F900895CF92DF92EF92FF926B017C017F
S113041040E064E482E00E94C003C701B6010E9488
S11304203E09FF90EF90DF90CF9008950E94E0097D
S113043008950E94E609089541E062E480E00E9484
S1130440C00341E062E481E00E94C00341E062E451
S113045082E00E94C00341E062E483E00E94C003A2
S113046041E062E480E00E945A0441E062E481E0F9
S11304700E945A0441E062E482E00E945A0441E08E
S113048062E483E00E945A0440E062E484E00E9453
S1130490C00340E062E485E00E94C00340E062E4FF
S11304A086E00E94C00340E062E487E00E94C0034B
S11304B041E062E484E00E945A0441E062E485E0A1
S11304C00E945A0441E062E486E00E945A0441E03A
S11304D062E487E00E945A0480E0089541E061E408
S11304E086E00E945A048AE18A95F1F700C040E050
S11304F061E486E00E945A040895CF93C82F482FE0
S1130500417061E480E00E945A04C1FB442740F931
S113051061E481E00E945A04C2FB442740F961E48B
S113052082E00E945A04C3FB442740F961E483E05B
S11305300E945A04CF910895CF93C82F82958F704B
S11305400E947D0240E061E484E00E945A040E941B
S11305506E028C2F0E947D020E946E028FED9EE23D
S11305600197F1F700C00000CF91089581E00E9447
S11305709C0208952FEF89EF90E021508040904035
S1130580E1F700C0000041E061E480E00E94C003A4
S113059041E061E481E00E94C00341E061E482E063
S11305A00E94C00341E061E483E00E94C00341E093
S11305B061E484E00E94C00341E061E485E00E94BC
S11305C0C00341E061E486E00E94C00340E061E4CE
S11305D085E00E945A0482E00E949C0288E20E9404
S11305E09C028CE00E949C0286E00E949C020E9475
S11305F0B6020895982F862F41E0692F0E94C00308
S1130600811181E00895982F862F41E0692F0E947F
S11306105A04811182E00895982F862F40E0692FB3
S11306200E945A04811183E00895982F862F692F20
S11306300E944A05811184E00895CF93DF93C82F67
S1130640D62F40E061E40E94C0038D2F0E946A030C
S11306508C2F0E946003DF91CF91089541E064E400
S113066085E00E94C00322E04DEC5CEC6CEC7CE382
S113067081E00E94580868E070E081E00E94E80789
S11306800895682F70E080E090E00E949E1220E0C0
S113069030E041EE54E40E94FD112DEC3CEC4CECB6
S11306A05CE30E949111AB01BC0181E00E94FF0850
S11306B008950E94A1000E94B80080E090E008958F
S11306C0883030F497B1907E892B87B980E0089503
S11306D081E00895E82F87B1806487B987B1806885
S11306E087B986B1816086B986B1826086B986B1E0
S11306F0846086B986B1806286B98E2F90E0873097
S1130700910500F5FC01E65DFF4F0C94991386B149
S1130710806486B917C080B7806280BF13C080B779
S1130720806480BF0FC080B7806680BF0BC080B775
S1130730806880BF07C080B7806A80BF03C080B76D
S1130740806C80BF86B1806886B980E00895883067
S113075010F481E0089580E008958154843010F409
S113076081E0089580E00895823010F481E00895D6
S113077080E00895823010F481E0089580E00895C7
S11307801F93CF93DF93C82FD62F142F0E94A70354
S1130790882309F484C08D2F0E94AD03882309F4B3
S11307A080C0812F0E94B403882309F47CC0D23412
S11307B029F118F4D13439F078C0D334D1F1D434D8
S11307C009F452C072C0113061F42AB381E090E0A0
S11307D002C0880F991FCA95E2F7822B8ABB80E07A
S11307E065C02AB381E090E002C0880F991FCA95C2
S11307F0E2F7809582238ABB80E058C0113061F40F
S113080027B381E090E002C0880F991FCA95E2F7F0
S1130810822B87BB80E04AC027B381E090E002C00E
S1130820880F991FCA95E2F78095822387BB80E0E1
S11308303DC0113061F424B381E090E002C0880F20
S1130840991FCA95E2F7822B84BB80E02FC024B3A2
S113085081E090E002C0880F991FCA95E2F7809565
S1130860822384BB80E022C0113061F421B381E093
S113087090E002C0880F991FCA95E2F7822B81BBD2
S113088080E014C021B381E090E002C0880F991F7A
S1130890CA95E2F78095822381BB80E007C081E09E
S11308A005C082E003C083E001C080E0DF91CF9106
S11308B01F9108951F93CF93DF93C82FD62F142F22
S11308C00E94A703882309F484C08D2F0E94AD03DE
S11308D0882309F480C0812F0E94BA03882309F475
S11308E07CC0D23429F118F4D13439F078C0D3342F
S11308F0D1F1D43409F452C072C0113061F42BB375
S113090081E090E002C0880F991FCA95E2F7822B1C
S11309108BBB80E065C02BB381E090E002C0880F00
S1130920991FCA95E2F7809582238BBB80E058C05B
S1130930113061F428B381E090E002C0880F991F60
S1130940CA95E2F7822B88BB80E04AC028B381E0D5
S113095090E002C0880F991FCA95E2F78095822320
S113096088BB80E03DC0113061F425B381E090E0A4
S113097002C0880F991FCA95E2F7822B85BB80E0DD
S11309802FC025B381E090E002C0880F991FCA955B
S1130990E2F78095822385BB80E022C0113061F4A8
S11309A022B381E090E002C0880F991FCA95E2F754
S11309B0822B82BB80E014C022B381E090E002C0AD
S11309C0880F991FCA95E2F78095822382BB80E045
S11309D007C081E005C082E003C084E001C080E07C
S11309E0DF91CF911F9108950F931F93CF93DF93BE
S11309F0D82FC62F8A010E94A703882309F440C078
S1130A008C2F0E94AD038823E9F1C234A9F018F4B5
S1130A10C13431F039C0C334D9F0C43429F134C0FD
S1130A2089B390E002C095958795DA95E2F78170D5
S1130A30F801808380E029C086B390E002C09595D8
S1130A408795DA95E2F78170F801808380E01DC014
S1130A5083B390E002C095958795DA95E2F78170AB
S1130A60F801808380E011C080B390E002C09595C6
S1130A708795DA95E2F78170F801808380E005C0FC
S1130A8081E003C082E001C080E0DF91CF911F913B
S1130A900F910895CF93DF93D82FC62F0E94A703F9
S1130AA0882309F440C08C2F0E94AD038823E9F108
S1130AB0C234A9F018F4C13431F039C0C334D9F0C8
S1130AC0C43429F134C02BB381E090E002C0880F14
S1130AD0991FDA95E2F782278BBB80E029C028B3FF
S1130AE081E090E002C0880F991FDA95E2F782272F
S1130AF088BB80E01DC025B381E090E002C0880F70
S1130B00991FDA95E2F7822785BB80E011C022B3F2
S1130B1081E090E002C0880F991FDA95E2F78227FE
S1130B2082BB80E005C081E003C082E001C080E0B8
S1130B30DF91CF91089581B1E82FE87F8E2F90E067
S1130B40FC013897E135F105C0F4EF5CFF4F0C94DC
S1130B50991380E0089582E0089583E0089584E085
S1130B60089585E0089586E0089587E0089588E073
S1130B70089589E008958AE008958BE0089581E05E
S1130B80089511B88FEF80B9089584EA86BF06B638
S1130B9007FEFDCF0E949B05089583B984E886BFB4
S1130BA006B607FEFDCF0E949B05089524EC26BFE0
S1130BB006B607FEFDCF23B1FC0120830E949B05EE
S1130BC0089524E826BF06B607FEFDCF23B1FC0135
S1130BD020830E949B05089584E986BF06B604FC21
S1130BE0FDCF08958430C8F4823041F0833051F051
S1130BF0813071F485B7816085BF0AC085B7826092
S1130C0085BF06C085B7816085BF85B7826085BF13
S1130C108BB780648BBF80E0089581E0089586B12E
S1130C20886086B980E008958AB180688AB980E0D6
S1130C300895833010F481E0089580E008951F93AF
S1130C40CF93DF93182FEB010E941906882309F430
S1130C506AC1113009F46FC020F0123009F4D5C014
S1130C6064C1C230D10578F0C830D10561F0C03418
S1130C70D10549F0C11581E0D80729F0C11584E0F8
S1130C80D80709F054C1C830D10549F128F4209798
S1130C9081F02197C9F04DC1C11581E0D807A9F1B0
S1130CA0C11584E0D807E1F1C034D10509F041C190
S1130CB021C083B78E7F83BF83B78D7F83BF83B704
S1130CC08B7F83BF80E03EC183B7816083BF83B7DE
S1130CD08D7F83BF83B78B7F83BF80E033C183B7AE
S1130CE08E7F83BF83B7826083BF83B78B7F83BFCD
S1130CF080E028C183B7816083BF83B7826083BFEC
S1130D0083B78B7F83BF80E01DC183B78E7F83BF92
S1130D1083B78D7F83BF83B7846083BF80E012C1B4
S1130D2083B7816083BF83B78D7F83BF83B78460BC
S1130D3083BF80E007C1C230D10578F0C830D10547
S1130D4061F0C034D10549F0C11581E0D80729F01C
S1130D50C11584E0D80709F0EEC0C830D10549F1C7
S1130D6028F4209781F02197C9F0E7C0C11581E0EC
S1130D70D807A9F1C11584E0D807E1F1C034D10541
S1130D8009F0DBC021C08EB58E7F8EBD8EB58D7F00
S1130D908EBD8EB58B7F8EBD80E0D4C08EB5816054
S1130DA08EBD8EB58D7F8EBD8EB58B7F8EBD80E062
S1130DB0C9C08EB58E7F8EBD8EB582608EBD8EB558
S1130DC08B7F8EBD80E0BEC08EB581608EBD8EB53A
S1130DD082608EBD8EB58B7F8EBD80E0B3C08EB534
S1130DE08E7F8EBD8EB58D7F8EBD8EB584608EBD9B
S1130DF080E0A8C08EB581608EBD8EB58D7F8EBD1E
S1130E008EB584608EBD80E09DC0C230D105A8F04F
S1130E10C830D10591F0C032D10579F0C034D10584
S1130E2061F0C038D10549F0C11581E0D80729F037
S1130E30C11584E0D80709F082C0C032D105E1F1C0
S1130E4038F4C130D10511F1B0F0289751F179C0CF
S1130E50C038D10509F446C020F4C034D105B9F135
S1130E6070C0C11581E0D80709F447C0C115D4404A
S1130E7009F44EC066C085B58E7F85BD85B58D7F6E
S1130E8085BD85B58B7F85BD80E05CC085B58160FF
S1130E9085BD85B58D7F85BD85B58B7F85BD80E09E
S1130EA051C085B58E7F85BD85B5826085BD85B50C
S1130EB08B7F85BD80E046C085B5816085BD85B5E5
S1130EC0826085BD85B58B7F85BD80E03BC085B5DF
S1130ED08E7F85BD85B58D7F85BD85B5846085BDD7
S1130EE080E030C085B5816085BD85B58D7F85BDC9
S1130EF085B5846085BD80E025C085B58E7F85BDC0
S1130F0085B5826085BD85B5846085BD80E01AC0E5
S1130F1085B5816085BD85B5826085BD85B58460F4
S1130F2085BD80E00FC081E00DC080E00BC082E091
S1130F3009C080E007C082E005C080E003C082E011
S1130F4001C080E0DF91CF911F9108950F931F930B
S1130F50CF93C82F8B010E941906882381F1CC23DB
S1130F6011F0C23021F40F3F110509F050F5C130E2
S1130F7069F018F0C230D1F026C083B7877F83BFF1
S1130F8083B78F7B83BF02BF80E01EC08FB58E7F87
S1130F908FBD8FB58D7F8FBD8EB5877F8EBD8EB58E
S1130FA08F7E8EBD1DBD0CBD80E00EC085B5877FD4
S1130FB085BD85B58F7B85BD04BD80E005C081E01E
S1130FC003C083E001C080E0CF911F910F91089589
S1130FD00F931F93CF93C82F8B010E941906882368
S1130FE031F0B8018C2F0E941F0680E001C081E01F
S1130FF0CF911F910F910895843040F5813071F0A5
S113100028F0823099F08330C9F022C083B78F7EF4
S113101083BF83B78F7D83BF80E008958FB58F7BB7
S11310208FBD8FB58F778FBD80E008958FB58F7E8C
S11310308FBD8FB58F7D8FBD80E0089585B58F7E80
S113104085BD85B58F7D85BD80E0089587E00895D1
S113105080E00895843040F5813071F028F08230CA
S113106099F08330C9F022C083B78F7E83BF83B7E2
S1131070806283BF80E008958FB58F7B8FBD8FB56D
S113108080688FBD80E008958FB58F7E8FBD8FB54A
S113109080628FBD80E0089585B58F7E85BD85B55E
S11310A0806285BD80E0089587E0089580E008951A
S11310B0CF92DF92EF92FF92CF93843008F096C0E4
S11310C09FEF920F923008F093C06A017B01C82F02
S11310D0833018F4813028F022C0833009F464C0CE
S11310E080C0213019F0223041F00DC083B78064F4
S11310F083BF83B7886083BF06C083B7806483BF20
S113110083B7877F83BF20E030E04FE753E4C70114
S1131110B6010E942C130E946F126CBF62C0213072
S113112019F0223091F021C08FB58E7F8FBD8FB51D
S113113082608FBD8EB588608EBD8EB580618EBD98
S113114080E29EE497BD86BD10C08FB58E7F8FBDB3
S11311508FB582608FBD8EB5877F8EBD8EB5806161
S11311608EBD80E29EE497BD86BDC13019F0C230C9
S113117071F037C020E030E44CE956E4C701B60111
S11311800E942C130E946F127BBD6ABD2AC020E00E
S113119030E44CE956E4C701B6010E942C130E94C6
S11311A06F1279BD68BD1DC0213019F0223041F0A5
S11311B00DC085B5806485BD85B5886085BD06C0D4
S11311C085B5806485BD85B5877F85BD20E030E029
S11311D04FE753E4C701B6010E942C130E946F121B
S11311E063BD8C2F0E942A0880E003C087E001C001
S11311F086E0CF91FF90EF90DF90CF900895282F55
S11312008430C0F5CB01BA01213089F028F02230B6
S1131210D1F0233021F130C020E030E04FE753E437
S11312200E942C130E946F126CBF80E0089520E08E
S113123030E44CE956E40E942C130E946F127BBDEB
S11312406ABD80E0089520E030E44CE956E40E9451
S11312502C130E946F1279BD68BD80E0089520E0D0
S113126030E04FE753E40E942C130E946F1263BDD9
S113127080E0089587E0089580E00895611526E9E7
S113128072078105910509F472C058F5603825E2AA
S113129072078105910509F45EC070F4603629E097
S11312A072078105910509F44EC0603C72418105C5
S11312B0910509F44DC082C061152BE472078105C4
S11312C0910509F44EC0603820E772078105910545
S11312D009F44AC0603478438105910509F06EC071
S11312E03DC0611524E8720723E08207910509F4E3
S11312F04AC0A8F461152CE2720721E08207910527
S1131300E1F1611522EC720721E082079105C1F138
S11313106115714E8105910509F050C02BC06032F2
S113132021EA720727E08207910599F1603422E4EB
S113133072072FE08207910579F16039704D83407F
S11313409105E1F523C081E080BD80EA89B925C01B
S11313508FEC89B922C087E689B91FC084E489B9B2
S11313601CC083E389B919C082E289B916C089E136
S113137089B913C080E189B910C08CE089B90DC066
S113138088E089B90AC083E089B907C083E089B9D4
S113139004C081E089B901C019B88AB188608AB9EA
S11313A08AB180618AB980B5806880BD80B5826069
S11313B080BD80B5846080BD80E0089581E008959B
S11313C05D9BFECF8CB95E9BFECF0895CF92DF92DA
S11313D0EF92FF92CF93DF93EC01C12CD12C7601D5
S11313E007C00E94E0098FEFC81AD80AE80AF80A71
S11313F0FE01EC0DFD1D80818111F3CF0E94E009F7
S1131400DF91CF91FF90EF90DF90CF9008950E94ED
S11314102E0380E00E944103089584EB0E9441035F
S1131420089580E00E944103089562E083E40E94ED
S1131430FA0263E083E40E94FA0264E083E40E9417
S1131440FA0265E083E40E94FA0266E083E40E9403
S1131450FA0267E084E40E94FA0221E040E050E0EE
S1131460BA0183E00E94580860E071E082E00E94C3
S1131470E80708958330B1F028F4813049F08230D0
S113148061F008958530C1F090F08630D1F0089570
S113149062E083E40E940303089563E083E40E940E
S11314A00303089564E083E40E940303089565E060
S11314B083E40E940303089566E083E40E94030327
S11314C0089583E00E942A0808958330B1F028F437
S11314D0813049F0823061F008958530C1F090F098
S11314E08630D1F0089562E083E40E940C030895ED
S11314F063E083E40E940C03089564E083E40E94A3
S11315000C03089565E083E40E940C03089566E0EB
S113151083E40E940C03089583E00E94FC0708956D
S11315208330B1F028F4813049F0823061F00895BD
S11315308530C1F090F08630D1F0089562E083E404
S11315400E941503089563E083E40E94150308953F
S113155064E083E40E941503089565E083E40E9437
S11315601503089566E083E40E941503089505B405
S113157005FE04C086E00E94650A089586E00E9484
S11315803A0A0895AB01BC0183E00E94FF08089564
S11315900E94BA020E941C020E94480F0895CF9232
S11315A0DF92EF92FF926B017C010E94480FC7010A
S11315B0B6010E94020283E00E94F2050E94140612
S11315C0FF90EF90DF90CF9008950E94190280E67B
S11315D090E00E94190208950E9419020895E09172
S11315E0E706F091E806099508959093E80680933C
S11315F0E7066093C406409374060895AB0163E460
S11316008E5F0E94F404089583E690E00E94E50A48
S113161084E990E00E94E50A8FE990E00E94E50ADF
S11316208AEA90E00E94E50A85EB90E00E94E50AD0
S113163080EC90E00E94E50A8BEC90E00E94E50AC1
S113164080917506882349F081EE90E00E94E50AB6
S11316508EEE90E00E94E50A089587E091E00E94F2
S1131660E50A0895809175068823E9F080E291E007
S11316700E94E50A8EE591E00E94E50A8CE691E07D
S11316800E94E50A8DE791E00E94E50A83E991E072
S11316900E94E50A80916E06882389F080EA91E031
S11316A00E94E50A089580E291E00E94E50A8EEB2B
S11316B091E00E94E50A84ED91E00E94E50A089514
S11316C081E080936F0608951092700681EE91E098
S11316D00E94E50A89E292E00E94E50A1092C4069B
S11316E008958091E90681110CC00E94320B41E0FB
S11316F062E081E79BE00E94F50A81E08093E906BD
S113170008951092E90680917506882349F1809125
S1131710B5069FEC980F953038F08DE492E00E9466
S1131720E50A0E94710B0895833389F028F481330C
S113173041F0823349F00895843361F0853369F0D0
S113174008950E946D0D08950E94C80B08950E948B
S1131750F40B08950E94640B08950E94600B089591
S11317608091B5069FEC980F923038F08DE492E0AA
S11317700E94E50A0E94710B0895813319F08233A7
S113178021F008950E94F40B08950E94640B0895BB
S11317908091E90681110EC08EE592E00E94EC0A68
S11317A040E06DE088EC9BE00E94F50A81E08093C4
S11317B0E90608951092E90665E976E085EB96E07E
S11317C00E944C0F833029F483E992E00E94E50AD9
S11317D008C085E996E00E941D1189EC92E00E9400
S11317E0E50A0E94710B08950F931F93CF93DF9323
S11317F01F92CDB7DEB78091E90681110CC00E941B
S1131800040B41E062E084EF9BE00E94F50A81E072
S11318108093E90663C01092E9061091B5068091A1
S11318207506811102C0183320F4113310F01933F6
S113183038F08DE492E00E94E50A0E94F40B4EC059
S1131840BE016F5F7F4F00ED010F802F0E94FE0AE3
S11318500093C606173379F01833F9F0163301F5FF
S113186082EF92E00E94EC0A41E062E084E79CE0AF
S11318700E94F50A33C080917506882359F083E3EA
S113188093E00E94E50A41E062E084E79CE00E9464
S1131890F50A24C00E94710B21C00E94710B1EC066
S11318A08981882369F080E693E00E94EC0A8091A4
S11318B0C6060E94160286E693E00E94E50A08C066
S11318C080E693E00E94EC0A81E893E00E94E50A36
S11318D040E062E084E79CE00E94F50A0F90DF910B
S11318E0CF911F910F910895CF938091B506909158
S11318F0C606963019F09730E1F034C060ED680FF9
S11319006A3028F08CE993E00E94E50A4DC070E04B
S113191080E090E00E949E1220E030E040E151E43B
S11319200E94FD110E94C20A8FEA93E00E94E50A18
S11319303BC090ED980F923028F08CE993E00E9420
S1131940E50A32C0803339F40E94110A81ED93E034
S11319500E94E50A29C00E940D0A89EE93E00E94C4
S1131960E50A22C0893559F0893749F08E3639F0B5
S11319708E3429F08CE993E00E94E50A15C0C0E09A
S11319806C2F70E080530E94FE0A8091C6060E946C
S1131990900ACC2329F08FEF93E00E94E50A04C05B
S11319A083E194E00E94E50A0E94F40BCF9108952C
S11319B08091E90681110EC088E294E00E94E50A54
S11319C040E062E088ED9CE00E94F50A81E08093AB
S11319D0E90608951092E9068091B506893721F049
S11319E0893521F481E003C081E001C080E0809367
S11319F0C70687EC96E00E94E2108AE594E00E9414
S1131A00E50A0E94710B08958091E90681110EC0C8
S1131A108CE794E00E94E50A41E06BE084E09DE0FD
S1131A200E94F50A81E08093E90608951092E90680
S1131A30E5EBF6E001900020E9F73197E55BF6402D
S1131A40349738F487EE94E00E94E50A0E94040D6E
S1131A50089565EB76E08CED96E00E94A8130E9451
S1131A60D80C08958091E90681110EC08DEF94E0A1
S1131A700E94EC0A41E067E082E39DE00E94F50ADF
S1131A8081E08093E90608951092E906E5EBF6E01B
S1131A9001900020E9F7EC5BF64039F08AE395E029
S1131AA00E94E50A0E94320D089565E976E085EB0F
S1131AB096E00E94E50F833049F465EB76E085ED0E
S1131AC096E00E94A8130E94040D08958FE495E007
S1131AD00E94E50A0E94320D08958091E906811161
S1131AE00EC08FE695E00E94EC0A40E06DE08DE6C2
S1131AF09DE00E94F50A81E08093E9060895109222
S1131B00E90665E976E085EB96E00E944C0F8330A8
S1131B1049F465EB76E088EC96E00E94A8130E94F5
S1131B20320D08958BE895E00E94E50A0E94710B3E
S1131B3008950F931F93CF93DF93CDB7DEB7E2974A
S1131B400FB6F894DEBF0FBECDBF809172068F5FD3
S1131B50809372068330E8F423E030E0A901481B47
S1131B605109CA019F934F9386EA95E09F938F93FF
S1131B708E010F5F1F4F1F930F930E94AF13C80175
S1131B800E94E50A0F900F900F900F900F900F9006
S1131B900FC084E3E6EDF5E0DE01119601900D92AD
S1131BA08A95E1F7CE0101960E94E50A109271062A
S1131BB0E2960FB6F894DEBF0FBECDBFDF91CF9192
S1131BC01F910F9108958091E90681110EC08AE05A
S1131BD096E00E94EC0A41E06BE083EE9DE00E94F7
S1131BE0F50A81E08093E90608951092E90665EB11
S1131BF076E08AE896E00E949F13892B49F080E200
S1131C0096E00E94E50A0E94990D0E94E30D089552
S1131C1081E08093700680E396E00E94EC0A86E7F8
S1131C2096E00E94EC0A8FEC93E00E94E50A0E9481
S1131C30710B08958091E90681110EC089E396E045
S1131C400E94EC0A40E06DE08AE19EE00E94F50A01
S1131C5081E08093E906089565E776E085EB96E0F8
S1131C600E944C0F1092E906833049F480E596E017
S1131C700E94E50A0E94990D0E941A0E08950E947E
S1131C80E30D089584E696E00E94E50A0E941A0E88
S1131C9008951F920F920FB60F9211242F933F9322
S1131CA04F935F936F937F938F939F93AF93BF9360
S1131CB0EF93FF938CB18093C5069091C40699234A
S1131CC009F45BC090917406992359F090ED980F34
S1131CD09A3038F0883029F08D3019F08A3009F0C4
S1131CE04CC0883059F490917306992309F445C087
S1131CF09150909373060E9416023FC09091730610
S1131D00E92FF0E0EB54F94F80839F5F90937306C3
S1131D10913039F49091B5069D3019F41092730600
S1131D202CC08D3011F00E941602809173069091A0
S1131D30C40689130DC0E82FF0E0EC54F94F9081EC
S1131D409D3031F081508093730688E00E94160222
S1131D508091C5068D3089F4E09173068091C406A4
S1131D608E1758F0F0E0EC54F94F10828DE00E9489
S1131D7016020E94EF0A10927306FF91EF91BF9131
S1131D80AF919F918F917F916F915F914F913F910F
S1131D902F910F900FBE0F901F9018951F920F92C6
S1131DA00FB60F9211242F933F934F935F936F932A
S1131DB07F938F939F93AF93BF93EF93FF930E946F
S1131DC0420EFF91EF91BF91AF919F918F917F91BF
S1131DD06F915F914F913F912F910F900FBE0F9094
S1131DE01F90189564E087E00E941D0341E063E4BE
S1131DF087E00E94C0030E940F0660E070E080E06C
S1131E000E94A60760E074E080E00E94E80708955D
S1131E101F920F920FB60F9211242F933F934F935B
S1131E205F936F937F938F939F93AF93BF93CF935E
S1131E30DF93EF93FF9384B1C5B1D0E0DC2FCC27BF
S1131E40C80FD11DC137D10528F041E063E487E014
S1131E500E945A04C435D10528F440E063E487E0C5
S1131E600E945A0488B7816088BFFF91EF91DF9187
S1131E70CF91BF91AF919F918F917F916F915F911E
S1131E804F913F912F910F900FBE0F901F90189577
S1131E900E94D40088E008959F92AF92BF92CF929F
S1131EA0DF92EF92FF920F931F93CF93DF93CDB7FF
S1131EB0DEB76D970FB6F894DEBF0FBECDBF7C01C1
S1131EC06B01912C6BC0AE014F5F5F4F60E0892DB9
S1131ED00E94D700AE014E5F5F4F61E0892D0E94E2
S1131EE0D700B12C56C0898190E00B2C02C0959587
S1131EF087950A94E2F780FF4BC06FE1B69EA02C51
S1131F00112468E06A0D9E012D5F3F4F4DE050E0C3
S1131F10892D0E94F800BE016D5F7F4FC7010E94AA
S1131F209F13892BA9F565E16A0D9E01205F3F4F40
S1131F3047E050E0892D0E94F8006CE16A0D9E0193
S1131F40295E3F4F47E050E0892D0E94F8008A81C6
S1131F5090E002C095958795BA94E2F7982F917016
S1131F60F6019193BE016D5F7F4FCF010E94A813CC
S1131F70BE01605F7F4FC6010E960E94A813BE018A
S1131F80695E7F4FC60145960E94A81382E00BC08C
S1131F90B39487E08B1508F0A6CF939487E0891556
S1131FA008F091CF83E06D960FB6F894DEBF0FBEB4
S1131FB0CDBFDF91CF911F910F91FF90EF90DF90F4
S1131FC0CF90BF90AF909F9008959F92AF92BF9291
S1131FD0CF92DF92EF92FF920F931F93CF93DF93F1
S1131FE0CDB7DEB76D970FB6F894DEBF0FBECDBF89
S1131FF07C016B01912C6BC0AE014F5F5F4F60E0C1
S1132000892D0E94D700AE014E5F5F4F61E0892D9C
S11320100E94D700B12C56C0898190E00B2C02C0DD
S1132020959587950A94E2F780FF4BC06FE1B69EC1
S1132030A02C112465E16A0D9E01205F3F4F47E00B
S113204050E0892D0E94F800BE01605F7F4FC701F8
S11320500E949F13892BA9F568E06A0D9E012D5FEC
S11320603F4F4DE050E0892D0E94F8006CE16A0D6D
S11320709E01295E3F4F47E050E0892D0E94F80001
S11320808A8190E002C095958795BA94E2F7982FDB
S11320909170F6019193BE016D5F7F4FCF010E9455
S11320A0A813BE01605F7F4FC6010E960E94A8135D
S11320B0BE01695E7F4FC60145960E94A81382E067
S11320C00BC0B39487E08B1508F0A6CF939487E0F8
S11320D0891508F091CF83E06D960FB6F894DEBFB2
S11320E00FBECDBFDF91CF911F910F91FF90EF9065
S11320F0DF90CF90BF90AF909F900895EF92FF92A2
S11321000F931F93CF93DF9300D0CDB7DEB77B013E
S1132110082F069506950695182F1770AE014F5F88
S11321205F4F60E0802F0E94D700AE014E5F5F4F8B
S113213061E0802F0E94D70081E090E0012E02C070
S1132140880F991F0A94E2F74981482B4983F701C4
S11321502081222319F09A81892B8A8360E0802FC1
S11321600E942E014A8161E0802F0E942E01970176
S11321702F5F3F4F6FE1169F102D112468E0610F10
S11321804DE050E0802F0E944D019701225F3F4FA8
S113219065E1610F47E050E0802F0E944D019701F7
S11321A02B5E3F4F6CE1610F4BE050E0802F0E94AB
S11321B04D010F900F90DF91CF911F910F91FF90E0
S11321C0EF900895EF92FF921F93CF93DF931F92A6
S11321D0CDB7DEB77C0110E01AC0AE014F5F5F4F90
S11321E060E0812F0E94D70099819F3F79F002C05F
S11321F08F5F01C080E0292F30E0082E02C03595A2
S113220027950A94E2F720FDF3CF04C01F5F18302E
S113221020F380E0183049F0110F110F110FB701AE
S1132220810F0E947E108AE001C08CE00F90DF9144
S1132230CF911F91FF90EF900895CF92DF92EF928C
S1132240FF920F931F93CF93DF93CDB7DEB72997F8
S11322500FB6F894DEBF0FBECDBF6C0100E04DC0D9
S1132260AE014F5F5F4F60E0802F0E94D700AE0148
S11322704E5F5F4F61E0802F0E94D70010E03AC0AC
S1132280898190E0012E02C0959587950A94E2F722
S113229080FF2FC06FE1169F602D11246B5E9E019D
S11322A02D5F3F4F47E050E0802F0E94F800BE01B1
S11322B06D5F7F4FC6010E960E949F13892BC9F450
S11322C081E090E002C0880F991F1A95E2F780958B
S11322D04981482349839A8189238A8360E0802F36
S11322E00E942E014A8161E0802F0E942E018BE022
S11322F008C01F5F183020F20F5F083008F4B0CF19
S113230083E029960FB6F894DEBF0FBECDBFDF91F0
S1132310CF911F910F91FF90EF90DF90CF90089590
S11323205058BB27AA270E94A8110C94F2120E94AD
S1132330E41238F00E94EB1220F039F49F3F19F4B4
S113234026F40C94E1120EF4E095E7FB0C94DB12F6
S1132350E92F0E94031358F3BA176207730784071F
S1132360950720F079F4A6F50C9425130EF4E09566
S11323700B2EBA2FA02D0B01B90190010C01CA013B
S1132380A0011124FF27591B99F0593F50F4503EE6
S113239068F11A16F040A22F232F342F4427585FD8
S11323A0F3CF469537952795A795F0405395C9F7F0
S11323B07EF41F16BA0B620B730B840BBAF09150A8
S11323C0A1F0FF0FBB1F661F771F881FC2F70EC047
S11323D0BA0F621F731F841F48F48795779567951A
S11323E0B795F7959E3F08F0B0CF9395880F08F006
S11323F09927EE0F9795879508950E9411120C94D2
S1132400F2120E94EB1258F00E94E41240F029F4F8
S11324105F3F29F00C94DB1251110C9426130C9499
S1132420E1120E94031368F39923B1F3552391F346
S1132430951B550BBB27AA2762177307840738F02F
S11324409F5F5F4F220F331F441FAA1FA9F335D08C
S11324500E2E3AF0E0E832D091505040E695001C40
S1132460CAF72BD0FE2F29D0660F771F881FBB1FFA
S1132470261737074807AB07B0E809F0BB0B802DD8
S1132480BF01FF2793585F4F3AF09E3F510578F004
S11324900C94DB120C9426135F3FE4F3983ED4F3C0
S11324A0869577956795B795F7959F5FC9F7880FD8
S11324B0911D9695879597F90895E1E0660F771F2A
S11324C0881FBB1F621773078407BA0720F0621BBB
S11324D0730B840BBA0BEE1F88F7E09508950E94E6
S11324E00B1388F09F5798F0B92F9927B751B0F084
S11324F0E1F0660F771F881F991F1AF0BA95C9F784
S113250014C0B13091F00E942513B1E008950C94E9
S11325102513672F782F8827B85F39F0B93FCCF39C
S1132520869577956795B395D9F73EF49095809500
S1132530709561957F4F8F4F9F4F0895E89409C020
S113254097FB3EF490958095709561957F4F8F4FE2
S11325509F4F9923A9F0F92F96E9BB279395F695F8
S1132560879577956795B795F111F8CFFAF4BB0F76
S113257011F460FF1BC06F5F7F4F8F4F9F4F16C0DA
S1132580882311F096E911C0772321F09EE8872F64
S1132590762F05C0662371F096E8862F70E060E020
S11325A02AF09A95660F771F881FDAF7880F969599
S11325B0879597F9089597F99F6780E870E060E040
S11325C008959FEF80EC089500240A9416161706C8
S11325D018060906089500240A9412161306140610
S11325E005060895092E0394000C11F4882352F073
S11325F0BB0F40F4BF2B11F460FF04C06F5F7F4F2B
S11326008F4F9F4F089557FD9058440F551F59F011
S11326105F3F71F04795880F97FB991F61F09F3FCB
S113262079F087950895121613061406551FF2CFF4
S11326304695F1DF08C0161617061806991FF1CF44
S113264086957105610508940895E894BB2766276B
S11326507727CB0197F908950E943F130C94F21247
S11326600E94E41238F00E94EB1220F0952311F03E
S11326700C94DB120C94E11211240C9426130E9486
S1132680031370F3959FC1F3950F50E0551F629F9C
S1132690F001729FBB27F00DB11D639FAA27F00DB7
S11326A0B11DAA1F649F6627B00DA11D661F829FDE
S11326B02227B00DA11D621F739FB00DA11D621FC3
S11326C0839FA00D611D221F749F3327A00D611DE0
S11326D0231F849F600D211D822F762F6A2F1124C2
S11326E09F5750409AF0F1F088234AF0EE0FFF1FF5
S11326F0BB1F661F771F881F91505040A9F79E3F4C
S1132700510580F00C94DB120C9426135F3FE4F324
S1132710983ED4F3869577956795B795F795E795A1
S11327209F5FC1F7FE2B880F911D9695879597F9AA
S11327300895EE0FFF1F0590F491E02D0994FB011D
S1132740DC018D91019080190110D9F3990B089542
S1132750FB01DC0101900D920020E1F70895AEE049
S1132760B0E0E5EBF3E10C9470160D891E8986E068
S11327708C831A8309838FEF9FE79E838D83AE0139
S1132780475E5F4F6F89788DCE0101960E94D11309
S1132790EF81F885E00FF11F10822E96E4E00C948F
S11327A08C16ABE0B0E0E7EDF3E10C9462166C013B
S11327B07B018A01FC0117821682838181FFCCC1CF
S11327C0CE0101963C01F6019381F70193FD8591B9
S11327D093FF81917F01882309F4BAC1853239F4CA
S11327E093FD859193FF81917F01853229F4B60190
S11327F090E00E94C815E7CF912C212C312CFFE1E9
S1132800F315D8F08B3279F038F4803279F08332D2
S1132810A1F4232D20611DC08D3261F0803369F451
S1132820232D216016C0832D8260382EE32DE460B1
S11328303E2E2AC0F32DF8601DC037FC2DC020EDBC
S1132840280F2A3040F08E32B9F436FC81C1232D92
S11328502064322E19C036FE06C08AE0989E200DF0
S11328601124922E11C0EAE02E9E200D1124222E56
S1132870F32DF0623F2E08C08C3621F4832D80683E
S1132880382E02C0883641F4F70193FD859193FFF9
S113289081917F018111B3CF982F9F7D95549330FF
S11328A028F40C5F1F4F9FE399830DC0833631F0EA
S11328B0833771F0833509F059C021C0F801808154
S11328C089830E5F1F4F88248394912C530113C076
S11328D02801F2E04F0E511CF801A080B18036FEB1
S11328E003C0692D70E002C06FEF7FEFC5010E9445
S11328F0BD154C018201F32DFF773F2E16C0280130
S113290022E0420E511CF801A080B18036FE03C0C3
S1132910692D70E002C06FEF7FEFC5010E94B21510
S11329204C01F32DF0683F2E820133FC1BC0822D35
S113293090E088169906B0F4B60180E290E00E9417
S1132940C8152A94F4CFF50137FC859137FE81919F
S11329505F01B60190E00E94C81521102A9421E07D
S1132960821A91088114910471F7E8C0843611F039
S1132970893641F5F80137FE07C060817181828193
S113298093810C5F1F4F08C060817181072E000C7A
S1132990880B990B0E5F1F4FF32DFF763F2E97FF89
S11329A009C090958095709561957F4F8F4F9F4F8B
S11329B0F0683F2E2AE030E0A3010E940416882E1E
S11329C0861845C0853731F4232D2F7EB22E2AE098
S11329D030E025C0932D997FB92E8F36C1F018F4BD
S11329E0883579F0B5C0803719F0883721F0B0C048
S11329F0E92FE061BE2EB4FE0DC0FB2DF460BF2EA6
S1132A0009C034FE0AC0292F2660B22E06C028E071
S1132A1030E005C020E130E002C020E132E0F801FE
S1132A20B7FE07C060817181828193810C5F1F4F63
S1132A3006C06081718180E090E00E5F1F4FA301AA
S1132A400E940416882E8618FB2DFF773F2E36FE33
S1132A500DC0232D2E7FA22E891458F434FE0BC0F2
S1132A6032FC09C0832D8E7EA82E05C0B82CA32C61
S1132A7003C0B82C01C0B92CA4FE0FC0FE01E80DA0
S1132A80F11D8081803321F49A2D997EA92E09C0ED
S1132A90A2FE06C0B394B39404C08A2D867809F0CC
S1132AA0B394A3FC11C0A0FE06C0B21488F4280C91
S1132AB0922C9B180EC0B21460F4B60180E290E030
S1132AC00E94C815B394F7CFB21418F42B1802C09F
S1132AD0982C212CA4FE10C0B60180E390E00E9443
S1132AE0C815A2FE17C0A1FC03C088E790E002C08D
S1132AF088E590E0B6010CC08A2D867859F0A1FED5
S1132B0002C08BE201C080E2A7FC8DE2B60190E036
S1132B100E94C815891438F4B60180E390E00E943D
S1132B20C8159A94F7CF8A94F301E80DF11D8081BA
S1132B30B60190E00E94C8158110F5CF222009F457
S1132B4042CEB60180E290E00E94C8152A94F6CFE6
S1132B50F6018681978102C08FEF9FEF2B96E2E109
S1132B600C947E16FC010590615070400110D8F75A
S1132B70809590958E0F9F1F0895FC0161507040C1
S1132B8001900110D8F7809590958E0F9F1F08959E
S1132B900F931F93CF93DF93FB01238121FD03C088
S1132BA08FEF9FEF2CC022FF16C0468157812481EE
S1132BB035814217530744F4A081B1819D012F5FF1
S1132BC03F4F318320838C93268137812F5F3F4F82
S1132BD03783268314C08B01EC01FB010084F1854B
S1132BE0E02D0995892BE1F6D80116968D919C91DB
S1132BF01797019617969C938E931697CE01DF91A3
S1132C00CF911F910F910895FA01AA27283051F10D
S1132C10203181F1E8946F936E7F6E5F7F4F8F4F09
S1132C209F4FAF4FB1E03ED0B4E03CD0670F781F68
S1132C30891F9A1FA11D680F791F8A1F911DA11D4D
S1132C406A0F711D811D911DA11D20D009F4689486
S1132C503F912AE0269F11243019305D3193DEF62E
S1132C60CF010895462F4770405D4193B3E00FD0E4
S1132C70C9F7F6CF462F4F70405D4A3318F0495DCF
S1132C8031FD4052419302D0A9F7EACFB4E0A695B2
S1132C909795879577956795BA95C9F700976105D4
S1132CA0710508959B01AC010A2E0694579547952A
S1132CB037952795BA95C9F7620F731F841F951F1F
S1132CC0A01D08952F923F924F925F926F927F9230
S1132CD08F929F92AF92BF92CF92DF92EF92FF9228
S1132CE00F931F93CF93DF93CDB7DEB7CA1BDB0BD4
S1132CF00FB6F894DEBF0FBECDBF09942A88398879
S1132D0048885F846E847D848C849B84AA84B9847F
S1132D10C884DF80EE80FD800C811B81AA81B9818B
S1132D20CE0FD11D0FB6F894DEBF0FBECDBFED019F
S1092D300895F894FFCFA2
S1132D360D0A0053656C656374206F6E65206F66BB
S1132D462074686520666F6C6C6F77696E672064A3
S1132D5665766963657320746F20636F6E74726F32
S1132D666C3A09005B315D204C616D702031005B6B
S1132D76325D204C616D702032005B335D204C6106
S1132D866D702033005B345D204C616D702034001F
S1132D965B355D204C616D702035005B365D204CE3
S1132DA6616D702036202864696D6D61626C6529D9
S1132DB6005B375D2054686520446F6F72005B3892
S1132DC65D20476F206261636B20746F206D6169BB
S1132DD66E206D656E75005B375D20476F206261FE
S1132DE6636B20746F206D61696E206D656E75006E
S1132DF653656C656374206F6E65206F6620746816
S1132E066520666F6C6C6F77696E67206F70746986
S1132E166F6E7328627920656E746572696E6720B9
S1132E26697473206E756D626572293A09005B31A7
S1132E365D20416464207573657209005B325D2010
S1132E4644656C657465207573657209005B335D52
S1132E5620436F6E74726F6C2061206465766963BB
S1132E666509005B345D204C6F67206F757409003B
S1132E765B355D20416C6C6F77206C6F63616C20F1
S1132E867573657220636F6E74726F6C09005B31C3
S1132E965D20436F6E74726F6C2061206465766981
S1132EA6636509005B325D204C6F67206F7574099A
S1132EB600546F206C6F67696E20616761696E20CC
S1132EC6796F75206861766520746F206469736311
S1132ED66F6E6E65637420616E64207265636F6ED7
S1132EE66E65637420746F20746865204254206D87
S1132EF66F64756C652E2E2E00596F752068617689
S1132F0665207375636365737366756C6C79206C81
S1132F166F67676564206F75742E2E2E00496E7672
S1132F26616C6964206F7074696F6E210900456E67
S1132F36746572207468652075736572206E616DA0
S1132F4665206F6620746865207573657220796FD5
S1132F56752077616E7420746F2064656C65746582
S1132F663A20000D4572726F7221205573657220E6
S1132F766E6F7420666F756E642E2052657475725A
S1132F866E696E6720746F20746865206D61696E62
S1132F96206D656E752E2E2E00546865207573653A
S1132FA67220686173206265656E2064656C657461
S1132FB66564207375636365737366756C6C7921D8
S1132FC60900456E746572207468652062726967CB
S1132FD668746E657373206C6576656C20666F72B3
S1132FE620746865206C616D702866726F6D203080
S1132FF6286F66662920746F2039286D617829291F
S11330063A2000456E746572203120746F206F700B
S1133016656E2074686520646F6F7220616E64202B
S11330263020746F20636C6F73652069743A2000D6
S11330364C616D702000206973206F6E2E205475CC
S1133046726E206974206F66663F2028592F4E29B8
S113305600206973206F66662E205475726E20698F
S113306674206F6E3F2028592F4E29000D0A496E91
S113307676616C696420696E707574212109005447
S11330866865206272696768746E65737320686127
S113309673206265656E2061646A75737465642164
S11330A60054686520446F6F7220697320636C6FE7
S11330B6736564206E6F772E0054686520446F6FC5
S11330C672206973206F70656E206E6F772E0054C0
S11330D66865204C616D70206973206E6F77206F70
S11330E66E2100546865204C616D70206973206EF2
S11330F66F77206F66662100446F20796F7520779D
S1133106616E7420746F206D616B65207468652030
S11331166E6577207573657220616E2061646D69D2
S11331266E3F2028792F6E2920005573657220681A
S11331366173206265656E206164646564207375DD
S1133146636365737366756C6C792100456E74658B
S11331567220746865206E657720757365722773AF
S11331662070617373776F72642854686520706188
S11331767373776F72642063616E206F6E6C79204F
S1133186636F6E73697374206F66206E756D626506
S1133196727320616E6420342064696769747320D5
S11331A66174206C656173742C2031302061742045
S11331B66D6178293A200050617373776F726420C9
S11331C6746F6F2073686F727421210900456E74E1
S11331D6657220746865206E65772075736572273D
S11331E67320636F6465286D75737420626520614E
S11331F620756E69717565207369782064696769DD
S11332067420636F6465293A2000557365722063E0
S11332166F646520746F6F2073686F727421000D7C
S1133226546865207573657220636F646520616CEC
S11332367265616479206578697374732109004540
S11332466E74657220746865206E65772075736583
S1133256722773206E616D653A20000D54686520EF
S11332667573657220616C7265616479206578692D
S1133276737473210900496E76616C6964206C6FFE
S113328667696E20617474656D707421200D0A255A
S11332966420617474656D7074732072656D616900
S11332A66E696E672E00546F6F206D616E79206CA7
S11332B66F67696E20617474656D70747321200D77
S11332C62D2D2D2053797374656D20537573706598
S11332D66E64656421202D2D2D00456E7465722063
S11332E6796F75722070617373776F72643A09002F
S11332F657726F6E672070617373776F7264210003
S113330657656C636F6D652000456E746572207930
S11333166F75722075736572206E616D653A09006A
S11333265573657220646F65736E277420657869BA
S11133367374210057656C636F6D6521000090
S9030000FC
