:100000000C942A000C9447000C9447000C94470071
:100010000C9447000C9447000C9447000C94470044
:100020000C9447000C9447000C9447000C94470034
:100030000C9447000C94AE010C9447000C944700BC
:100040000C9449000C9447000C9447000C94470012
:100050000C94470011241FBECFE5D8E0DEBFCDBF12
:1000600010E0A0E6B0E0E2E3F4E002C005900D92FB
:10007000A036B107D9F720E0A0E6B0E001C01D929C
:10008000A939B207E1F70E946F000C9417020C9493
:1000900000001F920F920FB60F9211242F933F93DF
:1000A0004F935F936F937F938F939F93AF93BF9380
:1000B000EF93FF9362E481E00E945701FF91EF917B
:1000C000BF91AF919F918F917F916F915F914F9170
:1000D0003F912F910F900FBE0F901F90189578941D
:1000E00040E061E487E00E94BD0041E064E487E015
:1000F0000E94BD0083B7886083BF8FEF8CBF83B73A
:10010000816083BF83B7846083BF87B1806487B910
:1001100087B1806887B986B1816086B986B182600F
:1001200086B986B1846086B986B1806286B980B7A7
:10013000806680BF87B1807E876087B986B188601E
:1001400086B986B1806886B941E062E481E00E94A8
:10015000BD00FFCF883010F481E0089580E008955D
:100160008154843010F481E0089580E00895823055
:1001700010F481E0089580E008951F93CF93DF93FA
:10018000C82FD62F142F0E94AA00882309F484C0F8
:100190008D2F0E94B000882309F480C0812F0E9417
:1001A000B700882309F47CC0D23429F118F4D13483
:1001B00039F078C0D334D1F1D43409F452C072C0CC
:1001C000113061F42AB381E090E002C0880F991FDA
:1001D000CA95E2F7822B8ABB80E065C02AB381E032
:1001E00090E002C0880F991FCA95E2F7809582239C
:1001F0008ABB80E058C0113061F427B381E090E001
:1002000002C0880F991FCA95E2F7822B87BB80E056
:100210004AC027B381E090E002C0880F991FCA95B9
:10022000E2F78095822387BB80E03DC0113061F406
:1002300024B381E090E002C0880F991FCA95E2F7CD
:10024000822B84BB80E02FC024B381E090E002C009
:10025000880F991FCA95E2F78095822384BB80E0BE
:1002600022C0113061F421B381E090E002C0880F18
:10027000991FCA95E2F7822B81BB80E014C021B39D
:1002800081E090E002C0880F991FCA95E2F780953F
:10029000822381BB80E007C081E005C082E003C00B
:1002A00083E001C080E0DF91CF911F910895CF934B
:1002B000DF93D82FC62F0E94AA00882309F440C0DC
:1002C0008C2F0E94B0008823E9F1C234A9F018F401
:1002D000C13431F039C0C334D9F0C43429F134C049
:1002E0002BB381E090E002C0880F991FDA95E2F706
:1002F00082278BBB80E029C028B381E090E002C058
:10030000880F991FDA95E2F7822788BB80E01DC02D
:1003100025B381E090E002C0880F991FDA95E2F7DB
:10032000822785BB80E011C022B381E090E002C04B
:10033000880F991FDA95E2F7822782BB80E005C01B
:1003400081E003C082E001C080E0DF91CF91089599
:10035000E0919700F0919800099508951F920F92EF
:100360000FB60F9211242F933F934F935F936F9388
:100370007F938F939F93AF93BF93EF93FF938CB132
:100380008093960090917000992309F43FC02091CA
:100390009200222349F0811139C0109292001092EC
:1003A00071001092600032C0E0916000AE2FB0E0AA
:1003B000AF59BF4F8C93EF5FE0936000E13039F4A9
:1003C00080916100811103C0109260001FC09E13D4
:1003D0000FC0F0E0E05AFF4F8081882349F081E0B0
:1003E0008093710080939200109260000E94A80197
:1003F0008091960081110AC09091600080917000F8
:10040000891720F00E94A80110926000FF91EF91DF
:10041000BF91AF919F918F917F916F915F914F911C
:100420003F912F910F900FBE0F901F901895F89449
:02043000FFCFFC
:00000001FF
