:100000000C9484000C94BA0E0C94A1000C94A100E2
:100010000C94A1000C94A1000C94A1000C94A100DC
:100020000C94A1000C94A1000C94A1000C94A100CC
:100030000C94A1000C94430E0C94A1000C94A1000C
:100040000C94DE0E0C94A1000C94A1000C94A10061
:100050000C94A10016062A062A062A062A062A0653
:100060002A062A062C062A062A062A062A062A060E
:100070002A062A0618062A062A062A062A062A0612
:100080002A062A061A062A062A062A062A062A0600
:100090002A062A061C062A062A062A062A062A06EE
:1000A0002A062A061E062A062A062A062A062A06DC
:1000B0002A062A0620062A062A062A062A062A06CA
:1000C0002A062A0622062A062A062A062A062A06B8
:1000D0002A062A0624062A062A062A062A062A06A6
:1000E0002A062A0626062A062A062A062A062A0694
:1000F0002A062A062806E607ED07F407FB0702088A
:100100000908100817081E0811241FBECFE5D8E003
:10011000DEBFCDBF17E0A0E6B0E0E8E0FDE202C040
:1001200005900D92A231B107D9F727E0A2E1B7E01F
:1001300001C01D92AC3CB207E1F70E940F040C9481
:1001400082160C940000982F862F41E0692F0E94A0
:10015000C704811182E008950E942E0608950F932E
:100160001F93CF93DF93C82FD62F8A010E943206A8
:10017000CC0F80EA8C0F0E943A068D2F0E943A061F
:100180000E94320681EA8C0F0E943A06C8010E9442
:100190004E060E945906DF91CF911F910F9108954D
:1001A000EF92FF920F931F93CF93DF93C82FD62F19
:1001B0007A0189010E943206CC0F80EA8C0F0E94DE
:1001C0003A068D2F0E943A060E94320681EA8C0F71
:1001D0000E943A06C0E0D0E006C0C8018C0F9D1F07
:1001E0000E9443062196C7010197C817D907A8F3B3
:1001F000C8018C0F9D1F0E944E060E945906DF9178
:10020000CF911F910F91FF90EF9008951F93CF937F
:10021000DF93C82F162FD42F0E9432068C2F880F01
:1002200080560E943A06812F0E943A068D2F0E9426
:100230003A060E9459068FE39CE90197F1F700C046
:100240000000DF91CF911F9108956F927F928F925E
:100250009F92AF92BF92CF92DF92EF92FF920F9355
:100260001F93CF93DF93782E662E6A018901862F24
:100270008F7020E130E07901E81AF1084E155F0532
:1002800008F47A010E943206872D880F0F2EF0EABB
:100290007F2EF02D780E872D0E943A06862D0E9423
:1002A0003A06C0E0D0E007C0F801EC0FFD1F8081E6
:1002B0000E943A062196CE15DF05B0F30E9459063A
:1002C0008FE39CE90197F1F700C00000EC14FD04F6
:1002D00009F461C05601A60CB11C9FE0A922BB2401
:1002E000CE18DF08CA18DB08D694C794D694C794F2
:1002F000D694C794D694C794E12CF12C27C00E94C1
:100300003206872D0E943A068C2F860D0E943A06EF
:10031000812C912C0BC0FE01E80DF91DE00FF11F9F
:1003200080810E943A068FEF881A980A90E1891618
:10033000910488F360960E9459068FE39CE9019727
:10034000F1F700C000009FEFE91AF90AEC14FD0470
:10035000B0F20E943206872D0E943A068C2F860D3D
:100360000E943A06E12CF12C0BC0FE01EE0DFF1DA0
:10037000E00FF11F80810E943A068FEFE81AF80A19
:10038000EA14FB0490F30E9459068FE39CE901975D
:10039000F1F700C00000DF91CF911F910F91FF9006
:1003A000EF90DF90CF90BF90AF909F908F907F9015
:1003B0006F9008950E94FA0608950E94000708951C
:1003C00041E062E480E00E942D0441E062E481E0CB
:1003D0000E942D0441E062E482E00E942D0441E08D
:1003E00062E483E00E942D0441E062E480E00E9428
:1003F000C70441E062E481E00E94C70441E062E496
:1004000082E00E94C70441E062E483E00E94C704E6
:1004100040E062E484E00E942D0440E062E485E074
:100420000E942D0440E062E486E00E942D0440E03A
:1004300062E487E00E942D0441E062E484E00E94CF
:10044000C70441E062E485E00E94C70441E062E441
:1004500086E00E94C70441E062E487E00E94C7048E
:1004600080E00895813059F028F0823069F08330BF
:1004700081F0089562E480E00E94B705089562E487
:1004800081E00E94B705089562E482E00E94B7050A
:10049000089562E483E00E94B7050895813061F019
:1004A00028F0823079F0833099F00895AB0162E44E
:1004B00084E00E9461050895AB0162E485E00E943A
:1004C00061050895AB0162E486E00E94610508952C
:1004D000AB0162E487E00E9461050895813061F01C
:1004E00028F0823079F0833099F00895AB0162E40E
:1004F00080E00E9461050895AB0162E481E00E9402
:1005000061050895AB0162E482E00E9461050895EF
:10051000AB0162E483E00E9461050895EF92FF92CF
:100520000F931F93CF93DF93CDB7DEB762970FB6CC
:10053000F894DEBF0FBECDBF7C0180E1E1E6F0E0C4
:10054000DE01119601900D928A95E1F700E01CC042
:10055000BE016E5E7F4F802F0E946E028A898823C3
:1005600061F011C0BE016F5E7F4F812F0E944E026D
:1005700089898823C9F11F5F01C010E0143090F30E
:10058000802F0E9432020F5F043010F300E028C079
:10059000802F0E94320210E01DC0BE016F5E7F4FAF
:1005A000812F0E944E028989811113C0E02FF0E053
:1005B000EE0FFF1FEE0FFF1F81E090E08C0F9D1FDD
:1005C000E80FF91FE10FF11D8081F701808381E0C1
:1005D0000CC01F5F143008F3802F0E9432020F5F9F
:1005E0000430B0F282E001C082E062960FB6F89467
:1005F000DEBF0FBECDBFDF91CF911F910F91FF9056
:10060000EF90089541E061E486E00E94C7048AE12A
:100610008A95F1F700C040E061E486E00E94C704DB
:100620000895CF93C82F482F417061E480E00E9465
:10063000C704C1FB442740F961E481E00E94C7047C
:10064000C2FB442740F961E482E00E94C704C3FB77
:10065000442740F961E483E00E94C704CF910895E4
:10066000CF93C82F82958F700E94110341E061E4FF
:1006700084E00E94C7040E9402038C2F0E94110391
:100680000E94020385E08A95F1F70000CF9108955A
:10069000CF93C82F82958F700E94110340E061E4D0
:1006A00084E00E94C7040E9402038C2F0E94110361
:1006B0000E9402038FED9EE20197F1F700C0000057
:1006C000CF91089581E00E94480308952FEF89EFAC
:1006D00090E0215080409040E1F700C0000041E0F0
:1006E00061E480E00E942D0441E061E481E00E9429
:1006F0002D0441E061E482E00E942D0441E061E4C8
:1007000083E00E942D0441E061E484E00E942D0416
:1007100041E061E485E00E942D0441E061E486E06F
:100720000E942D0440E061E485E00E94C70482E05D
:100730000E94480388E20E9448038CE00E9448031C
:1007400086E00E9448030E9462030895CF92DF92E0
:10075000EF92FF92CF93DF93EC01C12CD12C760165
:1007600007C00E9430038FEFC81AD80AE80AF80AB7
:10077000FE01EC0DFD1D80818111F3CFDF91CF9142
:10078000FF90EF90DF90CF900895662319F06130CD
:1007900029F0089580580E944803089580540E94CB
:1007A00048030895CF93DF93EA010E94C503CE0169
:1007B0000E94A603DF91CF910895982F862F41E0E4
:1007C000692F0E94C704811182E00895982F862F17
:1007D00040E0692F0E94C704811183E00895982F9B
:1007E000862F692F0E94B705811184E00895682F34
:1007F00070E080E090E00E94781220E030E041EE6E
:1008000054E40E94D7112DEC3CEC4CEC5CE30E94CC
:100810006B11AB01BC0181E00E94BB0608950E94F0
:10082000B7070E941D09FDCF883010F481E00895BC
:1008300080E008958154843010F481E0089580E0D0
:100840000895823010F481E0089580E008958230A8
:1008500010F481E0089580E008951F93CF93DF9313
:10086000C82FD62F142F0E941404882309F484C0A3
:100870008D2F0E941A04882309F480C0812F0E94C2
:100880002104882309F47CC0D23429F118F4D1342E
:1008900039F078C0D334D1F1D43409F452C072C0E5
:1008A000113061F42AB381E090E002C0880F991FF3
:1008B000CA95E2F7822B8ABB80E065C02AB381E04B
:1008C00090E002C0880F991FCA95E2F780958223B5
:1008D0008ABB80E058C0113061F427B381E090E01A
:1008E00002C0880F991FCA95E2F7822B87BB80E070
:1008F0004AC027B381E090E002C0880F991FCA95D3
:10090000E2F78095822387BB80E03DC0113061F41F
:1009100024B381E090E002C0880F991FCA95E2F7E6
:10092000822B84BB80E02FC024B381E090E002C022
:10093000880F991FCA95E2F78095822384BB80E0D7
:1009400022C0113061F421B381E090E002C0880F31
:10095000991FCA95E2F7822B81BB80E014C021B3B6
:1009600081E090E002C0880F991FCA95E2F7809558
:10097000822381BB80E007C081E005C082E003C024
:1009800083E001C080E0DF91CF911F9108951F9314
:10099000CF93DF93C82FD62F142F0E9414048823DF
:1009A00009F484C08D2F0E941A04882309F480C0A2
:1009B000812F0E942704882309F47CC0D23429F1B6
:1009C00018F4D13439F078C0D334D1F1D43409F4E7
:1009D00052C072C0113061F42BB381E090E002C0CC
:1009E000880F991FCA95E2F7822B8BBB80E065C008
:1009F0002BB381E090E002C0880F991FCA95E2F7FF
:100A0000809582238BBB80E058C0113061F428B3FD
:100A100081E090E002C0880F991FCA95E2F7822B0F
:100A200088BB80E04AC028B381E090E002C0880F14
:100A3000991FCA95E2F78095822388BB80E03DC06C
:100A4000113061F425B381E090E002C0880F991F56
:100A5000CA95E2F7822B85BB80E02FC025B381E0E9
:100A600090E002C0880F991FCA95E2F78095822313
:100A700085BB80E022C0113061F422B381E090E0B8
:100A800002C0880F991FCA95E2F7822B82BB80E0D3
:100A900014C022B381E090E002C0880F991FCA956C
:100AA000E2F78095822382BB80E007C081E005C029
:100AB00082E003C084E001C080E0DF91CF911F910C
:100AC00008950F931F93CF93DF93D82FC62F8A01DA
:100AD0000E941404882309F440C08C2F0E941A0439
:100AE0008823E9F1C234A9F018F4C13431F039C0D7
:100AF000C334D9F0C43429F134C089B390E002C0C2
:100B000095958795DA95E2F78170F801808380E00A
:100B100029C086B390E002C095958795DA95E2F7F3
:100B20008170F801808380E01DC083B390E002C033
:100B300095958795DA95E2F78170F801808380E0DA
:100B400011C080B390E002C095958795DA95E2F7E1
:100B50008170F801808380E005C081E003C082E0FD
:100B600001C080E0DF91CF911F910F910895CF9345
:100B7000DF93D82FC62F0E941404882309F440C0A5
:100B80008C2F0E941A048823E9F1C234A9F018F4CA
:100B9000C13431F039C0C334D9F0C43429F134C080
:100BA0002BB381E090E002C0880F991FDA95E2F73D
:100BB00082278BBB80E029C028B381E090E002C08F
:100BC000880F991FDA95E2F7822788BB80E01DC065
:100BD00025B381E090E002C0880F991FDA95E2F713
:100BE000822785BB80E011C022B381E090E002C083
:100BF000880F991FDA95E2F7822782BB80E005C053
:100C000081E003C082E001C080E0DF91CF910895D0
:100C100081B1E82FE87F8E2F90E0FC013897E13515
:100C2000F105C0F4E65DFF4F0C94731380E0089566
:100C300082E0089583E0089584E0089585E00895B2
:100C400086E0089587E0089588E0089589E0089592
:100C50008AE008958BE0089581E0089511B88FEF40
:100C600080B9089584EA86BF06B607FEFDCF0E94CC
:100C70000806089583B984E886BF06B607FEFDCF4F
:100C80000E940806089524EC26BF06B607FEFDCF95
:100C900023B1FC0120830E940806089524E826BFA2
:100CA00006B607FEFDCF23B1FC0120830E94080693
:100CB000089584E986BF06B604FCFDCF089584300C
:100CC00040F5813071F028F0823099F08330C9F01E
:100CD00022C083B78F7E83BF83B78F7D83BF80E0C1
:100CE00008958FB58F7B8FBD8FB58F778FBD80E0D7
:100CF00008958FB58F7E8FBD8FB58F7D8FBD80E0BE
:100D0000089585B58F7E85BD85B58F7D85BD80E0D5
:100D1000089587E0089580E00895843040F581309B
:100D200071F028F0823099F08330C9F022C083B787
:100D30008F7E83BF83B7806283BF80E008958FB5C5
:100D40008F7B8FBD8FB580688FBD80E008958FB594
:100D50008F7E8FBD8FB580628FBD80E0089585B591
:100D60008F7E85BD85B5806285BD80E0089587E072
:100D7000089580E00895282F8430C0F5CB01BA0192
:100D8000213089F028F02230D1F0233021F130C019
:100D900020E030E04FE753E40E9406130E9449121E
:100DA0006CBF80E0089520E030E44CE956E40E94F6
:100DB00006130E9449127BBD6ABD80E0089520E0C1
:100DC00030E44CE956E40E9406130E94491279BDB2
:100DD00068BD80E0089520E030E04FE753E40E94D2
:100DE00006130E94491263BD80E0089587E00895CC
:100DF00080E008955D9BFECF8CB95E9BFECF089589
:100E0000CF92DF92EF92FF92CF93DF93EC01C12C50
:100E1000D12C760107C00E94FA068FEFC81AD80AB3
:100E2000E80AF80AFE01EC0DFD1D80818111F3CF67
:100E30000E94FA06DF91CF91FF90EF90DF90CF9064
:100E4000089584EB0E94F703089580E00E94F70361
:100E500008958330B1F028F4813049F0823061F098
:100E600008958530C1F090F08630D1F0089562E0A9
:100E700083E40E94DD03089563E083E40E94DD03C0
:100E8000089564E083E40E94DD03089565E083E44F
:100E90000E94DD03089566E083E40E94DD03089567
:100EA00083E00E948D0608958330B1F028F48130EC
:100EB00049F0823061F008958530C1F090F08630BD
:100EC000D1F0089562E083E40E94E603089563E0B0
:100ED00083E40E94E603089564E083E40E94E6034D
:100EE000089565E083E40E94E603089566E083E4E4
:100EF0000E94E603089583E00E945F060895833010
:100F0000B1F028F4813049F0823061F008958530E5
:100F1000C1F090F08630D1F0089562E083E40E9441
:100F2000EF03089563E083E40E94EF03089564E013
:100F300083E40E94EF03089565E083E40E94EF03D9
:100F4000089566E083E40E94EF03089505B405FE6A
:100F500004C086E00E945407089586E00E94290795
:100F60000895AB01BC0183E00E94BB0608950E9476
:100F700066030E94E0010E941E0F0895CF93C0E017
:100F80000AC04C2F50E0475D584F63E482E08C0F5D
:100F90000E946105CF5FC530A0F385B585FB88272A
:100FA00080F980932E074FE257E064E487E00E94C7
:100FB0006105CF91089590E0FC013197E930F1058A
:100FC00008F042C0E558FF4F0C94731341E750E01E
:100FD00061E080E00E94D203089542E850E061E0C1
:100FE00080E00E94D203089543E950E061E080E090
:100FF0000E94D203089544EA50E061E080E00E943C
:10100000D203089545EB50E061E080E00E94D203F6
:10101000089546EC50E061E080E00E94D20308951C
:1010200047ED50E061E080E00E94D203089548EE71
:1010300050E061E080E00E94D203089549EF50E063
:1010400061E080E00E94D20308954AE051E060E050
:101050008CE00E94D2034FE051E061E08CE00E94FE
:10106000D2030895CF93C0E00AC04C2F50E04D5CEE
:10107000584F63E482E08C0F0E946105CF5FC5305A
:10108000A0F32AB53BB53695279536952795369525
:101090002795ABE7B4E10E947913969587958093E5
:1010A0003807CF910895CF93C82F0E946203C730AD
:1010B00039F444E151E060E080E00E94D2030EC0C8
:1010C00049E151E060E080E00E94D20380E38C0FB0
:1010D0000E9430038CE296E00E94A603EC2FF0E021
:1010E000E85DF84F8081882329F08EE191E00E942D
:1010F000A60304C081E291E00E94A603C13019F06A
:10110000C73029F008C083E00E94DB0707C082E0F7
:101110000E94DB0703C081E00E94DB07CF910895A6
:101120001F93CF93DF9300D000D0CDB7DEB7182F39
:101130000E94620349E151E060E080E00E94D20336
:1011400080E3810F0E94300385E291E00E94A603B4
:10115000163088F4E12FF0E0EE5CF84F80818823B0
:1011600029F08EE191E00E94A60319C081E291E08E
:101170000E94A60314C0809138071F928F9389E2C2
:1011800091E09F938F93CE0101969F938F930E943E
:1011900098130F900F900F900F900F900F901130A9
:1011A00019F0163069F010C080913307882321F0C0
:1011B00088E00E94DB0716C087E00E94DB0712C0B0
:1011C00089E00E94DB070EC0E12FF0E0EE5CF84FF3
:1011D0008081882321F086E00E94DB0703C085E040
:1011E0000E94DB070F900F900F900F90DF91CF912F
:1011F0001F910895809112078F5F809312078330AB
:10120000B8F40E94620360E080E00E94C503909100
:10121000120783E3891B0E9430038EE291E00E9453
:10122000A60348E351E061E080E00E94D203089504
:101230000E9453101092600008951F93CF93DF9384
:101240001F92CDB7DEB7CE0101960E948E02182FF5
:10125000809131078130A9F120F0823009F42EC14C
:10126000CEC10E94BE0780916707811108C081E04E
:101270000E945308809167078F5F80936707123041
:1012800009F4BDC18981823361F0833371F0813308
:1012900099F480916707823078F0815080936707D6
:1012A0000BC081E08093310707C0809167078730CA
:1012B00018F48F5F80936707809167070E94530837
:1012C0009EC1123009F49BC180916607882321F0EA
:1012D000813009F469C093C180916507811113C001
:1012E0000E9462030E94250844E451E060E080E02F
:1012F0000E94D20361E080E00E94C50381E08093F8
:1013000065071092320789818D32A1F480913207EE
:10131000882319F081508093320747E251E061E061
:10132000809132070E94D20361E0809132070E94CF
:10133000C50365C18D3329F5E0913207F0E0E75A26
:10134000F84F108269E377E089E597E00E94BA0FD1
:10135000823031F41092650781E0809366074FC1B7
:101360000E9462034FE451E060E085E00E94D203F6
:1013700045E551E061E082E00E94D2030E94FA0854
:101380003EC190ED980F9A3008F039C19091320724
:10139000963008F034C1E92FF0E0E75AF84F808327
:1013A0009F5F909332072BC180916507811113C015
:1013B0000E9462030E94250841E651E060E080E05F
:1013C0000E94D20361E080E00E94C50381E0809327
:1013D00065071092320789818D32A1F4809132071E
:1013E000882319F081508093320747E251E061E091
:1013F000809132070E94D20361E0809132070E94FF
:10140000C503FDC08D3309F046C0E0913207F0E01E
:10141000E75AF84F10826EE477E089E597E00E9482
:101420008813892B39F5109265071092660782E0C0
:10143000809331070E9462034BE651E060E084E054
:101440000E94D203EAE3F7E001900020E9F79F0150
:101450002B53374080E190E0821B930B9695879544
:101460004AE357E061E081500E94D20381E20E948A
:101470003003C5C00E9462034FE451E060E085E0A4
:101480000E94D20343E751E061E083E00E94D2036F
:101490000E94FA08B4C090ED980F9A3008F0AFC0DF
:1014A000909132079A3008F0AAC0E92FF0E0E75A8D
:1014B000F84F80839F5F90933207A1C080911307FC
:1014C000882399F08091680781110FC00E94620300
:1014D0004EE751E060E080E00E94D2034FE851E027
:1014E00061E083E00E94D2038AC00E9432088091AA
:1014F0006407811108C081E00E945308809164074D
:101500008F5F80936407123009F479C08981823338
:1015100079F0833309F448C0813309F06CC08091BD
:101520006407823008F467C081508093640763C009
:1015300080916407863031F5E3E3F7E085819DEC27
:10154000899F812D1124869586958695880F982FE1
:10155000990F990F890F865F8583853618F084E689
:10156000809338076091380770E080E090E00E9437
:10157000781220E030E048EC52E40E94D7110E943B
:10158000B10739C00E947F078091640790E00197FE
:10159000FC01ED5CF84F308121E0311120E0FC01CD
:1015A000ED5CF84F208327C0809164078630F1F40A
:1015B000E3E3F7E085819DEC899F812D11248695D9
:1015C00086958695880F682F660F660F680F65836E
:1015D00070E080E090E00E94781220E030E048EC7B
:1015E00052E40E94D7110E94B10705C0863018F45A
:1015F0008F5F80936407809164070E9490080F902A
:10160000DF91CF911F9108950E94DD018AE991E059
:101610000E94DD0108950E94DD010895CF93C62F39
:10162000BC0185E297E00E949113C0932407CF91FB
:1016300008958DE991E00E94040B8EEC91E00E94E8
:10164000040B89ED91E00E94040B84EE91E00E946E
:10165000040B8FEE91E00E94040B8AEF91E00E9450
:10166000040B85E092E00E94040B809169078823B7
:1016700021F080E192E00E94040B0895609115072B
:1016800080913007811104C0603310F06A3360F03C
:101690008DE192E00E94040B0E94190B62E087E941
:1016A0009BE00E940E0B08958091AB07863080F47A
:1016B000613339F40E94290780E392E00E94040B11
:1016C0002EC00E9454078FE492E00E94040B27C0B2
:1016D0008630B1F470E060537109072E000C880B5E
:1016E000990B0E947A1220E030E040E151E40E9420
:1016F000D7110E94B1078FE692E00E94040B0FC041
:10170000613339F40E94210781E992E00E94040BC1
:1017100006C00E94250787EA92E00E94040B0E94FF
:10172000190B62E087E99BE00E940E0B0895CF93AE
:10173000C091150780916907882349F1809130078E
:10174000811104C0C13310F0C83360F08FEB92E018
:101750000E94040B0E94190B62E087E99BE00E9443
:101760000E0B3DC080ED92E00E94040B86E293E0F8
:101770000E94040B8FE593E00E94040B62E08EE36D
:101780009BE00E940E0BC053C093AB0728C0809112
:101790003007811104C0C13310F0C73360F08FEB04
:1017A00092E00E94040B0E94190B62E087E99BE023
:1017B0000E940E0B14C080ED92E00E94040B86E2A2
:1017C00093E00E94040B8FE593E00E94040B62E01B
:1017D0008EE39BE00E940E0BC053C093AB07CF91EA
:1017E0000895809169078823A9F087E993E00E9412
:1017F000040B85ED93E00E94040B83EE93E00E94BE
:10180000040B84EF93E00E94040B8AE094E00E94B2
:10181000040B089587E993E00E94040B87E194E0AC
:101820000E94040B8DE294E00E94040B08958091C5
:101830003007882361F08AE394E00E94040B0E9441
:10184000F10B62E08BE49CE00E940E0B089569E8C6
:1018500077E085E197E00E94210F833061F480E515
:1018600094E00E94040B0E94F10B62E08BE49CE088
:101870000E940E0B089589E897E00E94F71086E811
:1018800094E00E94040B0E94F10B62E08BE49CE068
:101890000E940E0B089580916907882309F44BC0BC
:1018A0008091150790913007911104C0813310F099
:1018B000853360F08FEB92E00E94040B0E94F10BE5
:1018C00062E08BE49CE00E940E0B0895823399F055
:1018D00018F4813331F008958333B9F08433E9F09B
:1018E00008958FEA94E00E940B0B6DE08DE49DE07B
:1018F0000E940E0B08958FEA94E00E940B0B6DE09E
:1019000087E19CE00E940E0B08950E94190B62E093
:1019100087E99BE00E940E0B089581E080931307F6
:1019200085EC94E00E94040B8DE095E00E94040B8E
:101930001092240708958091150790913007911116
:1019400004C0813310F0833360F08FEB92E00E948B
:10195000040B0E94F10B62E08BE49CE00E940E0BF2
:101960000895813319F0823349F008950E94190BCC
:1019700062E087E99BE00E940E0B089581E080936E
:10198000130785EC94E00E94040B8DE095E00E9423
:10199000040B10922407089580913007882361F08A
:1019A0008DE192E00E94040B0E94F10B62E08BE457
:1019B0009CE00E940E0B089580911507893721F055
:1019C000893521F481E003C081E001C080E080938B
:1019D000AC078CEA97E00E94BC1081E395E00E947E
:1019E000040B0E94F10B62E08BE49CE00E940E0B62
:1019F000089580913007882361F083E595E00E9487
:101A0000040B0E94F10B62E08BE49CE00E940E0B41
:101A1000089565E177E081EC97E00E9491138AE6F2
:101A200095E00E940B0B62E08CEC9CE00E940E0B98
:101A3000089580913007882361F08CE995E00E9439
:101A4000040B0E94F10B62E08BE49CE00E940E0B01
:101A5000089569E877E085E197E00E94BA0F833046
:101A600081F465E177E08AEB97E00E94911382EBC5
:101A700095E00E940B0B6BE089EF9CE00E940E0B3F
:101A8000089582ED95E00E94040B0E94F10B62E044
:101A90008BE49CE00E940E0B089580913007882310
:101AA00061F08AE394E00E94040B0E94F10B62E073
:101AB0008BE49CE00E940E0B089569E877E085E1D5
:101AC00097E00E94210F833081F465E177E08DEA91
:101AD00097E00E94911382EF95E00E940B0B67E064
:101AE00089E19DE00E940E0B08958FE296E00E942E
:101AF000040B0E94F10B62E08BE49CE00E940E0B51
:101B000008950F931F93CF93DF93CDB7DEB7E2977E
:101B10000FB6F894DEBF0FBECDBF809112078F5F66
:101B2000809312078330E8F423E030E0A901481BDA
:101B30005109CA019F934F938AE496E09F938F9334
:101B40008E010F5F1F4F1F930F930E949813C801C0
:101B50000E94040B0F900F900F900F900F900F901A
:101B600004C00E94531010926000E2960FB6F894E1
:101B7000DEBF0FBECDBFDF91CF911F910F910895B2
:101B800080913007882361F00E94810D8CE796E0F8
:101B90000E940B0B6BE080EC9DE00E940E0B089501
:101BA00065E177E08EE797E00E948813892B81F04A
:101BB00082E996E00E940B0B0E94810D8CE796E073
:101BC0000E940B0B6BE080EC9DE00E940E0B0895D1
:101BD00081E08093130782EA96E00E940B0B8AE66D
:101BE00097E00E940B0B88E991E00E94040B0E9491
:101BF000F10B62E08BE49CE00E940E0B0895809153
:101C00003007882361F00E94810D8BEA96E00E94E4
:101C10000B0B6DE08FEF9DE00E940E0B089569E6BF
:101C200077E085E197E00E94210F833081F482EC18
:101C300096E00E940B0B0E94810D8BEA96E00E94B9
:101C40000B0B6DE08FEF9DE00E940E0B08958CE76B
:101C500096E00E940B0B6BE080EC9DE00E940E0B67
:101C6000089586ED96E00E94040B88EF96E00E94AE
:101C7000040B8BEA96E00E940B0B6DE08FEF9DE06A
:101C80000E940E0B08951F920F920FB60F9211240F
:101C90002F933F934F935F936F937F938F939F9374
:101CA000AF93BF93EF93FF938CB18093AA0790916A
:101CB0002407992309F44DC0883059F490911407F2
:101CC000992309F446C09150909314070E94DA01B9
:101CD00040C090911407E92FF0E0EB5EF84F80834D
:101CE0009F5F90931407913039F4909115079D30C0
:101CF00019F4109214072DC08D3011F00E94DA01F2
:101D0000E091140780912407E81310C0F0E0EC5E26
:101D1000F84F80818D3051F081E0809330078093BF
:101D2000A907109214078DE00E94DA018091AA079A
:101D30008D3079F4E0911407809124078E1748F0D4
:101D4000F0E0EC5EF84F10828DE00E94DA01109214
:101D50001407FF91EF91BF91AF919F918F917F9168
:101D60006F915F914F913F912F910F900FBE0F9008
:101D70001F9018951F920F920FB60F9211242F9358
:101D80003F934F935F936F937F938F939F93AF9303
:101D9000BF93EF93FF930E94310EFF91EF91BF919C
:101DA000AF919F918F917F916F915F914F913F91F3
:101DB0002F910F900FBE0F901F9018951F920F92AA
:101DC0000FB60F9211242F933F934F935F936F930E
:101DD0007F938F939F93AF93BF93CF93DF93EF93B3
:101DE000FF9384B1C5B1D0E0DC2FCC27C80FD11D43
:101DF000C137D10528F041E063E487E00E94C704C1
:101E0000C435D10528F440E063E487E00E94C704AC
:101E100088B7816088BFFF91EF91DF91CF91BF912B
:101E2000AF919F918F917F916F915F914F913F9172
:101E30002F910F900FBE0F901F9018950E94AC002D
:101E400008959F92AF92BF92CF92DF92EF92FF924E
:101E50000F931F93CF93DF93CDB7DEB76D970FB678
:101E6000F894DEBF0FBECDBF7C016B01912C6BC01F
:101E7000AE014F5F5F4F60E0892D0E94AF00AE0161
:101E80004E5F5F4F61E0892D0E94AF00B12C56C0BC
:101E9000898190E00B2C02C0959587950A94E2F712
:101EA00080FF4BC06FE1B69EA02C112468E06A0D44
:101EB0009E012D5F3F4F4DE050E0892D0E94D000E4
:101EC000BE016D5F7F4FC7010E948813892BA9F562
:101ED00065E16A0D9E01205F3F4F47E050E0892D8C
:101EE0000E94D0006CE16A0D9E01295E3F4F47E0E1
:101EF00050E0892D0E94D0008A8190E002C0959523
:101F00008795BA94E2F7982F9170F6019193BE01EC
:101F10006D5F7F4FCF010E949113BE01605F7F4FC5
:101F2000C6010E960E949113BE01695E7F4FC601E5
:101F300045960E94911382E00BC0B39487E08B1505
:101F400008F0A6CF939487E0891508F091CF83E03D
:101F50006D960FB6F894DEBF0FBECDBFDF91CF9167
:101F60001F910F91FF90EF90DF90CF90BF90AF90B7
:101F70009F9008959F92AF92BF92CF92DF92EF927F
:101F8000FF920F931F93CF93DF93CDB7DEB76D977B
:101F90000FB6F894DEBF0FBECDBF7C016B01912C54
:101FA0006BC0AE014F5F5F4F60E0892D0E94AF00B4
:101FB000AE014E5F5F4F61E0892D0E94AF00B12CF2
:101FC00056C0898190E00B2C02C0959587950A94A4
:101FD000E2F780FF4BC06FE1B69EA02C112465E1B3
:101FE0006A0D9E01205F3F4F47E050E0892D0E941F
:101FF000D000BE01605F7F4FC7010E948813892B0C
:10200000A9F568E06A0D9E012D5F3F4F4DE050E05D
:10201000892D0E94D0006CE16A0D9E01295E3F4F20
:1020200047E050E0892D0E94D0008A8190E002C0F4
:1020300095958795BA94E2F7982F9170F601919350
:10204000BE016D5F7F4FCF010E949113BE01605FA3
:102050007F4FC6010E960E949113BE01695E7F4FAD
:10206000C60145960E94911382E00BC0B39487E0AD
:102070008B1508F0A6CF939487E0891508F091CFCF
:1020800083E06D960FB6F894DEBF0FBECDBFDF9133
:10209000CF911F910F91FF90EF90DF90CF90BF9065
:1020A000AF909F90089566E084E40E94A300089595
:1020B000EF92FF920F931F93CF93DF9300D0CDB792
:1020C000DEB77B01082F069506950695182F177029
:1020D000AE014F5F5F4F60E0802F0E94AF00AE0106
:1020E0004E5F5F4F61E0802F0E94AF0081E090E083
:1020F000012E02C0880F991F0A94E2F74981482BEC
:102100004983F7012081222319F09A81892B8A8340
:1021100060E0802F0E9406014A8161E0802F0E94CA
:10212000060197012F5F3F4F6FE1169F102D11247D
:1021300068E0610F4DE050E0802F0E94250197017B
:10214000225F3F4F65E1610F47E050E0802F0E9422
:10215000250197012B5E3F4F6CE1610F4BE050E092
:10216000802F0E9425010F900F90DF91CF911F913A
:102170000F91FF90EF900895EF92FF921F93CF93EE
:10218000DF931F92CDB7DEB77C0110E01AC0AE011D
:102190004F5F5F4F60E0812F0E94AF0099819F3FAA
:1021A00079F002C08F5F01C080E0292F30E0082E57
:1021B00002C0359527950A94E2F720FDF3CF04C0BD
:1021C0001F5F183020F380E0183049F0110F110F15
:1021D000110FB701810F0E94581089E001C08BE0F8
:1021E0000F90DF91CF911F91FF90EF900895CF92C4
:1021F000DF92EF92FF920F931F93CF93DF93CDB7B0
:10220000DEB729970FB6F894DEBF0FBECDBF6C01C5
:1022100000E04DC0AE014F5F5F4F60E0802F0E9435
:10222000AF00AE014E5F5F4F61E0802F0E94AF00B4
:1022300010E03AC0898190E0012E02C09595879503
:102240000A94E2F780FF2FC06FE1169F602D1124E2
:102250006B5E9E012D5F3F4F47E050E0802F0E9454
:10226000D000BE016D5F7F4FC6010E960E9488139D
:10227000892BC9F481E090E002C0880F991F1A955C
:10228000E2F780954981482349839A8189238A838B
:1022900060E0802F0E9406014A8161E0802F0E9449
:1022A00006018AE008C01F5F183020F20F5F083077
:1022B00008F4B0CF83E029960FB6F894DEBF0FBEC6
:1022C000CDBFDF91CF911F910F91FF90EF90DF90E5
:1022D000CF9008955058BB27AA270E9482110C94D2
:1022E000CC120E94BE1238F00E94C51220F039F4C0
:1022F0009F3F19F426F40C94BB120EF4E095E7FB13
:102300000C94B512E92F0E94DD1258F3BA17620738
:1023100073078407950720F079F4A6F50C94FF1253
:102320000EF4E0950B2EBA2FA02D0B01B9019001F0
:102330000C01CA01A0011124FF27591B99F0593F34
:1023400050F4503E68F11A16F040A22F232F342F7C
:102350004427585FF3CF469537952795A795F040CA
:102360005395C9F77EF41F16BA0B620B730B840BDF
:10237000BAF09150A1F0FF0FBB1F661F771F881F97
:10238000C2F70EC0BA0F621F731F841F48F48795EF
:1023900077956795B795F7959E3F08F0B0CF9395E1
:1023A000880F08F09927EE0F9795879508950E945A
:1023B000EB110C94CC120E94C51258F00E94BE1270
:1023C00040F029F45F3F29F00C94B51251110C94A0
:1023D00000130C94BB120E94DD1268F39923B1F331
:1023E000552391F3951B550BBB27AA27621773073B
:1023F000840738F09F5F5F4F220F331F441FAA1FCF
:10240000A9F335D00E2E3AF0E0E832D0915050408A
:10241000E695001CCAF72BD0FE2F29D0660F771F38
:10242000881FBB1F261737074807AB07B0E809F01E
:10243000BB0B802DBF01FF2793585F4F3AF09E3FA3
:10244000510578F00C94B5120C9400135F3FE4F33F
:10245000983ED4F3869577956795B795F7959F5FE6
:10246000C9F7880F911D9695879597F90895E1E032
:10247000660F771F881FBB1F621773078407BA0791
:1024800020F0621B730B840BBA0BEE1F88F7E095EC
:1024900008950E94E51288F09F5798F0B92F992768
:1024A000B751B0F0E1F0660F771F881F991F1AF03F
:1024B000BA95C9F714C0B13091F00E94FF12B1E093
:1024C00008950C94FF12672F782F8827B85F39F092
:1024D000B93FCCF3869577956795B395D9F73EF4D8
:1024E00090958095709561957F4F8F4F9F4F089580
:1024F000E89409C097FB3EF490958095709561959E
:102500007F4F8F4F9F4F9923A9F0F92F96E9BB2753
:102510009395F695879577956795B795F111F8CFCF
:10252000FAF4BB0F11F460FF1BC06F5F7F4F8F4F3A
:102530009F4F16C0882311F096E911C0772321F030
:102540009EE8872F762F05C0662371F096E8862FC8
:1025500070E060E02AF09A95660F771F881FDAF71F
:10256000880F9695879597F9089597F99F6780E862
:1025700070E060E008959FEF80EC089500240A94D5
:102580001616170618060906089500240A9412164E
:102590001306140605060895092E0394000C11F481
:1025A000882352F0BB0F40F4BF2B11F460FF04C02E
:1025B0006F5F7F4F8F4F9F4F089557FD9058440F87
:1025C000551F59F05F3F71F04795880F97FB991F92
:1025D00061F09F3F79F0879508951216130614064F
:1025E000551FF2CF4695F1DF08C0161617061806DC
:1025F000991FF1CF86957105610508940895E894B7
:10260000BB2766277727CB0197F908950E941913F6
:102610000C94CC120E94BE1238F00E94C51220F019
:10262000952311F00C94B5120C94BB1211240C9448
:1026300000130E94DD1270F3959FC1F3950F50E0D7
:10264000551F629FF001729FBB27F00DB11D639F64
:10265000AA27F00DB11DAA1F649F6627B00DA11D0A
:10266000661F829F2227B00DA11D621F739FB00DB0
:10267000A11D621F839FA00D611D221F749F332720
:10268000A00D611D231F849F600D211D822F762FB9
:102690006A2F11249F5750409AF0F1F088234AF096
:1026A000EE0FFF1FBB1F661F771F881F9150504002
:1026B000A9F79E3F510580F00C94B5120C940013BD
:1026C0005F3FE4F3983ED4F3869577956795B79589
:1026D000F795E7959F5FC1F7FE2B880F911D9695A3
:1026E000879597F90895EE0FFF1F0590F491E02D5F
:1026F0000994A29FB001B39FC001A39F700D811DDB
:102700001124911DB29F700D811D1124911D0895FA
:10271000FB01DC018D91019080190110D9F3990B17
:102720000895FB01DC0101900D920020E1F708956E
:10273000AEE0B0E0EEE9F3E10C9459160D891E8984
:1027400086E08C831A8309838FEF9FE79E838D83B6
:10275000AE01475E5F4F6F89788DCE0101960E9472
:10276000BA13EF81F885E00FF11F10822E96E4E096
:102770000C947516ABE0B0E0E0ECF3E10C944B1672
:102780006C017B018A01FC0117821682838181FF23
:10279000CCC1CE0101963C01F6019381F70193FD76
:1027A000859193FF81917F01882309F4BAC1853215
:1027B00039F493FD859193FF81917F01853229F44E
:1027C000B60190E00E94B115E7CF912C212C312C5D
:1027D000FFE1F315D8F08B3279F038F4803279F0DC
:1027E0008332A1F4232D20611DC08D3261F080332E
:1027F00069F4232D216016C0832D8260382EE32DCD
:10280000E4603E2E2AC0F32DF8601DC037FC2DC0B9
:1028100020ED280F2A3040F08E32B9F436FC81C109
:10282000232D2064322E19C036FE06C08AE0989E01
:10283000200D1124922E11C0EAE02E9E200D1124AD
:10284000222EF32DF0623F2E08C08C3621F4832D0A
:102850008068382E02C0883641F4F70193FD8591D7
:1028600093FF81917F018111B3CF982F9F7D955464
:10287000933028F40C5F1F4F9FE399830DC083367C
:1028800031F0833771F0833509F059C021C0F80168
:10289000808189830E5F1F4F88248394912C53017C
:1028A00013C02801F2E04F0E511CF801A080B18046
:1028B00036FE03C0692D70E002C06FEF7FEFC501E7
:1028C0000E94A6154C018201F32DFF773F2E16C002
:1028D000280122E0420E511CF801A080B18036FE92
:1028E00003C0692D70E002C06FEF7FEFC5010E9449
:1028F0009B154C01F32DF0683F2E820133FC1BC069
:10290000822D90E088169906B0F4B60180E290E03E
:102910000E94B1152A94F4CFF50137FC859137FE5A
:1029200081915F01B60190E00E94B11521102A94B7
:1029300021E0821A91088114910471F7E8C084366D
:1029400011F0893641F5F80137FE07C060817181C9
:10295000828193810C5F1F4F08C060817181072EB7
:10296000000C880B990B0E5F1F4FF32DFF763F2E47
:1029700097FF09C090958095709561957F4F8F4F17
:102980009F4FF0683F2E2AE030E0A3010E94ED1532
:10299000882E861845C0853731F4232D2F7EB22E20
:1029A0002AE030E025C0932D997FB92E8F36C1F0F3
:1029B00018F4883579F0B5C0803719F0883721F0E0
:1029C000B0C0E92FE061BE2EB4FE0DC0FB2DF46057
:1029D000BF2E09C034FE0AC0292F2660B22E06C0C1
:1029E00028E030E005C020E130E002C020E132E024
:1029F000F801B7FE07C060817181828193810C5F0D
:102A00001F4F06C06081718180E090E00E5F1F4F14
:102A1000A3010E94ED15882E8618FB2DFF773F2E0F
:102A200036FE0DC0232D2E7FA22E891458F434FEBD
:102A30000BC032FC09C0832D8E7EA82E05C0B82C99
:102A4000A32C03C0B82C01C0B92CA4FE0FC0FE01FA
:102A5000E80DF11D8081803321F49A2D997EA92EF5
:102A600009C0A2FE06C0B394B39404C08A2D867830
:102A700009F0B394A3FC11C0A0FE06C0B21488F400
:102A8000280C922C9B180EC0B21460F4B60180E2A0
:102A900090E00E94B115B394F7CFB21418F42B183C
:102AA00002C0982C212CA4FE10C0B60180E390E057
:102AB0000E94B115A2FE17C0A1FC03C088E790E0F8
:102AC00002C088E590E0B6010CC08A2D867859F0E6
:102AD000A1FE02C08BE201C080E2A7FC8DE2B6013C
:102AE00090E00E94B115891438F4B60180E390E0BB
:102AF0000E94B1159A94F7CF8A94F301E80DF11D65
:102B00008081B60190E00E94B1158110F5CF22209E
:102B100009F442CEB60180E290E00E94B1152A94F9
:102B2000F6CFF6018681978102C08FEF9FEF2B963B
:102B3000E2E10C946716FC010590615070400110B1
:102B4000D8F7809590958E0F9F1F0895FC016150D6
:102B5000704001900110D8F7809590958E0F9F1FBF
:102B600008950F931F93CF93DF93FB01238121FDE2
:102B700003C08FEF9FEF2CC022FF16C04681578104
:102B8000248135814217530744F4A081B1819D010E
:102B90002F5F3F4F318320838C93268137812F5FB6
:102BA0003F4F3783268314C08B01EC01FB01008467
:102BB000F185E02D0995892BE1F6D80116968D91C6
:102BC0009C911797019617969C938E931697CE011A
:102BD000DF91CF911F910F910895FA01AA27283014
:102BE00051F1203181F1E8946F936E7F6E5F7F4FDA
:102BF0008F4F9F4FAF4FB1E03ED0B4E03CD0670F56
:102C0000781F891F9A1FA11D680F791F8A1F911DA8
:102C1000A11D6A0F711D811D911DA11D20D009F4F8
:102C200068943F912AE0269F11243019305D31933A
:102C3000DEF6CF010895462F4770405D4193B3E023
:102C40000FD0C9F7F6CF462F4F70405D4A3318F0CA
:102C5000495D31FD4052419302D0A9F7EACFB4E07B
:102C6000A6959795879577956795BA95C9F7009733
:102C70006105710508959B01AC010A2E06945795D4
:102C8000479537952795BA95C9F7620F731F841F2B
:102C9000951FA01D08952F923F924F925F926F92C1
:102CA0007F928F929F92AF92BF92CF92DF92EF92DC
:102CB000FF920F931F93CF93DF93CDB7DEB7CA1B5D
:102CC000DB0B0FB6F894DEBF0FBECDBF09942A8888
:102CD000398848885F846E847D848C849B84AA8430
:102CE000B984C884DF80EE80FD800C811B81AA81BD
:102CF000B981CE0FD11D0FB6F894DEBF0FBECDBF88
:082D0000ED010895F894FFCFE6
:102D0800013738392F3435362A3132332D23303DC7
:102D18002B31297F2032294C6F67696E2020332997
:102D28007E0031297F20202020202032294C6F6707
:102D3800696E0032294C6F67696E202020202020A0
:102D480033297E0031297F203229546F67676C65EB
:102D58002033297E0031297F20202032294F6E2000
:102D6800202033297E0031297F202032294F6666B2
:102D780020202033297E0032294F6E202020202059
:102D88002020202032297E0032294F66662020200C
:102D9800202020202032297E0031297F2020203247
:102DA800292B2020202033292D002D293C58003D97
:102DB800294F6B0041433A20004C616D70004F6E03
:102DC800004F6666003A2020002564252500206112
:102DD8007474656D7074730072656D61696E696E87
:102DE800672021005573657220436F64653A005768
:102DF800726F6E67005573657220436F646520219A
:102E08000050617373776F72643A0057656C636F33
:102E18006D650050617373776F726420210041649F
:102E28006D696E205065726D697373696F6E0052BB
:102E3800657175697265642021000D0A0053656C1F
:102E4800656374206F6E65206F6620746865206600
:102E58006F6C6C6F77696E672064657669636573FC
:102E680020746F20636F6E74726F6C3A09005B3167
:102E78005D204C616D702031005B325D204C616DCE
:102E8800702032005B335D204C616D702033005B35
:102E9800345D204C616D702034005B355D204C61E1
:102EA8006D702035005B365D204C616D70203600FA
:102EB8005B375D2054686520446F6F72000D0A49C6
:102EC8006E76616C696420696E70757421210900E1
:102ED800546865206465766963652068617320625B
:102EE80065656E207475726E6564206F6E2100547E
:102EF800686520646576696365206861732062652A
:102F0800656E207475726E6564206F666621005464
:102F18006865206272696768746E6573732068619A
:102F280073206265656E2061646A757374656421D7
:102F38000054686520446F6F72206973206F706554
:102F48006E206E6F772E0054686520446F6F722074
:102F5800697320636C6F736564206E6F772E004908
:102F68006E76616C6964206F7074696F6E210900F8
:102F7800446F20796F752077616E7420746F2073A9
:102F88007769746368207468652064657669636529
:102F9800206F6E206F72206F66663F2028456E7422
:102FA8006572203120746F207475726E20697420E8
:102FB8006F6E2E203020746F207475726E206974C5
:102FC800206F66662900466F722064696D6D6162C4
:102FD8006C65206C616D7020746865206272696729
:102FE80068746E657373206C6576656C73206172A6
:102FF800652066726F6D203020746F20392E00496D
:103008006620796F7520736C6563746564207468D5
:103018006520646F6F722C20656E74722031207485
:103028006F206F70656E20616E64203020746F2091
:10303800636C6F73652E0053656C656374206F6EE7
:1030480065206F662074686520666F6C6C6F7769A1
:103058006E67206F7074696F6E7328627920656E71
:10306800746572696E6720697473206E756D626528
:1030780072293A09005B315D2041646420757365EB
:103088007209005B325D2044656C65746520757358
:10309800657209005B335D20436F6E74726F6C203C
:1030A800612064657669636509005B345D204C6F57
:1030B80067206F757409005B315D20436F6E747211
:1030C8006F6C20612064657669636509005B325D19
:1030D800204C6F67206F757409000D0A496E766180
:1030E8006C69642075736572206E616D65210900D5
:1030F8000D4572726F72212055736572206E6F7460
:1031080020666F756E642E2052657475726E696ED6
:103118006720746F20746865206D61696E206D6525
:103128006E752E2E2E0054686520757365722068A2
:103138006173206265656E2064656C6574656420E2
:103148007375636365737366756C6C7921090045E3
:103158006E746572207468652075736572206E617F
:103168006D653A2000546F206C6F67696E20616747
:1031780061696E20796F75206861766520746F20AB
:10318800646973636F6E6E65637420616E64207228
:1031980065636F6E6E65637420746F207468652054
:1031A8004254206D6F64756C652E2E2E00596F7514
:1031B8002068617665207375636365737366756CE3
:1031C8006C79206C6F67676564206F75742E2E2E7E
:1031D800005573657220686173206265656E2061B1
:1031E80064646564207375636365737366756C6C7A
:1031F8007921000D0A50617373776F726420746FC0
:103208006F206C6F6E6721210900446F20796F75FC
:103218002077616E7420746F206D616B652074680F
:1032280065206E6577207573657220616E20616414
:103238006D696E3F2028792F6E2920000D0A496E8E
:1032480076616C6964207573657220636F646521AB
:103258000900456E74657220746865206E65772074
:103268007573657227732070617373776F72643A30
:1032780020000D546865207573657220636F64655E
:1032880020616C7265616479206578697374732153
:103298000900456E74657220746865206E65772034
:1032A80075736572277320636F6465286D75737411
:1032B800206265206120756E697175652073697873
:1032C80020646967697420636F6465293A20000D7A
:1032D800546865207573657220616C7265616479E4
:1032E800206578697374732109000D0A496E766147
:1032F8006C6964206C6F67696E20617474656D70A9
:103308007421200D0A256420617474656D707473CE
:103318002072656D61696E696E672E00456E746511
:103328007220796F75722070617373776F72643A67
:10333800090057726F6E672070617373776F7264DC
:10334800210057656C636F6D652000456E7465726A
:1033580020796F75722075736572206E616D653A9C
:1033680009005573657220646F65736E2774206554
:1033780078697374210057656C636F6D6520746F8D
:103388002074686520536D61727420486F6D6520E4
:1033980053797374656D2100546F2070726F636583
:1033A80065642C20706C65617365206C6F67696E4D
:0233B8002E00E5
:00000001FF
