S0120000536D6172745F486F6D652E7372656323
S11300000C942A000C943F000C943F000C943F0085
S11300100C943F000C943F000C943F000C943F0060
S11300200C943F000C943F000C943F000C943F0050
S11300300C943F000C943F000C943F000C943F0040
S11300400C943F000C943F000C943F000C943F0030
S11300500C943F0011241FBECFE5D8E0DEBFCDBF16
S113006010E0A0E6B0E0EEE8F1E002C005900D92E9
S1130070A036B107D9F70E9441000C94C5000C9436
S113008000000E9469008FEF81BB80E20E946D0036
S113009085E50E94AB0082E20E948C008BEB0E94FB
S11300A0AB000E94BF0012BA2FEF89E698E12150FD
S11300B080409040E1F700C000008FEF82BB2FEF3B
S11300C089E698E1215080409040E1F700C00000AB
S11300D0DCCF11B88FEF80B9089594EA96BF06B6C5
S11300E007FEFDCF91B1987F983081F483B984E8FD
S11300F086BF06B607FEFDCF81B1887F883141F007
S113010081B1887F803231F485E0089581E00895DB
S113011084E008958CE0089594EA96BF06B607FE3D
S1130120FDCF91B1987F903181F483B984E886BF83
S113013006B607FEFDCF81B1887F803441F081B1DE
S1130140887F883431F489E0089583E0089588E055
S113015008958CE0089583B984E886BF06B607FE47
S1130160FDCF81B1887F883231F081B1887F8033BF
S113017021F487E0089586E008958CE0089584E9E9
S111018086BF06B604FCFDCF0895F894FFCFA9
S9030000FC
