:100000000C942A000C9447000C9447000C94470071
:100010000C9447000C9447000C9447000C94470044
:100020000C9447000C9447000C9447000C94470034
:100030000C9447000C9447000C9447000C94470024
:100040000C9447000C9447000C9447000C94470014
:100050000C94470011241FBECFE5D8E0DEBFCDBF12
:1000600010E0A0E6B0E0EAE6FBE002C005900D92E9
:10007000A436B107D9F720E0A4E6B0E001C01D9294
:10008000A436B207E1F70E940C010C94B3050C945E
:10009000000041E061E486E00E942F028AE18A9537
:1000A000F1F700C040E061E486E00E942F0208956D
:1000B000CF93C82F482F417061E480E00E942F0247
:1000C000C1FB442740F961E481E00E942F02C2FB9A
:1000D000442740F961E482E00E942F02C3FB4427D9
:1000E00040F961E483E00E942F02CF910895CF93FD
:1000F000C82F82958F700E94580041E061E484E02F
:100100000E942F020E9449008C2F0E9458000E94DA
:10011000490085E08A95F1F70000CF910895CF93CB
:10012000C82F82958F700E94580040E061E484E0FF
:100130000E942F020E9449008C2F0E9458000E94AA
:1001400049008FED9EE20197F1F700C00000CF91CA
:10015000089581E00E948F0008952FEF89EF90E0CD
:10016000215080409040E1F700C0000041E061E490
:1001700080E00E94950141E061E481E00E949501E8
:1001800041E061E482E00E94950141E061E483E0A6
:100190000E94950141E061E484E00E94950141E004
:1001A00061E485E00E94950141E061E486E00E94FF
:1001B000950140E061E485E00E942F0282E00E9408
:1001C0008F0088E20E948F008CE00E948F0086E002
:1001D0000E948F000E94A9000895CF92DF92EF92B3
:1001E000FF92CF93DF93EC01C12CD12C760107C095
:1001F0000E9477008FEFC81AD80AE80AF80AFE01B1
:10020000EC0DFD1D80818111F3CFDF91CF91FF9027
:10021000EF90DF90CF900895CF93DF93CDB7DEB707
:1002200027970FB6F894DEBF0FBECDBF8AB38F7786
:100230008ABB0E94AD000E944701BE016F5F7F4FE5
:1002400087E00E9465018A818F9389818F9380E680
:1002500090E09F938F938E010D5F1F4F1F930F931D
:100260000E94C902C8010E94ED002FEF83ED90E3C8
:10027000215080409040E1F700C000000E94A9009A
:100280000F900F900F900F900F900F90D6CF87B1D7
:10029000806487B987B1806887B986B1816086B983
:1002A00086B1826086B986B1846086B986B180687D
:1002B00086B980E00895883030F497B1907E892B1C
:1002C00087B980E0089581E00895CF93DF93EB0133
:1002D0000E945B0186B1806486B9349BFECF24B155
:1002E00085B190E0982F8827820F911D998388838C
:1002F00080E0DF91CF910895883010F481E0089577
:1003000080E008958154843010F481E0089580E005
:100310000895823010F481E0089580E008958230DD
:1003200010F481E0089580E008951F93CF93DF9348
:10033000C82FD62F142F0E947C01882309F484C073
:100340008D2F0E948201882309F480C0812F0E9492
:100350008901882309F47CC0D23429F118F4D134FE
:1003600039F078C0D334D1F1D43409F452C072C01A
:10037000113061F42AB381E090E002C0880F991F28
:10038000CA95E2F7822B8ABB80E065C02AB381E080
:1003900090E002C0880F991FCA95E2F780958223EA
:1003A0008ABB80E058C0113061F427B381E090E04F
:1003B00002C0880F991FCA95E2F7822B87BB80E0A5
:1003C0004AC027B381E090E002C0880F991FCA9508
:1003D000E2F78095822387BB80E03DC0113061F455
:1003E00024B381E090E002C0880F991FCA95E2F71C
:1003F000822B84BB80E02FC024B381E090E002C058
:10040000880F991FCA95E2F78095822384BB80E00C
:1004100022C0113061F421B381E090E002C0880F66
:10042000991FCA95E2F7822B81BB80E014C021B3EB
:1004300081E090E002C0880F991FCA95E2F780958D
:10044000822381BB80E007C081E005C082E003C059
:1004500083E001C080E0DF91CF911F9108951F9349
:10046000CF93DF93C82FD62F142F0E947C018823AF
:1004700009F484C08D2F0E948201882309F480C072
:10048000812F0E948F01882309F47CC0D23429F186
:1004900018F4D13439F078C0D334D1F1D43409F41C
:1004A00052C072C0113061F42BB381E090E002C001
:1004B000880F991FCA95E2F7822B8BBB80E065C03D
:1004C0002BB381E090E002C0880F991FCA95E2F734
:1004D000809582238BBB80E058C0113061F428B333
:1004E00081E090E002C0880F991FCA95E2F7822B45
:1004F00088BB80E04AC028B381E090E002C0880F4A
:10050000991FCA95E2F78095822388BB80E03DC0A1
:10051000113061F425B381E090E002C0880F991F8B
:10052000CA95E2F7822B85BB80E02FC025B381E01E
:1005300090E002C0880F991FCA95E2F78095822348
:1005400085BB80E022C0113061F422B381E090E0ED
:1005500002C0880F991FCA95E2F7822B82BB80E008
:1005600014C022B381E090E002C0880F991FCA95A1
:10057000E2F78095822382BB80E007C081E005C05E
:1005800082E003C084E001C080E0DF91CF911F9141
:100590000895AEE0B0E0EFECF2E00C948A050D892E
:1005A0001E8986E08C831A8309838FEF9FE79E83E1
:1005B0008D83AE01475E5F4F6F89788DCE010196C6
:1005C0000E94EB02EF81F885E00FF11F10822E965A
:1005D000E4E00C94A605ABE0B0E0E1EFF2E00C94AF
:1005E0007C056C017B018A01FC01178216828381E4
:1005F00081FFCCC1CE0101963C01F6019381F70148
:1006000093FD859193FF81917F01882309F4BAC1FD
:10061000853239F493FD859193FF81917F01853275
:1006200029F4B60190E00E94E204E7CF912C212C3E
:10063000312CFFE1F315D8F08B3279F038F48032A9
:1006400079F08332A1F4232D20611DC08D3261F039
:10065000803369F4232D216016C0832D8260382EEB
:10066000E32DE4603E2E2AC0F32DF8601DC037FC58
:100670002DC020ED280F2A3040F08E32B9F436FC20
:1006800081C1232D2064322E19C036FE06C08AE0B7
:10069000989E200D1124922E11C0EAE02E9E200D6E
:1006A0001124222EF32DF0623F2E08C08C3621F447
:1006B000832D8068382E02C0883641F4F70193FDFF
:1006C000859193FF81917F018111B3CF982F9F7DF9
:1006D0009554933028F40C5F1F4F9FE399830DC00E
:1006E000833631F0833771F0833509F059C021C06A
:1006F000F801808189830E5F1F4F88248394912C99
:10070000530113C02801F2E04F0E511CF801A080E4
:10071000B18036FE03C0692D70E002C06FEF7FEF3D
:10072000C5010E94D7044C018201F32DFF773F2EB3
:1007300016C0280122E0420E511CF801A080B180B1
:1007400036FE03C0692D70E002C06FEF7FEFC50178
:100750000E94CC044C01F32DF0683F2E820133FC43
:100760001BC0822D90E088169906B0F4B60180E295
:1007700090E00E94E2042A94F4CFF50137FC8591C1
:1007800037FE81915F01B60190E00E94E2042110E2
:100790002A9421E0821A91088114910471F7E8C02B
:1007A000843611F0893641F5F80137FE07C06081C3
:1007B0007181828193810C5F1F4F08C060817181BC
:1007C000072E000C880B990B0E5F1F4FF32DFF7641
:1007D0003F2E97FF09C090958095709561957F4F4A
:1007E0008F4F9F4FF0683F2E2AE030E0A3010E9418
:1007F0001E05882E861845C0853731F4232D2F7E9F
:10080000B22E2AE030E025C0932D997FB92E8F3685
:10081000C1F018F4883579F0B5C0803719F0883701
:1008200021F0B0C0E92FE061BE2EB4FE0DC0FB2D5B
:10083000F460BF2E09C034FE0AC0292F2660B22EF4
:1008400006C028E030E005C020E130E002C020E131
:1008500032E0F801B7FE07C0608171818281938127
:100860000C5F1F4F06C06081718180E090E00E5FD9
:100870001F4FA3010E941E05882E8618FB2DFF77AF
:100880003F2E36FE0DC0232D2E7FA22E891458F444
:1008900034FE0BC032FC09C0832D8E7EA82E05C00D
:1008A000B82CA32C03C0B82C01C0B92CA4FE0FC0D7
:1008B000FE01E80DF11D8081803321F49A2D997E8F
:1008C000A92E09C0A2FE06C0B394B39404C08A2D19
:1008D000867809F0B394A3FC11C0A0FE06C0B21440
:1008E00088F4280C922C9B180EC0B21460F4B60148
:1008F00080E290E00E94E204B394F7CFB21418F4BF
:100900002B1802C0982C212CA4FE10C0B60180E345
:1009100090E00E94E204A2FE17C0A1FC03C088E799
:1009200090E002C088E590E0B6010CC08A2D867880
:1009300059F0A1FE02C08BE201C080E2A7FC8DE26B
:10094000B60190E00E94E204891438F4B60180E315
:1009500090E00E94E2049A94F7CF8A94F301E80DA4
:10096000F11D8081B60190E00E94E2048110F5CF74
:10097000222009F442CEB60180E290E00E94E20417
:100980002A94F6CFF6018681978102C08FEF9FEF00
:100990002B96E2E10C949805FC01059061507040A3
:1009A0000110D8F7809590958E0F9F1F0895FC0138
:1009B0006150704001900110D8F7809590958E0F8E
:1009C0009F1F08950F931F93CF93DF93FB01238104
:1009D00021FD03C08FEF9FEF2CC022FF16C0468180
:1009E0005781248135814217530744F4A081B18196
:1009F0009D012F5F3F4F318320838C932681378168
:100A00002F5F3F4F3783268314C08B01EC01FB011E
:100A10000084F185E02D0995892BE1F6D801169621
:100A20008D919C911797019617969C938E9316978C
:100A3000CE01DF91CF911F910F910895FA01AA275E
:100A4000283051F1203181F1E8946F936E7F6E5F11
:100A50007F4F8F4F9F4FAF4FB1E03ED0B4E03CD0BF
:100A6000670F781F891F9A1FA11D680F791F8A1FA2
:100A7000911DA11D6A0F711D811D911DA11D20D009
:100A800009F468943F912AE0269F11243019305DC3
:100A90003193DEF6CF010895462F4770405D4193B4
:100AA000B3E00FD0C9F7F6CF462F4F70405D4A3301
:100AB00018F0495D31FD4052419302D0A9F7EACFC9
:100AC000B4E0A6959795879577956795BA95C9F7F8
:100AD00000976105710508959B01AC010A2E0694EB
:100AE0005795479537952795BA95C9F7620F731FA4
:100AF000841F951FA01D08952F923F924F925F92E1
:100B00006F927F928F929F92AF92BF92CF92DF921D
:100B1000EF92FF920F931F93CF93DF93CDB7DEB782
:100B2000CA1BDB0B0FB6F894DEBF0FBECDBF099416
:100B30002A88398848885F846E847D848C849B846D
:100B4000AA84B984C884DF80EE80FD800C811B817B
:100B5000AA81B981CE0FD11D0FB6F894DEBF0FBEAA
:0A0B6000CDBFED010895F894FFCF1A
:040B6A0025640000FE
:00000001FF
