S0120000536D6172745F486F6D652E7372656323
S11300000C942A000C9447000C9447000C9447006D
S11300100C9447000C9447000C9447000C94470040
S11300200C9447000C9447000C9447000C94470030
S11300300C9447000C9478010C9447000C944700EE
S11300400C9447000C9447000C9447000C94470010
S11300500C94470011241FBECFE5D8E0DEBFCDBF0E
S113006010E0A0E6B0E0E0EAF3E002C005900D92F3
S1130070A836B107D9F720E0A8E6B0E001C01D9288
S1130080AC37B207E1F70E944C000C94CE010C94FB
S113009000000E944401089560E271EA87E090E064
S11300A00E945E000E9473012FEF83ED90E32150C4
S11300B080409040E1F700C00000F4CFCF93DF937D
S11300C000D000D0CDB7DEB769837A838B839C835D
S11300D089819A81AB81BC8181152BE49207A105AA
S11300E0B10509F450C08130EBE49E07A105B105C8
S11300F090F4803CF2E19F07A105B105C1F180387D
S113010025E29207A105B105C1F180369940A10508
S1130110B10511F155C08115F4E89F07F3E0AF076D
S1130120B105E9F1813024E8920723E0A207B10583
S113013030F48115924CA140B10559F141C080328F
S1130140F1EA9F07F7E0AF07B10579F180349244F3
S1130150AF40B10581F134C080E490E021E0FC01BE
S1130160208389E290E020EAFC0120832BC089E20D
S113017090E02FECFC01208325C089E290E027E683
S1130180FC0120831FC089E290E023E3FC0120836B
S113019019C089E290E028E0FC01208313C089E2C1
S11301A090E023E0FC0120830DC089E290E021E08F
S11301B0FC01208307C089E290E0FC01108202C0A8
S11301C081E02EC08AE290E02AE230E0F901208149
S11301D02860FC0120838AE290E02AE230E0F90101
S11301E020812061FC01208380E490E020E430E061
S11301F0F90120812068FC01208380E490E020E460
S113020030E0F90120812260FC01208380E490E049
S113021020E430E0F90120812460FC01208380E0A7
S11302200F900F900F900F90DF91CF910895CF937F
S1130230DF931F92CDB7DEB7898300008BE290E095
S1130240FC018081829586958770882F90E081706B
S11302509927892B99F38CE290E02981FC01208372
S113026000008BE290E0FC01808182958695869562
S11302708370882F90E081709927892B91F3000077
S11302800F90DF91CF910895CF93DF9300D000D0EA
S1130290CDB7DEB79C838B831A8219820FC02B8162
S11302A03C8189819A81820F931FFC0180810E9485
S11302B0170189819A8101969A8389832B813C81D4
S11302C089819A81820F931FFC018081882339F7E9
S11302D080E00E94170100000F900F900F900F9084
S11302E0DF91CF91089580E690E00E94490008953F
S11302F01F920F920FB60F9211242F938F939F93F7
S1130300EF93FF9380917A00882341F08CB181119F
S11303103BC010927A001092790036C08091680038
S1130320E82FF0E09CB1E759FF4F90838F5F8093F3
S11303306800E82FF0E0E859FF4F9081911104C064
S1130340813011F410926800E09168009091780077
S1130350E9130DC0F0E0E859FF4F8081882339F09C
S113036081E08093790080937A00109268008091F4
S11303706800E82FF0E0E859FF4F2081211104C004
S1130380981710F010926800FF91EF919F918F9150
S11303902F910F900FBE0F901F901895F894FFCFD8
S10B03A048656C6C6F210A0032
S9030000FC
