:100000000C942A000C9447000C9447000C94470071
:100010000C9447000C9447000C9447000C94470044
:100020000C9447000C9447000C9447000C94470034
:100030000C9447000C942C010C9447000C9447003E
:100040000C9447000C9447000C9447000C94470014
:100050000C94470011241FBECFE5D8E0DEBFCDBF12
:1000600010E0A0E6B0E0E8E0F3E002C005900D92F9
:10007000A836B107D9F720E0A8E6B0E001C01D928C
:10008000AC37B207E1F70E944C000C9482010C944B
:1000900000000E940601089560E875E280E090E0AB
:1000A0000E945E000E9427012FEF83ED90E3215014
:1000B00080409040E1F700C00000F4CF611526E9D0
:1000C00072078105910509F472C058F5603825E280
:1000D00072078105910509F45EC070F4603629E06D
:1000E00072078105910509F44EC0603C724181059B
:1000F000910509F44DC082C061152BE4720781059A
:10010000910509F44EC0603820E77207810591051A
:1001100009F44AC0603478438105910509F06EC046
:100120003DC0611524E8720723E08207910509F4B8
:100130004AC0A8F461152CE2720721E082079105FC
:10014000E1F1611522EC720721E082079105C1F10E
:100150006115714E8105910509F050C02BC06032C8
:1001600021EA720727E08207910599F1603422E4C1
:1001700072072FE08207910579F16039704D834055
:100180009105E1F523C081E080BD80EA89B925C0F1
:100190008FEC89B922C087E689B91FC084E489B988
:1001A0001CC083E389B919C082E289B916C089E10C
:1001B00089B913C080E189B910C08CE089B90DC03C
:1001C00088E089B90AC083E089B907C083E089B9AA
:1001D00004C081E089B901C019B88AB188608AB9C0
:1001E0008AB180618AB980B5806880BD80B582603F
:1001F00080BD80B5846080BD80E0089581E0089571
:100200005D9BFECF8CB95E9BFECF0895CF92DF92AF
:10021000EF92FF92CF93DF93EC01C12CD12C7601AA
:1002200007C00E9400018FEFC81AD80AE80AF80A2E
:10023000FE01EC0DFD1D80818111F3CF0E940001B4
:10024000DF91CF91FF90EF90DF90CF90089580E6FF
:1002500090E00E94490008951F920F920FB60F92EE
:1002600011242F938F939F93EF93FF9380917A00A4
:10027000882341F08CB181113BC010927A0010921A
:10028000790036C080916800E82FF0E09CB1E75912
:10029000FF4F90838F5F80936800E82FF0E0E8596C
:1002A000FF4F9081911104C0813011F410926800C9
:1002B000E091680090917800E9130DC0F0E0E859F2
:1002C000FF4F8081882339F081E08093790080930B
:1002D0007A001092680080916800E82FF0E0E859F9
:1002E000FF4F2081211104C0981710F01092680070
:1002F000FF91EF919F918F912F910F900FBE0F90D3
:080300001F901895F894FFCF3F
:0803080048656C6C6F210D00CB
:00000001FF
