:100000000C947B000C94090C0C9498000C949800B0
:100010000C9498000C9498000C9498000C94980000
:100020000C9498000C9498000C9498000C949800F0
:100030000C9498000C94920B0C9498000C949800DB
:100040000C942D0C0C9498000C9498000C9498002F
:100050000C9498009703AB03AB03AB03AB03AB0368
:10006000AB03AB03AD03AB03AB03AB03AB03AB031E
:10007000AB03AB039903AB03AB03AB03AB03AB0322
:10008000AB03AB039B03AB03AB03AB03AB03AB0310
:10009000AB03AB039D03AB03AB03AB03AB03AB03FE
:1000A000AB03AB039F03AB03AB03AB03AB03AB03EC
:1000B000AB03AB03A103AB03AB03AB03AB03AB03DA
:1000C000AB03AB03A303AB03AB03AB03AB03AB03C8
:1000D000AB03AB03A503AB03AB03AB03AB03AB03B6
:1000E000AB03AB03A703AB03AB03AB03AB03AB03A4
:1000F000AB03AB03A90311241FBECFE5D8E0DEBFDD
:10010000CDBF15E0A0E6B0E0E8E8F7E202C0059058
:100110000D92AA3DB107D9F726E0AAEDB5E001C0DE
:100120001D92AD35B207E1F70E9431020C94C21363
:100130000C940000982F862F41E0692F0E94EF0257
:10014000811182E008950E94AF0308950F931F93D9
:10015000CF93DF93C82FD62F8A010E94B303CC0F11
:1001600080EA8C0F0E94BB038D2F0E94BB030E946C
:10017000B30381EA8C0F0E94BB03C8010E94CF0326
:100180000E94DA03DF91CF911F910F910895EF92B2
:10019000FF920F931F93CF93DF93C82FD62F7A012F
:1001A00089010E94B303CC0F80EA8C0F0E94BB032D
:1001B0008D2F0E94BB030E94B30381EA8C0F0E9423
:1001C000BB03C0E0D0E006C0C8018C0F9D1F0E9499
:1001D000C4032196C7010197C817D907A8F3C8011E
:1001E0008C0F9D1F0E94CF030E94DA03DF91CF91F5
:1001F0001F910F91FF90EF9008951F93CF93DF937E
:10020000C82F162FD42F0E94B3038C2F880F80562F
:100210000E94BB03812F0E94BB038D2F0E94BB0352
:100220000E94DA038FE39CE90197F1F700C0000018
:10023000DF91CF911F9108956F927F928F929F923D
:10024000AF92BF92CF92DF92EF92FF920F931F93E4
:10025000CF93DF93782E662E6A018901862F8F70E7
:1002600020E130E07901E81AF1084E155F0508F445
:100270007A010E94B303872D880F0F2EF0EA7F2E9C
:10028000F02D780E872D0E94BB03862D0E94BB03A4
:10029000C0E0D0E007C0F801EC0FFD1F80810E9494
:1002A000BB032196CE15DF05B0F30E94DA038FE37E
:1002B0009CE90197F1F700C00000EC14FD0409F47B
:1002C00061C05601A60CB11C9FE0A922BB24CE1828
:1002D000DF08CA18DB08D694C794D694C794D6947E
:1002E000C794D694C794E12CF12C27C00E94B30385
:1002F000872D0E94BB038C2F860D0E94BB03812C8F
:10030000912C0BC0FE01E80DF91DE00FF11F80815B
:100310000E94BB038FEF881A980A90E18916910416
:1003200088F360960E94DA038FE39CE90197F1F766
:1003300000C000009FEFE91AF90AEC14FD04B0F2C6
:100340000E94B303872D0E94BB038C2F860D0E9451
:10035000BB03E12CF12C0BC0FE01EE0DFF1DE00FE5
:10036000F11F80810E94BB038FEFE81AF80AEA149C
:10037000FB0490F30E94DA038FE39CE90197F1F705
:1003800000C00000DF91CF911F910F91FF90EF907F
:10039000DF90CF90BF90AF909F908F907F906F90A5
:1003A0000895CF92DF92EF92FF926B017C0140E0C3
:1003B00064E482E00E945502C701B6010E94E5068E
:1003C000FF90EF90DF90CF9008950E9487070895E7
:1003D0000E948D070895982F862F41E0692F0E9473
:1003E0005502811181E00895982F862F41E0692FF1
:1003F0000E94EF02811182E00895982F862F40E03D
:10040000692F0E94EF02811183E0089541E064E4C6
:1004100085E00E94550222E04DEC5CEC6CEC7CE344
:1004200081E00E94FF0568E070E081E00E948F0596
:100430000895682F70E080E090E00E94C70F20E0F0
:1004400030E041EE54E40E94260F2DEC3CEC4CECE5
:100450005CE30E94BA0EAB01BC0181E00E94A606DB
:10046000089560E875E280E090E00E943D080E94F7
:10047000BC070E94AE07FFCF883010F481E00895DA
:1004800080E008958154843010F481E0089580E084
:100490000895823010F481E0089580E0089582305C
:1004A00010F481E0089580E008951F93CF93DF93C7
:1004B000C82FD62F142F0E943C02882309F484C031
:1004C0008D2F0E944202882309F480C0812F0E9450
:1004D0004902882309F47CC0D23429F118F4D134BC
:1004E00039F078C0D334D1F1D43409F452C072C099
:1004F000113061F42AB381E090E002C0880F991FA7
:10050000CA95E2F7822B8ABB80E065C02AB381E0FE
:1005100090E002C0880F991FCA95E2F78095822368
:100520008ABB80E058C0113061F427B381E090E0CD
:1005300002C0880F991FCA95E2F7822B87BB80E023
:100540004AC027B381E090E002C0880F991FCA9586
:10055000E2F78095822387BB80E03DC0113061F4D3
:1005600024B381E090E002C0880F991FCA95E2F79A
:10057000822B84BB80E02FC024B381E090E002C0D6
:10058000880F991FCA95E2F78095822384BB80E08B
:1005900022C0113061F421B381E090E002C0880FE5
:1005A000991FCA95E2F7822B81BB80E014C021B36A
:1005B00081E090E002C0880F991FCA95E2F780950C
:1005C000822381BB80E007C081E005C082E003C0D8
:1005D00083E001C080E0DF91CF911F9108951F93C8
:1005E000CF93DF93C82FD62F142F0E943C0288236D
:1005F00009F484C08D2F0E944202882309F480C030
:10060000812F0E944F02882309F47CC0D23429F143
:1006100018F4D13439F078C0D334D1F1D43409F49A
:1006200052C072C0113061F42BB381E090E002C07F
:10063000880F991FCA95E2F7822B8BBB80E065C0BB
:100640002BB381E090E002C0880F991FCA95E2F7B2
:10065000809582238BBB80E058C0113061F428B3B1
:1006600081E090E002C0880F991FCA95E2F7822BC3
:1006700088BB80E04AC028B381E090E002C0880FC8
:10068000991FCA95E2F78095822388BB80E03DC020
:10069000113061F425B381E090E002C0880F991F0A
:1006A000CA95E2F7822B85BB80E02FC025B381E09D
:1006B00090E002C0880F991FCA95E2F780958223C7
:1006C00085BB80E022C0113061F422B381E090E06C
:1006D00002C0880F991FCA95E2F7822B82BB80E087
:1006E00014C022B381E090E002C0880F991FCA9520
:1006F000E2F78095822382BB80E007C081E005C0DD
:1007000082E003C084E001C080E0DF91CF911F91BF
:10071000089581B1E82FE87F8E2F90E0FC01389793
:10072000E135F105C0F4E65DFF4F0C94C21080E0A6
:10073000089582E0089583E0089584E0089585E0B7
:10074000089586E0089587E0089588E0089589E097
:1007500008958AE008958BE0089581E0089511B826
:100760008FEF80B9089584EA86BF06B607FEFDCFF5
:100770000E948903089583B984E886BF06B607FE00
:10078000FDCF0E948903089524EC26BF06B607FE1C
:10079000FDCF23B1FC0120830E948903089524E842
:1007A00026BF06B607FEFDCF23B1FC0120830E94C1
:1007B0008903089584E986BF06B604FCFDCF089539
:1007C0008430C8F4823041F0833051F0813071F4CC
:1007D00085B7816085BF0AC085B7826085BF06C0C6
:1007E00085B7816085BF85B7826085BF8BB7806420
:1007F0008BBF80E0089581E008958AB180688AB94E
:1008000080E00895833010F481E0089580E0089539
:100810001F93CF93DF93182FEB010E9402048823CC
:1008200009F46AC1113009F46FC020F0123009F4E4
:10083000D5C064C1C230D10578F0C830D10561F0AF
:10084000C034D10549F0C11581E0D80729F0C115A0
:1008500084E0D80709F054C1C830D10549F128F423
:10086000209781F02197C9F04DC1C11581E0D807CB
:10087000A9F1C11584E0D807E1F1C034D10509F030
:1008800041C121C083B78E7F83BF83B78D7F83BF74
:1008900083B78B7F83BF80E03EC183B7816083BF16
:1008A00083B78D7F83BF83B78B7F83BF80E033C1E6
:1008B00083B78E7F83BF83B7826083BF83B78B7F0D
:1008C00083BF80E028C183B7816083BF83B7826024
:1008D00083BF83B78B7F83BF80E01DC183B78E7FCB
:1008E00083BF83B78D7F83BF83B7846083BF80E07E
:1008F00012C183B7816083BF83B78D7F83BF83B706
:10090000846083BF80E007C1C230D10578F0C83071
:10091000D10561F0C034D10549F0C11581E0D80797
:1009200029F0C11584E0D80709F0EEC0C830D10520
:1009300049F128F4209781F02197C9F0E7C0C1154B
:1009400081E0D807A9F1C11584E0D807E1F1C034EE
:10095000D10509F0DBC021C08EB58E7F8EBD8EB56E
:100960008D7F8EBD8EB58B7F8EBD80E0D4C08EB561
:1009700081608EBD8EB58D7F8EBD8EB58B7F8EBD19
:1009800080E0C9C08EB58E7F8EBD8EB582608EBD73
:100990008EB58B7F8EBD80E0BEC08EB581608EBD72
:1009A0008EB582608EBD8EB58B7F8EBD80E0B3C06C
:1009B0008EB58E7F8EBD8EB58D7F8EBD8EB58460DB
:1009C0008EBD80E0A8C08EB581608EBD8EB58D7F56
:1009D0008EBD8EB584608EBD80E09DC0C230D105D5
:1009E000A8F0C830D10591F0C032D10579F0C034FB
:1009F000D10561F0C038D10549F0C11581E0D807B3
:100A000029F0C11584E0D80709F082C0C032D105B1
:100A1000E1F138F4C130D10511F1B0F0289751F16E
:100A200079C0C038D10509F446C020F4C034D105DE
:100A3000B9F170C0C11581E0D80709F447C0C115EC
:100A4000D44009F44EC066C085B58E7F85BD85B59E
:100A50008D7F85BD85B58B7F85BD80E05CC085B50C
:100A6000816085BD85B58D7F85BD85B58B7F85BD55
:100A700080E051C085B58E7F85BD85B5826085BD1E
:100A800085B58B7F85BD80E046C085B5816085BD1D
:100A900085B5826085BD85B58B7F85BD80E03BC017
:100AA00085B58E7F85BD85B58D7F85BD85B5846017
:100AB00085BD80E030C085B5816085BD85B58D7F01
:100AC00085BD85B5846085BD80E025C085B58E7FF8
:100AD00085BD85B5826085BD85B5846085BD80E0B6
:100AE0001AC085B5816085BD85B5826085BD85B537
:100AF000846085BD80E00FC081E00DC080E00BC048
:100B000082E009C080E007C082E005C080E003C049
:100B100082E001C080E0DF91CF911F9108950F9393
:100B20001F93CF93C82F8B010E940204882331F0BA
:100B3000B8018C2F0E94080480E001C081E0CF91B1
:100B40001F910F910895843040F5813071F028F0A5
:100B5000823099F08330C9F022C083B78F7E83BF83
:100B600083B78F7D83BF80E008958FB58F7B8FBD66
:100B70008FB58F778FBD80E008958FB58F7E8FBD45
:100B80008FB58F7D8FBD80E0089585B58F7E85BD43
:100B900085B58F7D85BD80E0089587E0089580E06C
:100BA0000895843040F5813071F028F0823099F05A
:100BB0008330C9F022C083B78F7E83BF83B7806242
:100BC00083BF80E008958FB58F7B8FBD8FB5806820
:100BD0008FBD80E008958FB58F7E8FBD8FB5806209
:100BE0008FBD80E0089585B58F7E85BD85B5806217
:100BF00085BD80E0089587E0089580E00895CF9254
:100C0000DF92EF92FF92CF93843008F096C09FEF6F
:100C1000920F923008F093C06A017B01C82F833095
:100C200018F4813028F022C0833009F464C080C0F9
:100C3000213019F0223041F00DC083B7806483BFAA
:100C400083B7886083BF06C083B7806483BF83B7E0
:100C5000877F83BF20E030E04FE753E4C701B60150
:100C60000E9455100E94980F6CBF62C0213019F08D
:100C7000223091F021C08FB58E7F8FBD8FB58260FD
:100C80008FBD8EB588608EBD8EB580618EBD80E2D1
:100C90009EE497BD86BD10C08FB58E7F8FBD8FB58A
:100CA00082608FBD8EB5877F8EBD8EB580618EBD13
:100CB00080E29EE497BD86BDC13019F0C23071F06C
:100CC00037C020E030E44CE956E4C701B6010E9489
:100CD00055100E94980F7BBD6ABD2AC020E030E409
:100CE0004CE956E4C701B6010E9455100E94980FC6
:100CF00079BD68BD1DC0213019F0223041F00DC012
:100D000085B5806485BD85B5886085BD06C085B51F
:100D1000806485BD85B5877F85BD20E030E04FE7E5
:100D200053E4C701B6010E9455100E94980F63BD9D
:100D30008C2F0E94D10580E003C087E001C086E0CF
:100D4000CF91FF90EF90DF90CF900895282F8430BF
:100D5000C0F5CB01BA01213089F028F02230D1F062
:100D6000233021F130C020E030E04FE753E40E940F
:100D700055100E94980F6CBF80E0089520E030E489
:100D80004CE956E40E9455100E94980F7BBD6ABD45
:100D900080E0089520E030E44CE956E40E945510CC
:100DA0000E94980F79BD68BD80E0089520E030E092
:100DB0004FE753E40E9455100E94980F63BD80E0F6
:100DC000089587E0089580E00895611526E9720787
:100DD0008105910509F472C058F5603825E2720763
:100DE0008105910509F45EC070F4603629E0720750
:100DF0008105910509F44EC0603C72418105910561
:100E000009F44DC082C061152BE47207810591057C
:100E100009F44EC0603820E772078105910509F496
:100E20004AC0603478438105910509F06EC03DC029
:100E3000611524E8720723E08207910509F44AC08E
:100E4000A8F461152CE2720721E082079105E1F117
:100E5000611522EC720721E082079105C1F161154D
:100E6000714E8105910509F050C02BC0603221EA16
:100E7000720727E08207910599F1603422E4720736
:100E80002FE08207910579F16039704D834091051B
:100E9000E1F523C081E080BD80EA89B925C08FECEF
:100EA00089B922C087E689B91FC084E489B91CC00A
:100EB00083E389B919C082E289B916C089E189B989
:100EC00013C080E189B910C08CE089B90DC088E0F9
:100ED00089B90AC083E089B907C083E089B904C031
:100EE00081E089B901C019B88AB188608AB98AB12C
:100EF00080618AB980B5806880BD80B5826080BD20
:100F000080B5846080BD80E0089581E008955D9B98
:100F1000FECF8CB95E9BFECF0895CF92DF92EF9209
:100F2000FF92CF93DF93EC01C12CD12C760107C047
:100F30000E9487078FEFC81AD80AE80AF80AFE014C
:100F4000EC0DFD1D80818111F3CF0E948707DF9199
:100F5000CF91FF90EF90DF90CF9008950E9406020E
:100F600080E00E941902089584EB0E9419020895FE
:100F700080E00E941902089562E083E40E94EB0180
:100F800063E083E40E94EB0164E083E40E94EB01F0
:100F900065E083E40E94EB0166E083E40E94EB01DC
:100FA00067E084E40E94EB0121E040E050E0BA01F8
:100FB00083E00E94FF0560E071E082E00E948F05FF
:100FC00008958330B1F028F4813049F0823061F027
:100FD00008958530C1F090F08630D1F0089562E038
:100FE00083E40E94F401089563E083E40E94F40125
:100FF000089564E083E40E94F401089565E083E4C9
:101000000E94F401089566E083E40E94F4010895CB
:1010100083E00E94D10508958330B1F028F4813037
:1010200049F0823061F008958530C1F090F086304B
:10103000D1F0089562E083E40E94FD01089563E029
:1010400083E40E94FD01089564E083E40E94FD01B1
:10105000089565E083E40E94FD01089566E083E45D
:101060000E94FD01089583E00E94A3050895AB014D
:10107000BC0183E00E94A6060895CF92DF92EF9212
:10108000FF926B017C010E946D0CC701B6010E94AA
:10109000D10183E00E94E0030E94FD03FF90EF90E6
:1010A000DF90CF9008950E94E80181E690E00E94D1
:1010B000E80108950E94E8010895CF93C62FBC016E
:1010C0008EEE95E00E94D110C093ED05CF9108956A
:1010D00084E690E00E94530885E990E00E9453085E
:1010E00080EA90E00E9453088BEA90E00E94530847
:1010F00086EB90E00E94530881EC90E00E94530838
:101100008CEC90E00E9453088091FA05882321F02E
:1011100087ED90E00E94530808956091DE0580916C
:10112000F905811104C0603310F06A3360F084EE79
:1011300090E00E9453080E94680862E086EE98E002
:101140000E945D08089580913C06863080F46133EA
:1011500039F40E94E10787EF90E00E9453082EC007
:101160000E940C0886E191E00E94530827C0863057
:10117000B1F470E060537109072E000C880B990BD5
:101180000E94C90F20E030E040E151E40E94260FA8
:101190000E94370886E391E00E9453080FC0613334
:1011A00039F40E94B40788E591E00E94530806C014
:1011B0000E94B8078EE691E00E9453080E946808DA
:1011C00062E086EE98E00E945D080895CF93C0919A
:1011D000DE058091FA05882349F18091F905811196
:1011E00004C0C13310F0C83360F086E891E00E947B
:1011F00053080E94680862E086EE98E00E945D084D
:101200003DC087E991E00E9453088DEE91E00E9475
:10121000530886E292E00E94530862E08DE898E06D
:101220000E945D08C053C0933C0628C08091F90518
:10123000811104C0C13310F0C73360F086E891E03B
:101240000E9453080E94680862E086EE98E00E94BF
:101250005D0814C087E991E00E9453088DEE91E08B
:101260000E94530886E292E00E94530862E08DE8F3
:1012700098E00E945D08C053C0933C06CF9108954A
:101280008091FA058823A9F08EE592E00E94530828
:101290008CE992E00E9453088AEA92E00E94530887
:1012A0008BEB92E00E94530881ED92E00E9453087C
:1012B00008958EE592E00E9453088EED92E00E9420
:1012C000530884EF92E00E94530808958091F90535
:1012D000882361F081E093E00E9453080E94400956
:1012E00062E08AE999E00E945D0808956AE176E08B
:1012F0008EED95E00E94700C833061F487E193E0FD
:101300000E9453080E94400962E08AE999E00E9425
:101310005D0808958AE196E00E94460E8DE493E010
:101320000E9453080E94400962E08AE999E00E9405
:101330005D0808958091FA05882309F44BC08091D7
:10134000DE059091F905911104C0813310F08533C9
:1013500060F086E891E00E9453080E94400962E034
:101360008AE999E00E945D080895823399F018F4A3
:10137000813331F008958333B9F08433E9F008956F
:1013800086E793E00E945A086DE08CE99AE00E949B
:101390005D08089586E793E00E945A086DE086E6AE
:1013A00099E00E945D0808950E94680862E086EE58
:1013B00098E00E945D08089581E08093DB058CE849
:1013C00093E00E94530884ED93E00E94530810922A
:1013D000ED0508958091DE059091F905911104C005
:1013E000813310F0833360F086E891E00E94530867
:1013F0000E94400962E08AE999E00E945D08089530
:10140000813319F0823349F008950E94680862E040
:1014100086EE98E00E945D08089581E08093DB05E8
:101420008CE893E00E94530884ED93E00E945308F7
:101430001092ED0508958091F905882361F084EEFE
:1014400090E00E9453080E94400962E08AE999E016
:101450000E945D0808958091DE05893721F0893565
:1014600021F481E003C081E001C080E080933D066B
:101470008DE396E00E940B0E88EF93E00E945308E4
:101480000E94400962E08AE999E00E945D0808959F
:101490008091F905882361F08AE194E00E94530865
:1014A0000E94400962E08AE999E00E945D0808957F
:1014B0006EED75E082E596E00E94D11081E394E044
:1014C0000E945A0862E08BE19AE00E945D0808954C
:1014D0008091F905882361F083E694E00E94530827
:1014E0000E94400962E08AE999E00E945D0808953F
:1014F0006AE176E08EED95E00E94090D833081F47B
:101500006EED75E08BE496E00E94D11089E794E0DF
:101510000E945A086BE088E49AE00E945D080895F2
:1015200089E994E00E9453080E94400962E08AE938
:1015300099E00E945D0808958091F905882361F083
:1015400081E093E00E9453080E94400962E08AE92A
:1015500099E00E945D0808956AE176E08EED95E0DD
:101560000E94700C833081F46EED75E08EE396E09E
:101570000E94D11089EB94E00E945A0867E088E647
:101580009AE00E945D08089586EF94E00E94530857
:101590000E94400962E08AE999E00E945D0808958E
:1015A0000F931F93CF93DF93CDB7DEB7E2970FB6BC
:1015B000F894DEBF0FBECDBF8091DA058F5F8093B8
:1015C000DA058330E8F423E030E0A901481B510933
:1015D000CA019F934F9381E195E09F938F938E0172
:1015E0000F5F1F4F1F930F930E94D810C8010E94D6
:1015F00053080F900F900F900F900F900F9004C012
:101600000E94A20D10926000E2960FB6F894DEBF21
:101610000FBECDBFDF91CF911F910F9108958091A3
:10162000F905882361F00E94D00A83E495E00E94C6
:101630005A086BE08FE09BE00E945D0808956EED14
:1016400075E08FE096E00E94C810892B81F089E553
:1016500095E00E945A080E94D00A83E495E00E9417
:101660005A086BE08FE09BE00E945D08089581E0DE
:101670008093DB0589E695E00E945A088BEF95E0A0
:101680000E945A0886E591E00E9453080E94400992
:1016900062E08AE999E00E945D0808958091F90569
:1016A000882361F00E94D00A82E795E00E945A08E0
:1016B0006DE08EE49BE00E945D0808956AEF75E09E
:1016C0008EED95E00E94700C833081F489E895E0FE
:1016D0000E945A080E94D00A82E795E00E945A08A8
:1016E0006DE08EE49BE00E945D08089583E495E040
:1016F0000E945A086BE08FE09BE00E945D0808950D
:101700008DE995E00E9453088FEB95E00E94530805
:1017100082E795E00E945A086DE08EE49BE00E940B
:101720005D0808951F920F920FB60F9211242F9308
:101730003F934F935F936F937F938F939F93AF9359
:10174000BF93EF93FF938CB180933B069091ED058F
:10175000992309F44DC0883059F49091DC05992300
:1017600009F446C091509093DC050E94E50140C009
:101770009091DC05E92FF0E0E252FA4F80839F5F01
:101780009093DC05913039F49091DE059D3019F489
:101790001092DC052DC08D3011F00E94E501E09122
:1017A000DC058091ED05E81310C0F0E0E352FA4F3C
:1017B00080818D3051F081E08093F90580933A0665
:1017C0001092DC058DE00E94E50180913B068D3092
:1017D00079F4E091DC058091ED058E1748F0F0E09A
:1017E000E352FA4F10828DE00E94E5011092DC0571
:1017F000FF91EF91BF91AF919F918F917F916F91E9
:101800005F914F913F912F910F900FBE0F901F90BE
:1018100018951F920F920FB60F9211242F933F939A
:101820004F935F936F937F938F939F93AF93BF93E8
:10183000EF93FF930E94800BFF91EF91BF91AF91C7
:101840009F918F917F916F915F914F913F912F91D8
:101850000F900FBE0F901F9018951F920F920FB60A
:101860000F9211242F933F934F935F936F937F9326
:101870008F939F93AF93BF93CF93DF93EF93FF9398
:1018800084B1C5B1D0E0DC2FCC27C80FD11DC13742
:10189000D10528F041E063E487E00E94EF02C435FF
:1018A000D10528F440E063E487E00E94EF0288B7A6
:1018B000816088BFFF91EF91DF91CF91BF91AF9190
:1018C0009F918F917F916F915F914F913F912F9158
:1018D0000F900FBE0F901F9018950E94A3000895BF
:1018E0009F92AF92BF92CF92DF92EF92FF920F93AF
:1018F0001F93CF93DF93CDB7DEB76D970FB6F894F4
:10190000DEBF0FBECDBF7C016B01912C6BC0AE0161
:101910004F5F5F4F60E0892D0E94A600AE014E5FD1
:101920005F4F61E0892D0E94A600B12C56C08981CD
:1019300090E00B2C02C0959587950A94E2F780FF02
:101940004BC06FE1B69EA02C112468E06A0D9E0189
:101950002D5F3F4F4DE050E0892D0E94C700BE0132
:101960006D5F7F4FC7010E94C810892BA9F565E103
:101970006A0D9E01205F3F4F47E050E0892D0E9495
:10198000C7006CE16A0D9E01295E3F4F47E050E0C1
:10199000892D0E94C7008A8190E002C095958795A5
:1019A000BA94E2F7982F9170F6019193BE016D5FA2
:1019B0007F4FCF010E94D110BE01605F7F4FC601F3
:1019C0000E960E94D110BE01695E7F4FC6014596FA
:1019D0000E94D11082E00BC0B39487E08B1508F011
:1019E000A6CF939487E0891508F091CF83E06D9698
:1019F0000FB6F894DEBF0FBECDBFDF91CF911F9120
:101A00000F91FF90EF90DF90CF90BF90AF909F909D
:101A100008959F92AF92BF92CF92DF92EF92FF9282
:101A20000F931F93CF93DF93CDB7DEB76D970FB6AC
:101A3000F894DEBF0FBECDBF7C016B01912C6BC053
:101A4000AE014F5F5F4F60E0892D0E94A600AE019E
:101A50004E5F5F4F61E0892D0E94A600B12C56C0F9
:101A6000898190E00B2C02C0959587950A94E2F746
:101A700080FF4BC06FE1B69EA02C112465E16A0D7A
:101A80009E01205F3F4F47E050E0892D0E94C70034
:101A9000BE01605F7F4FC7010E94C810892BA9F566
:101AA00068E06A0D9E012D5F3F4F4DE050E0892DAB
:101AB0000E94C7006CE16A0D9E01295E3F4F47E01E
:101AC00050E0892D0E94C7008A8190E002C0959560
:101AD0008795BA94E2F7982F9170F6019193BE0121
:101AE0006D5F7F4FCF010E94D110BE01605F7F4FBD
:101AF000C6010E960E94D110BE01695E7F4FC601DD
:101B000045960E94D11082E00BC0B39487E08B15FC
:101B100008F0A6CF939487E0891508F091CF83E071
:101B20006D960FB6F894DEBF0FBECDBFDF91CF919B
:101B30001F910F91FF90EF90DF90CF90BF90AF90EB
:101B40009F90089566E084E40E949A000895EF92C1
:101B5000FF920F931F93CF93DF9300D0CDB7DEB7E3
:101B60007B01082F069506950695182F1770AE0174
:101B70004F5F5F4F60E0802F0E94A600AE014E5F76
:101B80005F4F61E0802F0E94A60081E090E0012E6F
:101B900002C0880F991F0A94E2F74981482B4983B4
:101BA000F7012081222319F09A81892B8A8360E032
:101BB000802F0E94FD004A8161E0802F0E94FD007D
:101BC00097012F5F3F4F6FE1169F102D112468E0A2
:101BD000610F4DE050E0802F0E941C019701225FB1
:101BE0003F4F65E1610F47E050E0802F0E941C01EC
:101BF00097012B5E3F4F6CE1610F4BE050E0802F6F
:101C00000E941C010F900F90DF91CF911F910F91B7
:101C1000FF90EF900895EF92FF921F93CF93DF9381
:101C20001F92CDB7DEB77C0110E01AC0AE014F5F46
:101C30005F4F60E0812F0E94A60099819F3F79F05D
:101C400002C08F5F01C080E0292F30E0082E02C063
:101C5000359527950A94E2F720FDF3CF04C01F5F66
:101C6000183020F380E0183049F0110F110F110FD8
:101C7000B701810F0E94A70D89E001C08BE00F9092
:101C8000DF91CF911F91FF90EF900895CF92DF9257
:101C9000EF92FF920F931F93CF93DF93CDB7DEB7F1
:101CA00029970FB6F894DEBF0FBECDBF6C0100E0E0
:101CB0004DC0AE014F5F5F4F60E0802F0E94A600D5
:101CC000AE014E5F5F4F61E0802F0E94A60010E0E2
:101CD0003AC0898190E0012E02C0959587950A94BB
:101CE000E2F780FF2FC06FE1169F602D11246B5E1D
:101CF0009E012D5F3F4F47E050E0802F0E94C700BC
:101D0000BE016D5F7F4FC6010E960E94C810892BE1
:101D1000C9F481E090E002C0880F991F1A95E2F79C
:101D200080954981482349839A8189238A8360E089
:101D3000802F0E94FD004A8161E0802F0E94FD00FB
:101D40008AE008C01F5F183020F20F5F083008F4E7
:101D5000B0CF83E029960FB6F894DEBF0FBECDBF9B
:101D6000DF91CF911F910F91FF90EF90DF90CF9077
:101D700008955058BB27AA270E94D10E0C941B101F
:101D80000E940D1038F00E94141020F039F49F3F8B
:101D900019F426F40C940A100EF4E095E7FB0C9469
:101DA0000410E92F0E942C1058F3BA17620773072A
:101DB0008407950720F079F4A6F50C944E100EF4E4
:101DC000E0950B2EBA2FA02D0B01B90190010C014B
:101DD000CA01A0011124FF27591B99F0593F50F463
:101DE000503E68F11A16F040A22F232F342F4427BB
:101DF000585FF3CF469537952795A795F0405395B3
:101E0000C9F77EF41F16BA0B620B730B840BBAF082
:101E10009150A1F0FF0FBB1F661F771F881FC2F7ED
:101E20000EC0BA0F621F731F841F48F48795779501
:101E30006795B795F7959E3F08F0B0CF9395880FBB
:101E400008F09927EE0F9795879508950E943A0F0D
:101E50000C941B100E94141058F00E940D1040F0BA
:101E600029F45F3F29F00C94041051110C944F1089
:101E70000C940A100E942C1068F39923B1F3552397
:101E800091F3951B550BBB27AA276217730784078D
:101E900038F09F5F5F4F220F331F441FAA1FA9F323
:101EA00035D00E2E3AF0E0E832D091505040E69511
:101EB000001CCAF72BD0FE2F29D0660F771F881F72
:101EC000BB1F261737074807AB07B0E809F0BB0B65
:101ED000802DBF01FF2793585F4F3AF09E3F510579
:101EE00078F00C9404100C944F105F3FE4F3983E8C
:101EF000D4F3869577956795B795F7959F5FC9F762
:101F0000880F911D9695879597F90895E1E0660FE2
:101F1000771F881FBB1F621773078407BA0720F05B
:101F2000621B730B840BBA0BEE1F88F7E0950895C4
:101F30000E94341088F09F5798F0B92F9927B75115
:101F4000B0F0E1F0660F771F881F991F1AF0BA955D
:101F5000C9F714C0B13091F00E944E10B1E008955D
:101F60000C944E10672F782F8827B85F39F0B93F4F
:101F7000CCF3869577956795B395D9F73EF4909510
:101F80008095709561957F4F8F4F9F4F0895E8948E
:101F900009C097FB3EF490958095709561957F4FB1
:101FA0008F4F9F4F9923A9F0F92F96E9BB2793955F
:101FB000F695879577956795B795F111F8CFFAF46F
:101FC000BB0F11F460FF1BC06F5F7F4F8F4F9F4FA0
:101FD00016C0882311F096E911C0772321F09EE8FE
:101FE000872F762F05C0662371F096E8862F70E064
:101FF00060E02AF09A95660F771F881FDAF7880F3E
:102000009695879597F9089597F99F6780E870E00E
:1020100060E008959FEF80EC089500240A9416165E
:10202000170618060906089500240A9412161306C6
:10203000140605060895092E0394000C11F4882354
:1020400052F0BB0F40F4BF2B11F460FF04C06F5F70
:102050007F4F8F4F9F4F089557FD9058440F551F46
:1020600059F05F3F71F04795880F97FB991F61F01A
:102070009F3F79F087950895121613061406551F91
:10208000F2CF4695F1DF08C0161617061806991FFD
:10209000F1CF86957105610508940895E894BB27F2
:1020A00066277727CB0197F908950E9468100C9452
:1020B0001B100E940D1038F00E94141020F0952380
:1020C00011F00C9404100C940A1011240C944F106D
:1020D0000E942C1070F3959FC1F3950F50E0551F8F
:1020E000629FF001729FBB27F00DB11D639FAA276D
:1020F000F00DB11DAA1F649F6627B00DA11D661FBC
:10210000829F2227B00DA11D621F739FB00DA11DDC
:10211000621F839FA00D611D221F749F3327A00D96
:10212000611D231F849F600D211D822F762F6A2F32
:1021300011249F5750409AF0F1F088234AF0EE0F97
:10214000FF1FBB1F661F771F881F91505040A9F7C4
:102150009E3F510580F00C9404100C944F105F3F8B
:10216000E4F3983ED4F3869577956795B795F79500
:10217000E7959F5FC1F7FE2B880F911D9695879578
:1021800097F90895EE0FFF1F0590F491E02D099443
:10219000FB01DC018D91019080190110D9F3990B9D
:1021A0000895FB01DC0101900D920020E1F70895F4
:1021B000AEE0B0E0EEEDF0E10C9499130D891E89CC
:1021C00086E08C831A8309838FEF9FE79E838D833C
:1021D000AE01475E5F4F6F89788DCE0101960E94F8
:1021E000FA10EF81F885E00FF11F10822E96E4E0DF
:1021F0000C94B513ABE0B0E0E0E0F1E10C948B138C
:102200006C017B018A01FC0117821682838181FFA8
:10221000CCC1CE0101963C01F6019381F70193FDFB
:10222000859193FF81917F01882309F4BAC185329A
:1022300039F493FD859193FF81917F01853229F4D3
:10224000B60190E00E94F112E7CF912C212C312CA5
:10225000FFE1F315D8F08B3279F038F4803279F061
:102260008332A1F4232D20611DC08D3261F08033B3
:1022700069F4232D216016C0832D8260382EE32D52
:10228000E4603E2E2AC0F32DF8601DC037FC2DC03F
:1022900020ED280F2A3040F08E32B9F436FC81C18F
:1022A000232D2064322E19C036FE06C08AE0989E87
:1022B000200D1124922E11C0EAE02E9E200D112433
:1022C000222EF32DF0623F2E08C08C3621F4832D90
:1022D0008068382E02C0883641F4F70193FD85915D
:1022E00093FF81917F018111B3CF982F9F7D9554EA
:1022F000933028F40C5F1F4F9FE399830DC0833602
:1023000031F0833771F0833509F059C021C0F801ED
:10231000808189830E5F1F4F88248394912C530101
:1023200013C02801F2E04F0E511CF801A080B180CB
:1023300036FE03C0692D70E002C06FEF7FEFC5016C
:102340000E94E6124C018201F32DFF773F2E16C04A
:10235000280122E0420E511CF801A080B18036FE17
:1023600003C0692D70E002C06FEF7FEFC5010E94CE
:10237000DB124C01F32DF0683F2E820133FC1BC0B1
:10238000822D90E088169906B0F4B60180E290E0C4
:102390000E94F1122A94F4CFF50137FC859137FEA3
:1023A00081915F01B60190E00E94F11221102A9400
:1023B00021E0821A91088114910471F7E8C08436F3
:1023C00011F0893641F5F80137FE07C0608171814F
:1023D000828193810C5F1F4F08C060817181072E3D
:1023E000000C880B990B0E5F1F4FF32DFF763F2ECD
:1023F00097FF09C090958095709561957F4F8F4F9D
:102400009F4FF0683F2E2AE030E0A3010E942D1379
:10241000882E861845C0853731F4232D2F7EB22EA5
:102420002AE030E025C0932D997FB92E8F36C1F078
:1024300018F4883579F0B5C0803719F0883721F065
:10244000B0C0E92FE061BE2EB4FE0DC0FB2DF460DC
:10245000BF2E09C034FE0AC0292F2660B22E06C046
:1024600028E030E005C020E130E002C020E132E0A9
:10247000F801B7FE07C060817181828193810C5F92
:102480001F4F06C06081718180E090E00E5F1F4F9A
:10249000A3010E942D13882E8618FB2DFF773F2E57
:1024A00036FE0DC0232D2E7FA22E891458F434FE43
:1024B0000BC032FC09C0832D8E7EA82E05C0B82C1F
:1024C000A32C03C0B82C01C0B92CA4FE0FC0FE0180
:1024D000E80DF11D8081803321F49A2D997EA92E7B
:1024E00009C0A2FE06C0B394B39404C08A2D8678B6
:1024F00009F0B394A3FC11C0A0FE06C0B21488F486
:10250000280C922C9B180EC0B21460F4B60180E225
:1025100090E00E94F112B394F7CFB21418F42B1884
:1025200002C0982C212CA4FE10C0B60180E390E0DC
:102530000E94F112A2FE17C0A1FC03C088E790E040
:1025400002C088E590E0B6010CC08A2D867859F06B
:10255000A1FE02C08BE201C080E2A7FC8DE2B601C1
:1025600090E00E94F112891438F4B60180E390E003
:102570000E94F1129A94F7CF8A94F301E80DF11DAD
:102580008081B60190E00E94F1128110F5CF2220E7
:1025900009F442CEB60180E290E00E94F1122A9442
:1025A000F6CFF6018681978102C08FEF9FEF2B96C1
:1025B000E2E10C94A713FC010590615070400110FA
:1025C000D8F7809590958E0F9F1F0895FC0161505C
:1025D000704001900110D8F7809590958E0F9F1F45
:1025E00008950F931F93CF93DF93FB01238121FD68
:1025F00003C08FEF9FEF2CC022FF16C0468157818A
:10260000248135814217530744F4A081B1819D0193
:102610002F5F3F4F318320838C93268137812F5F3B
:102620003F4F3783268314C08B01EC01FB010084EC
:10263000F185E02D0995892BE1F6D80116968D914B
:102640009C911797019617969C938E931697CE019F
:10265000DF91CF911F910F910895FA01AA27283099
:1026600051F1203181F1E8946F936E7F6E5F7F4F5F
:102670008F4F9F4FAF4FB1E03ED0B4E03CD0670FDB
:10268000781F891F9A1FA11D680F791F8A1F911D2E
:10269000A11D6A0F711D811D911DA11D20D009F47E
:1026A00068943F912AE0269F11243019305D3193C0
:1026B000DEF6CF010895462F4770405D4193B3E0A9
:1026C0000FD0C9F7F6CF462F4F70405D4A3318F050
:1026D000495D31FD4052419302D0A9F7EACFB4E001
:1026E000A6959795879577956795BA95C9F70097B9
:1026F0006105710508959B01AC010A2E069457955A
:10270000479537952795BA95C9F7620F731F841FB0
:10271000951FA01D08952F923F924F925F926F9246
:102720007F928F929F92AF92BF92CF92DF92EF9261
:10273000FF920F931F93CF93DF93CDB7DEB7CA1BE2
:10274000DB0B0FB6F894DEBF0FBECDBF09942A880D
:10275000398848885F846E847D848C849B84AA84B5
:10276000B984C884DF80EE80FD800C811B81AA8142
:10277000B981CE0FD11D0FB6F894DEBF0FBECDBF0D
:08278000ED010895F894FFCF6C
:10278800010D0A0053656C656374206F6E65206FD8
:10279800662074686520666F6C6C6F77696E672059
:1027A8006465766963657320746F20636F6E7472F5
:1027B8006F6C3A09005B315D204C616D702031000F
:1027C8005B325D204C616D702032005B335D204CC4
:1027D800616D702033005B345D204C616D70203476
:1027E800005B355D204C616D702035005B365D20E7
:1027F8004C616D702036005B375D2054686520445D
:102808006F6F72000D0A496E76616C696420696E9B
:1028180070757421210900546865206465766963C0
:102828006520686173206265656E207475726E65D7
:1028380064206F6E2100546865206465766963655D
:1028480020686173206265656E207475726E6564B8
:10285800206F666621005468652062726967687433
:102868006E65737320686173206265656E206164AC
:102878006A7573746564210054686520446F6F72CB
:10288800206973206F70656E206E6F772E00546814
:102898006520446F6F7220697320636C6F73656481
:1028A800206E6F772E00496E76616C6964206F70B8
:1028B80074696F6E210900446F20796F7520776104
:1028C8006E7420746F207377697463682074686508
:1028D80020646576696365206F6E206F72206F666D
:1028E800663F2028456E746572203120746F20740D
:1028F80075726E206974206F6E2E203020746F20E0
:102908007475726E206974206F66662900466F724E
:102918002064696D6D61626C65206C616D702074F6
:102928006865206272696768746E657373206C6588
:1029380076656C73206172652066726F6D20302039
:10294800746F20392E00496620796F7520736C6585
:10295800637465642074686520646F6F722C2065E9
:102968006E7472203120746F206F70656E20616EF6
:1029780064203020746F20636C6F73652E0053657C
:102988006C656374206F6E65206F662074686520BF
:10299800666F6C6C6F77696E67206F7074696F6EA5
:1029A8007328627920656E746572696E6720697430
:1029B80073206E756D626572293A09005B315D207E
:1029C800416464207573657209005B325D2044655B
:1029D8006C657465207573657209005B335D20430F
:1029E8006F6E74726F6C2061206465766963650927
:1029F800005B345D204C6F67206F757409005B3194
:102A08005D20436F6E74726F6C2061206465766917
:102A1800636509005B325D204C6F67206F75740930
:102A2800000D0A496E76616C6964207573657220C1
:102A38006E616D652109000D4572726F7221205516
:102A4800736572206E6F7420666F756E642E2052E7
:102A5800657475726E696E6720746F20746865207E
:102A68006D61696E206D656E752E2E2E0054686539
:102A7800207573657220686173206265656E2064D5
:102A8800656C6574656420737563636573736675D7
:102A98006C6C79210900456E746572207468652034
:102AA80075736572206E616D653A2000546F206CF5
:102AB8006F67696E20616761696E20796F7520683C
:102AC80061766520746F20646973636F6E6E6563E9
:102AD8007420616E64207265636F6E6E6563742026
:102AE800746F20746865204254206D6F64756C653E
:102AF8002E2E2E00596F75206861766520737563D8
:102B08006365737366756C6C79206C6F6767656451
:102B1800206F75742E2E2E005573657220686173B0
:102B2800206265656E206164646564207375636303
:102B380065737366756C6C7921000D0A5061737347
:102B4800776F726420746F6F206C6F6E6721210934
:102B580000446F20796F752077616E7420746F2040
:102B68006D616B6520746865206E65772075736587
:102B78007220616E2061646D696E3F2028792F6E26
:102B88002920000D0A496E76616C696420757365A9
:102B98007220636F6465210900456E746572207444
:102BA8006865206E6577207573657227732070617C
:102BB8007373776F72643A20000D546865207573DB
:102BC800657220636F646520616C72656164792049
:102BD800657869737473210900456E746572207491
:102BE8006865206E65772075736572277320636F3B
:102BF8006465286D757374206265206120756E693F
:102C08007175652073697820646967697420636FDA
:102C18006465293A20000D54686520757365722033
:102C2800616C7265616479206578697374732109D0
:102C3800000D0A496E76616C6964206C6F67696E75
:102C480020617474656D707421200D0A25642061FB
:102C58007474656D7074732072656D61696E696EE8
:102C6800672E00456E74657220796F7572207061E9
:102C78007373776F72643A090057726F6E672070CA
:102C8800617373776F7264210057656C636F6D654C
:102C98002000456E74657220796F757220757365B2
:102CA80072206E616D653A09005573657220646F14
:102CB80065736E2774206578697374210057656C95
:102CC800636F6D6520746F2074686520536D617241
:102CD8007420486F6D652053797374656D210054B5
:102CE8006F2070726F636565642C20706C6561730A
:0A2CF80065206C6F67696E2E000006
:00000001FF
