S0120000536D6172745F486F6D652E7372656323
S11300000C9485000C941C120C94A2000C94A20075
S11300100C94A2000C94A2000C94A2000C94A200D4
S11300200C94A2000C94A2000C94A2000C94A200C4
S11300300C94A2000C94A5110C94A2000C94A200A0
S11300400C9440120C94A2000C94A2000C94A200F4
S11300500C94A2002C0640064006400640064006CA
S1130060400640064206400640064006400640065A
S1130070400640062E06400640064006400640065E
S1130080400640063006400640064006400640064C
S1130090400640063206400640064006400640063A
S11300A04006400634064006400640064006400628
S11300B04006400636064006400640064006400616
S11300C04006400638064006400640064006400604
S11300D0400640063A0640064006400640064006F2
S11300E0400640063C0640064006400640064006E0
S11300F0400640063E066F0A760A7D0A840A8B0A89
S1130100920A990AA00AA70AAE0A11241FBECFE5D3
S1130110D8E0DEBFCDBF17E0A0E6B0E0ECEBF3E340
S113012002C005900D92A837B107D9F728E0A8E7D7
S1130130B7E001C01D92AF32B207E1F70E94190483
S11301400C94DC190C940000982F862F41E0692F41
S11301500E94DD04811182E008950E9444060895FE
S11301600F931F93CF93DF93C82FD62F8A010E943A
S11301704806CC0F80EA8C0F0E9450068D2F0E94F7
S113018050060E94480681EA8C0F0E945006C8015E
S11301900E9464060E946F06DF91CF911F910F9118
S11301A00895EF92FF920F931F93CF93DF93C82F7D
S11301B0D62F7A0189010E944806CC0F80EA8C0F61
S11301C00E9450068D2F0E9450060E94480681EA24
S11301D08C0F0E945006C0E0D0E006C0C8018C0F0E
S11301E09D1F0E9459062196C7010197C817D90778
S11301F0A8F3C8018C0F9D1F0E9464060E946F061D
S1130200DF91CF911F910F91FF90EF9008951F936D
S1130210CF93DF93C82F162FD42F0E9448068C2F1C
S1130220880F80560E945006812F0E9450068D2F01
S11302300E9450060E946F068FE39CE90197F1F734
S113024000C00000DF91CF911F9108956F927F92BB
S11302508F929F92AF92BF92CF92DF92EF92FF92D2
S11302600F931F93CF93DF93782E662E6A01890133
S1130270862F8F7020E130E07901E81AF1084E15DD
S11302805F0508F47A010E944806872D880F0F2E17
S1130290F0EA7F2EF02D780E872D0E945006862DD1
S11302A00E945006C0E0D0E007C0F801EC0FFD1F2B
S11302B080810E9450062196CE15DF05B0F30E947E
S11302C06F068FE39CE90197F1F700C00000EC147E
S11302D0FD0409F461C05601A60CB11C9FE0A922DB
S11302E0BB24CE18DF08CA18DB08D694C794D6946A
S11302F0C794D694C794D694C794E12CF12C27C004
S11303000E944806872D0E9450068C2F860D0E945D
S11303105006812C912C0BC0FE01E80DF91DE00F55
S1130320F11F80810E9450068FEF881A980A90E18D
S11303308916910488F360960E946F068FE39CE906
S11303400197F1F700C000009FEFE91AF90AEC14D5
S1130350FD04B0F20E944806872D0E9450068C2F9F
S1130360860D0E945006E12CF12C0BC0FE01EE0D0F
S1130370FF1DE00FF11F80810E9450068FEFE81AE5
S1130380F80AEA14FB0490F30E946F068FE39CE9D9
S11303900197F1F700C00000DF91CF911F910F91F9
S11303A0FF90EF90DF90CF90BF90AF909F908F9091
S11303B07F906F9008950E94580908950E945E09E5
S11303C0089541E062E480E00E94430441E062E475
S11303D081E00E94430441E062E482E00E9443041D
S11303E041E062E483E00E94430441E062E480E08F
S11303F00E94DD0441E062E481E00E94DD0441E00A
S113040062E482E00E94DD0441E062E483E00E9451
S1130410DD0440E062E484E00E94430440E062E4DE
S113042085E00E94430440E062E486E00E944304C5
S113043040E062E487E00E94430441E062E484E037
S11304400E94DD0441E062E485E00E94DD0441E0B5
S113045062E486E00E94DD0441E062E487E00E94F9
S1130460DD0480E00895813059F028F0823069F08D
S1130470833081F0089562E480E00E94CD05089500
S113048062E481E00E94CD05089562E482E00E9466
S1130490CD05089562E483E00E94CD05089581307E
S11304A061F028F0823079F0833099F00895AB013F
S11304B062E484E00E9477050895AB0162E485E07C
S11304C00E9477050895AB0162E486E00E947705F7
S11304D00895AB0162E487E00E94770508958130B6
S11304E061F028F0823079F0833099F00895AB01FF
S11304F062E480E00E9477050895AB0162E481E044
S11305000E9477050895AB0162E482E00E947705BA
S11305100895AB0162E483E00E9477050895EF92A9
S1130520FF920F931F93CF93DF93CDB7DEB76297FC
S11305300FB6F894DEBF0FBECDBF7C0180E1E1E6CB
S1130540F0E0DE01119601900D928A95E1F700E04A
S11305501CC0BE016E5E7F4F802F0E946F028A898D
S1130560882361F011C0BE016F5E7F4F812F0E940E
S11305704F0289898823C9F11F5F01C010E014303C
S113058090F3802F0E9433020F5F043010F300E0D9
S113059028C0802F0E94330210E01DC0BE016F5E90
S11305A07F4F812F0E944F028989811113C0E02F50
S11305B0F0E0EE0FFF1FEE0FFF1F81E090E08C0FC5
S11305C09D1FE80FF91FE10FF11D8081F701808362
S11305D081E00CC01F5F143008F3802F0E943302A7
S11305E00F5F0430B0F282E001C082E062960FB681
S11305F0F894DEBF0FBECDBFDF91CF911F910F9155
S1130600FF90EF90089541E061E486E00E94DD04EC
S11306108AE18A95F1F700C040E061E486E00E9437
S1130620DD040895CF93C82F482F417061E480E022
S11306300E94DD04C1FB442740F961E481E00E948B
S1130640DD04C2FB442740F961E482E00E94DD043A
S1130650C3FB442740F961E483E00E94DD04CF91A9
S11306600895CF93C82F82958F700E94120341E0A2
S113067061E484E00E94DD040E9403038C2F0E9445
S113068012030E94030385E08A95F1F70000CF91DD
S11306900895CF93C82F82958F700E94120340E073
S11306A061E484E00E94DD040E9403038C2F0E9415
S11306B012030E9403038FED9EE20197F1F700C03D
S11306C00000CF91089581E00E94490308952FEF1F
S11306D089EF90E0215080409040E1F700C0000095
S11306E041E061E480E00E94430441E061E481E090
S11306F00E94430441E061E482E00E94430441E03B
S113070061E483E00E94430441E061E484E00E94E8
S1130710430441E061E485E00E94430441E061E474
S113072086E00E94430440E061E485E00E94DD0429
S113073082E00E94490388E20E9449038CE00E94FF
S1130740490386E00E9449030E9463030895CF92FF
S1130750DF92EF92FF92CF93DF93EC01C12CD12C67
S1130760760107C00E9431038FEFC81AD80AE80A3D
S1130770F80AFE01EC0DFD1D80818111F3CFDF919C
S1130780CF91FF90EF90DF90CF900895662319F0FA
S1130790613029F0089580580E94490308958054D7
S11307A00E9449030895CF93DF93EA010E94C60390
S11307B0CE010E94A703DF91CF910895982F862F31
S11307C041E0692F0E944304811181E00895982F2C
S11307D0862F41E0692F0E94DD04811182E0089593
S11307E0982F862F40E0692F0E94DD04811183E059
S11307F00895982F862F692F0E94CD05811184E0DA
S11308000895682F70E080E090E00E94E11520E0F8
S113081030E041EE54E40E9439152DEC3CEC4CECF4
S11308205CE30E94CD14AB01BC0181E00E94190974
S113083008950E943A0A81E0809360000E9487092B
S113084002C00E941D0C809160008111FACF80E0EB
S113085090E00895883010F481E0089580E00895D0
S11308608154843010F481E0089580E0089582304A
S113087010F481E0089580E00895823010F481E05E
S1130880089580E008951F93CF93DF93C82FD62F48
S1130890142F0E942A04882309F484C08D2F0E94F7
S11308A03004882309F480C0812F0E9437048823F0
S11308B009F47CC0D23429F118F4D13439F078C069
S11308C0D334D1F1D43409F452C072C0113061F47C
S11308D02AB381E090E002C0880F991FCA95E2F71D
S11308E0822B8ABB80E065C02AB381E090E002C01D
S11308F0880F991FCA95E2F7809582238ABB80E00E
S113090058C0113061F427B381E090E002C0880F31
S1130910991FCA95E2F7822B87BB80E04AC027B3B0
S113092081E090E002C0880F991FCA95E2F7809594
S1130930822387BB80E03DC0113061F424B381E0A1
S113094090E002C0880F991FCA95E2F7822B84BBFE
S113095080E02FC024B381E090E002C0880F991F8B
S1130960CA95E2F78095822384BB80E022C01130CF
S113097061F421B381E090E002C0880F991FCA9509
S1130980E2F7822B81BB80E014C021B381E090E0C8
S113099002C0880F991FCA95E2F78095822381BB14
S11309A080E007C081E005C082E003C083E001C0AD
S11309B080E0DF91CF911F9108951F93CF93DF9330
S11309C0C82FD62F142F0E942A04882309F484C028
S11309D08D2F0E943004882309F480C0812F0E9447
S11309E03D04882309F47CC0D23429F118F4D134AD
S11309F039F078C0D334D1F1D43409F452C072C080
S1130A00113061F42BB381E090E002C0880F991F8C
S1130A10CA95E2F7822B8BBB80E065C02BB381E0E3
S1130A2090E002C0880F991FCA95E2F7809582234F
S1130A308BBB80E058C0113061F428B381E090E0B2
S1130A4002C0880F991FCA95E2F7822B88BB80E009
S1130A504AC028B381E090E002C0880F991FCA956C
S1130A60E2F78095822388BB80E03DC0113061F4B9
S1130A7025B381E090E002C0880F991FCA95E2F780
S1130A80822B85BB80E02FC025B381E090E002C0BB
S1130A90880F991FCA95E2F78095822385BB80E071
S1130AA022C0113061F422B381E090E002C0880FCB
S1130AB0991FCA95E2F7822B82BB80E014C022B34F
S1130AC081E090E002C0880F991FCA95E2F78095F3
S1130AD0822382BB80E007C081E005C082E003C0BE
S1130AE084E001C080E0DF91CF911F9108950F93BE
S1130AF01F93CF93DF93D82FC62F8A010E942A0415
S1130B00882309F440C08C2F0E9430048823E9F123
S1130B10C234A9F018F4C13431F039C0C334D9F067
S1130B20C43429F134C089B390E002C09595879507
S1130B30DA95E2F78170F801808380E029C086B3FA
S1130B4090E002C095958795DA95E2F78170F801F7
S1130B50808380E01DC083B390E002C095958795A3
S1130B60DA95E2F78170F801808380E011C080B3E8
S1130B7090E002C095958795DA95E2F78170F801C7
S1130B80808380E005C081E003C082E001C080E092
S1130B90DF91CF911F910F910895CF93DF93D82FB9
S1130BA0C62F0E942A04882309F440C08C2F0E9477
S1130BB030048823E9F1C234A9F018F4C13431F0C7
S1130BC039C0C334D9F0C43429F134C02BB381E023
S1130BD090E002C0880F991FDA95E2F782278BBB59
S1130BE080E029C028B381E090E002C0880F991FFB
S1130BF0DA95E2F7822788BB80E01DC025B381E047
S1130C0090E002C0880F991FDA95E2F7822785BB2E
S1130C1080E011C022B381E090E002C0880F991FE8
S1130C20DA95E2F7822782BB80E005C081E003C049
S1130C3082E001C080E0DF91CF91089581B1E82F77
S1130C40E87F8E2F90E0FC013897E135F105C0F480
S1130C50E65DFF4F0C94DC1680E0089582E0089571
S1130C6083E0089584E0089585E0089586E008957A
S1130C7087E0089588E0089589E008958AE008955A
S1130C808BE0089581E0089511B88FEF80B908953D
S1130C9084EA86BF06B607FEFDCF0E941E060895AD
S1130CA083B984E886BF06B607FEFDCF0E941E0600
S1130CB0089524EC26BF06B607FEFDCF23B1FC0140
S1130CC020830E941E06089524E826BF06B607FE68
S1130CD0FDCF23B1FC0120830E941E06089584E900
S1130CE086BF06B604FCFDCF0895833010F481E07E
S1130CF0089580E008951F93CF93DF93182FEB019D
S1130D000E947506882309F46AC1113009F46FC082
S1130D1020F0123009F4D5C064C1C230D10578F096
S1130D20C830D10561F0C034D10549F0C11581E066
S1130D30D80729F0C11584E0D80709F054C1C83098
S1130D40D10549F128F4209781F02197C9F04DC1CC
S1130D50C11581E0D807A9F1C11584E0D807E1F1F4
S1130D60C034D10509F041C121C083B78E7F83BF50
S1130D7083B78D7F83BF83B78B7F83BF80E03EC102
S1130D8083B7816083BF83B78D7F83BF83B78B7F36
S1130D9083BF80E033C183B78E7F83BF83B7826014
S1130DA083BF83B78B7F83BF80E028C183B7816013
S1130DB083BF83B7826083BF83B78B7F83BF80E0A9
S1130DC01DC183B78E7F83BF83B78D7F83BF83B7F6
S1130DD0846083BF80E012C183B7816083BF83B71F
S1130DE08D7F83BF83B7846083BF80E007C1C23037
S1130DF0D10578F0C830D10561F0C034D10549F08F
S1130E00C11581E0D80729F0C11584E0D80709F09D
S1130E10EEC0C830D10549F128F4209781F021971C
S1130E20C9F0E7C0C11581E0D807A9F1C11584E074
S1130E30D807E1F1C034D10509F0DBC021C08EB57B
S1130E408E7F8EBD8EB58D7F8EBD8EB58B7F8EBD14
S1130E5080E0D4C08EB581608EBD8EB58D7F8EBD91
S1130E608EB58B7F8EBD80E0C9C08EB58E7F8EBD62
S1130E708EB582608EBD8EB58B7F8EBD80E0BEC088
S1130E808EB581608EBD8EB582608EBD8EB58B7F32
S1130E908EBD80E0B3C08EB58E7F8EBD8EB58D7F46
S1130EA08EBD8EB584608EBD80E0A8C08EB5816095
S1130EB08EBD8EB58D7F8EBD8EB584608EBD80E077
S1130EC09DC0C230D105A8F0C830D10591F0C03220
S1130ED0D10579F0C034D10561F0C038D10549F0AD
S1130EE0C11581E0D80729F0C11584E0D80709F0BD
S1130EF082C0C032D105E1F138F4C130D10511F11D
S1130F00B0F0289751F179C0C038D10509F446C032
S1130F1020F4C034D105B9F170C0C11581E0D807FF
S1130F2009F447C0C115D44009F44EC066C085B564
S1130F308E7F85BD85B58D7F85BD85B58B7F85BD50
S1130F4080E05CC085B5816085BD85B58D7F85BD3C
S1130F5085B58B7F85BD80E051C085B58E7F85BD0D
S1130F6085B5826085BD85B58B7F85BD80E046C033
S1130F7085B5816085BD85B5826085BD85B58B7F6E
S1130F8085BD80E03BC085B58E7F85BD85B58D7FF1
S1130F9085BD85B5846085BD80E030C085B5816040
S1130FA085BD85B58D7F85BD85B5846085BD80E0B3
S1130FB025C085B58E7F85BD85B5826085BD85B527
S1130FC0846085BD80E01AC085B5816085BD85B526
S1130FD0826085BD85B5846085BD80E00FC081E0F9
S1130FE00DC080E00BC082E009C080E007C082E051
S1130FF005C080E003C082E001C080E0DF91CF91B2
S11310001F9108950F931F93CF93C82F8B010E94B4
S11310107506882331F0B8018C2F0E947B0680E08E
S113102001C081E0CF911F910F910895843040F564
S1131030813071F028F0823099F08330C9F022C0F9
S113104083B78F7E83BF83B78F7D83BF80E008958E
S11310508FB58F7B8FBD8FB58F778FBD80E008955F
S11310608FB58F7E8FBD8FB58F7D8FBD80E0089546
S113107085B58F7E85BD85B58F7D85BD80E008955E
S113108087E0089580E00895843040F5813071F060
S113109028F0823099F08330C9F022C083B78F7E64
S11310A083BF83B7806283BF80E008958FB58F7B51
S11310B08FBD8FB580688FBD80E008958FB58F7E1A
S11310C08FBD8FB580628FBD80E0089585B58F7E1A
S11310D085BD85B5806285BD80E0089587E008956B
S11310E080E00895CF92DF92EF92FF92CF93843005
S11310F008F096C09FEF920F923008F093C06A01F7
S11311007B01C82F833018F4813028F022C083304B
S113111009F464C080C0213019F0223041F00DC0C0
S113112083B7806483BF83B7886083BF06C083B7F7
S1131130806483BF83B7877F83BF20E030E04FE7BD
S113114053E4C701B6010E946F160E94B2156CBF2A
S113115062C0213019F0223091F021C08FB58E7F0A
S11311608FBD8FB582608FBD8EB588608EBD8EB504
S113117080618EBD80E29EE497BD86BD10C08FB5B0
S11311808E7F8FBD8FB582608FBD8EB5877F8EBDFC
S11311908EB580618EBD80E29EE497BD86BDC13070
S11311A019F0C23071F037C020E030E44CE956E465
S11311B0C701B6010E946F160E94B2157BBD6ABDBD
S11311C02AC020E030E44CE956E4C701B6010E948D
S11311D06F160E94B21579BD68BD1DC0213019F08B
S11311E0223041F00DC085B5806485BD85B5886029
S11311F085BD06C085B5806485BD85B5877F85BD01
S113120020E030E04FE753E4C701B6010E946F16B7
S11312100E94B21563BD8C2F0E94440880E003C075
S113122087E001C086E0CF91FF90EF90DF90CF90F0
S11312300895282F8430C0F5CB01BA01213089F0FC
S113124028F02230D1F0233021F130C020E030E00A
S11312504FE753E40E946F160E94B2156CBF80E002
S1131260089520E030E44CE956E40E946F160E9491
S1131270B2157BBD6ABD80E0089520E030E44CE9FE
S113128056E40E946F160E94B21579BD68BD80E0D5
S1131290089520E030E04FE753E40E946F160E9467
S11312A0B21563BD80E0089587E0089580E0089555
S11312B05D9BFECF8CB95E9BFECF0895CF92DF92EB
S11312C0EF92FF92CF93DF93EC01C12CD12C7601E6
S11312D007C00E9458098FEFC81AD80AE80AF80A0A
S11312E0FE01EC0DFD1D80818111F3CF0E94580990
S11312F0DF91CF91FF90EF90DF90CF90089584EB32
S11313000E940104089580E00E940104089562E0AF
S113131083E40E94DE0363E083E40E94DE0364E06E
S113132083E40E94DE0365E083E40E94DE0366E05A
S113133083E40E94DE0367E084E40E94DE0321E08C
S113134040E050E0BA0183E00E94720860E071E07E
S113135082E00E94020808958330B1F028F48130BD
S113136049F0823061F008958530C1F090F0863004
S1131370D1F0089562E083E40E94E703089563E0F6
S113138083E40E94E703089564E083E40E94E70392
S1131390089565E083E40E94E703089566E083E42A
S11313A00E94E703089583E00E944408089583306F
S11313B0B1F028F4813049F0823061F0089585302D
S11313C0C1F090F08630D1F0089562E083E40E9489
S11313D0F003089563E083E40E94F003089564E059
S11313E083E40E94F003089565E083E40E94F0031F
S11313F0089566E083E40E94F003089583E00E9468
S1131400160808958330B1F028F4813049F0823011
S113141061F008958530C1F090F08630D1F00895E0
S113142062E083E40E94F903089563E083E40E9488
S1131430F903089564E083E40E94F903089565E0E4
S113144083E40E94F903089566E083E40E94F903AB
S1131450089505B405FE04C086E00E94D7090895E6
S113146086E00E94AC090895AB01BC0183E00E94B0
S1131470190908950E9467030E94E1010E948012E5
S11314800895CF93C0E00AC04C2F50E04F56584FF8
S113149063E482E08C0F0E947705CF5FC530A0F330
S11314A085B585FB882780F98093960747E957E03F
S11314B064E487E00E94770583B590E09093C707C2
S11314C08093C607CF91089590E0FC013197EA30EC
S11314D0F10508F049C0E558FF4F0C94DC1641E7CC
S11314E050E061E080E00E94D303089542E850E0B8
S11314F061E080E00E94D303089543E950E061E095
S113150080E00E94D303089544EA50E061E080E063
S11315100E94D303089545EB50E061E080E00E940F
S1131520D303089546EC50E061E080E00E94D303C9
S1131530089547ED50E061E080E00E94D3030895F0
S113154048EE50E061E080E00E94D303089549EF43
S113155050E061E080E00E94D30308954AE051E046
S113156061E080E00E94D30308954BE151E060E024
S11315708CE00E94D30340E251E061E08CE00E94E1
S1131580D3030895EF92FF921F93CF93DF9300D07C
S113159000D0CDB7DEB7182F0E946303173039F49B
S11315A045E251E060E080E00E94D3030EC04AE2CD
S11315B051E060E080E00E94D30380E3810F0E9449
S11315C031038FE291E00E94A703163049F5609140
S11315D0C6077091C707072E000C880B990B0E9451
S11315E0E31523E333E343E250E40E9439150E94F8
S11315F0B2151F926F9383E391E09F938F93CE0173
S113160001967C019F938F930E94F216C7010E945A
S1131610A7030F900F900F900F900F900F9010C092
S1131620E12FF0E0E057F84F8081882329F088E328
S113163091E00E94A70304C08BE391E00E94A703FA
S1131640113019F0173029F008C083E00E94640AB1
S113165007C082E00E94640A03C081E00E94640A19
S11316600F900F900F900F90DF91CF911F91FF90EB
S1131670EF900895EF92FF921F93CF93DF9300D0E2
S113168000D0CDB7DEB7182F0E9463034AE251E0C1
S113169060E080E00E94D30380E3810F0E94310365
S11316A08FE291E00E94A703163088F4E12FF0E066
S11316B0E057F84F8081882329F088E391E00E9465
S11316C0A70338C08BE391E00E94A70333C0163010
S11316D049F56091C6077091C707072E000C880B67
S11316E0990B0E94E31523E333E343E250E40E94A1
S11316F039150E94B2151F926F9383E391E09F9373
S11317008F93CE0101967C019F938F930E94F216D2
S1131710C7010E94A7030F900F900F900F900F9096
S11317200F9008C00E9463034FE351E060E084E03F
S11317300E94D303163081F0173091F01130A1F4D8
S113174080919107882321F088E00E94640A1AC0DE
S113175087E00E94640A16C089E00E94640A12C0ED
S11317608AE00E94640A0EC0E12FF0E0E057F84FCF
S11317708081882321F086E00E94640A03C085E00A
S11317800E94640A0F900F900F900F90DF91CF91F9
S11317901F91FF90EF900895809178078F5F809359
S11317A07807833000F50E94630360E083E00E94C1
S11317B0C6039091780783E3891B0E94310388E470
S11317C091E00E94A70342E551E061E083E00E94BA
S11317D0D3032FEF83ED90E3215080409040E1F755
S11317E000C0000008950E9463034EE551E060E0EC
S11317F084E00E94D30347E651E061E080E00E9468
S1131800D3032FEF83ED90E3215080409040E1F724
S113181000C000000E94630347E751E060E083E0FA
S11318200E94D30342E851E061E082E00E94D303C6
S11318300E94B5131092600008951F93CF93DF9315
S11318401F92CDB7DEB7CE0101960E948F02182FEA
S1131850809199078130A9F120F0823009F448C1C0
S113186030C20E94410A8091CB07811108C081E0F7
S11318700E94C20A8091CB078F5F8093CB071230FE
S113188009F41FC28981823361F0833371F081339B
S113189099F48091CB07823078F081508093CB0704
S11318A00BC081E08093990707C08091CB078730F4
S11318B018F48F5F8093CB078091CB070E94C20AF4
S11318C000C28091CA07882321F0813009F473C0D3
S11318D0F8C18091C907811113C00E9463030E945B
S11318E0B50A40E951E060E080E00E94D30361E082
S11318F080E00E94C60381E08093C90710929A0792
S1131900123009F4DEC189818D32A1F480919A07E5
S1131910882319F0815080939A0741E351E061E0F4
S113192080919A070E94D30361E080919A070E94F4
S1131930C603C7C18D3339F5E0919A07F0E0E55449
S1131940F84F10826BE977E08BEB97E00E941C1351
S1131950823031F41092C90781E08093CA07B1C183
S11319600E9463034BE951E060E085E00E94D303E9
S113197041EA51E061E082E00E94D3030E94CC0B73
S11319801092C9079EC190ED980F9A3008F099C142
S113199090919A07963008F094C10E943103809187
S11319A09A07E82FF0E0E554F84F998190838F5F10
S11319B080939A0786C18091C907811113C00E9440
S11319C063030E94B50A4DEA51E060E080E00E94A2
S11319D0D30361E080E00E94C60381E08093C907DD
S11319E010929A0789818D32A1F480919A078823F5
S11319F019F0815080939A0741E351E061E08091AE
S1131A009A070E94D30361E080919A070E94C6035B
S1131A1058C18D3309F054C0E0919A07F0E0E554C1
S1131A20F84F108260EB77E08BEB97E00E94E216B0
S1131A30892B99F51092C9071092CA0782E0809306
S1131A40990781E0809379070E94630347EB51E093
S1131A5060E084E00E94D303ECE9F7E00190002009
S1131A60E9F79F012D59374080E190E0821B930BE9
S1131A70969587954CE957E061E081500E94D30325
S1131A8081E20E9431032FEF83ED90E321508040E7
S1131A909040E1F700C0000014C10E9463034BE9C9
S1131AA051E060E085E00E94D3034FEB51E061E038
S1131AB083E00E94D3031092C9070E94CC0B01C19A
S1131AC090ED980F9A3008F0FCC090919A079A30E4
S1131AD008F0F7C00E94310380919A07E82FF0E0E4
S1131AE0E554F84F998190838F5F80939A07E9C0FA
S1131AF080917A07882399F080917C0781110FC027
S1131B000E9463034AEC51E060E080E00E94D3034A
S1131B104BED51E061E083E00E94D303D2C00E9408
S1131B20410A8091C807811108C081E00E943A0BE4
S1131B308091C8078F5F8093C807123009F4C1C031
S1131B4089818233A1F018F4813341F0B6C0833324
S1131B5009F473C0843309F4A9C0AFC08091C807E5
S1131B60823008F4AAC081508093C807A6C080912F
S1131B70C807863019F08730A1F153C06091C607B9
S1131B807091C707072E000C880B990B0E94E31570
S1131B9020E030E04CEC51E40E94CD140E94AB15DF
S1131BA07093C7076093C6076F3F710539F034F02F
S1131BB08FEF90E09093C7078093C6076091C607A4
S1131BC07091C707072E000C880B990B0E94E31530
S1131BD020E030E04FE753E40E9439150E94340AB4
S1131BE06CC0109279071092C8071092CB0710921C
S1131BF099070E94630346EE51E060E081E00E9491
S1131C00D30345EF51E060E084E00E94D3032FEF5B
S1131C1083ED90E3215080409040E1F700C0000044
S1131C204CC00E94020AE091C807F0E0E057F84F68
S1131C30908181E08927808340C08091C8078630E5
S1131C4079F56091C6077091C707072E000C880BC1
S1131C50990B0E94E31520E030E04CEC51E40E9423
S1131C60CC140E94AB157093C7076093C607772303
S1131C7024F41092C7071092C6076091C6077091AA
S1131C80C707072E000C880B990B0E94E31520E070
S1131C9030E04FE753E40E9439150E94340A0DC026
S1131CA0873058F48F5F8093C80707C08091C807B6
S1131CB0863019F48F5F8093C8078091C8070E940B
S1131CC03A0B0F90DF91CF911F9108950E94DE018E
S1131CD08FEF91E00E94DE0108950E94DE010895D5
S1131CE0CF93C62FBC018DE897E00E94EB16C093FA
S1131CF08C07CF91089582E092E00E94660E83E300
S1131D0092E00E94660E8EE392E00E94660E89E4E1
S1131D1092E00E94660E84E592E00E94660E8FE5D2
S1131D2092E00E94660E8AE692E00E94660E80911E
S1131D30CC07882321F085E792E00E94660E08957F
S1131D4060917D0780919807811104C0603310F081
S1131D506A3360F082E892E00E94660E0E947B0E75
S1131D6062E089EF9EE00E94700E089580910E0853
S1131D70863080F4613339F40E94AC0985E992E03D
S1131D800E94660E2EC00E94D70984EB92E00E9446
S1131D90660E27C08630B1F470E060537109072ED7
S1131DA0000C880B990B0E94E31520E030E040E121
S1131DB051E40E9439150E94340A84ED92E00E9495
S1131DC0660E0FC0613339F40E947F0986EF92E0FA
S1131DD00E94660E06C00E9483098CE093E00E9474
S1131DE0660E0E947B0E62E089EF9EE00E94700EF8
S1131DF00895CF93C0917D078091CC07882349F142
S1131E0080919807811104C0C13310F0C83360F089
S1131E1084E293E00E94660E0E947B0E62E089EFEA
S1131E209EE00E94700E3DC085E393E00E94660E22
S1131E308BE893E00E94660E84EC93E00E94660EA9
S1131E4062E080EA9EE00E94700EC053C0930E08C8
S1131E5028C080919807811104C0C13310F0C733A2
S1131E6060F084E293E00E94660E0E947B0E62E0C2
S1131E7089EF9EE00E94700E14C085E393E00E94F7
S1131E80660E8BE893E00E94660E84EC93E00E9459
S1131E90660E62E080EA9EE00E94700EC053C0931A
S1131EA00E08CF9108958091CC078823A9F08CEF78
S1131EB093E00E94660E8AE394E00E94660E88E432
S1131EC094E00E94660E89E594E00E94660E8FE617
S1131ED094E00E94660E08958CEF93E00E94660ED3
S1131EE08CE794E00E94660E82E994E00E94660EFC
S1131EF0089580919807882361F08FE994E00E9407
S1131F00660E0E94530F62E08DEA9FE00E94700EFD
S1131F1008956CEE77E08DE797E00E94831283309A
S1131F2061F485EB94E00E94660E0E94530F62E018
S1131F308DEA9FE00E94700E08958CEE97E00E9457
S1131F4059148BEE94E00E94660E0E94530F62E0D7
S1131F508DEA9FE00E94700E08958091CC0788233B
S1131F6009F44BC080917D0790919807911104C0AA
S1131F70813310F0853360F084E293E00E94660EB2
S1131F800E94530F62E08DEA9FE00E94700E089554
S1131F90823399F018F4813331F008958333B9F022
S1131FA08433E9F0089584E195E00E946D0E6DE0BC
S1131FB08FEA90E10E94700E089584E195E00E94FA
S1131FC06D0E6DE089E79FE00E94700E08950E94F7
S1131FD07B0E62E089EF9EE00E94700E089581E01E
S1131FE080937A078AE295E00E94660E82E795E084
S1131FF00E94660E10928C07089580917D0790913F
S11320009807911104C0813310F0833360F084E2A7
S113201093E00E94660E0E94530F62E08DEA9FE0F7
S11320200E94700E0895813319F0823349F00895A7
S11320300E947B0E62E089EF9EE00E94700E08957C
S113204081E080937A078AE295E00E94660E82E737
S113205095E00E94660E10928C070895809198076F
S1132060882361F082E892E00E94660E0E94530F7A
S113207062E08DEA9FE00E94700E089580917D07D2
S1132080893721F0893521F481E003C081E001C062
S113209080E080930F088FE098E00E941E1486E988
S11320A095E00E94660E0E94530F62E08DEA9FE065
S11320B00E94700E089580919807882361F088EB40
S11320C095E00E94660E0E94530F62E08DEA9FE045
S11320D00E94700E08956DE777E084E298E00E9414
S11320E0EB168FEC95E00E946D0E62E08EE290E1BB
S11320F00E94700E089580919807882361F081E012
S113210096E00E94660E0E94530F62E08DEA9FE003
S11321100E94700E08956CEE77E08DE797E00E94C0
S11321201C13833081F46DE777E08DE198E00E9421
S1132130EB1687E196E00E946D0E6BE08BE590E173
S11321400E94700E089587E396E00E94660E0E9436
S1132150530F62E08DEA9FE00E94700E0895809113
S11321609807882361F08FE994E00E94660E0E942C
S1132170530F62E08DEA9FE00E94700E08956CEEAA
S113218077E08DE797E00E948312833081F46DE756
S113219077E080E198E00E94EB1687E596E00E94E4
S11321A06D0E67E08BE790E10E94700E089584E95C
S11321B096E00E94660E0E94530F62E08DEA9FE053
S11321C00E94700E08950F931F93CF93DF93CDB7A2
S11321D0DEB7E2970FB6F894DEBF0FBECDBF809195
S11321E078078F5F809378078330E8F423E030E04A
S11321F0A901481B5109CA019F934F938FEA96E0A6
S11322009F938F938E010F5F1F4F1F930F930E9415
S1132210F216C8010E94660E0F900F900F900F9057
S11322200F900F9004C00E94B51310926000E296C4
S11322300FB6F894DEBF0FBECDBFDF91CF911F91D3
S11322400F91089580919807882361F00E94E3100C
S113225081EE96E00E946D0E6BE082E291E10E94B5
S1132260700E08956DE777E081EE97E00E94E21624
S1132270892B81F087EF96E00E946D0E0E94E31097
S113228081EE96E00E946D0E6BE082E291E10E9485
S1132290700E089581E080937A0787E097E00E94AA
S11322A06D0E8DEC97E00E946D0E84EE91E00E941D
S11322B0660E0E94530F62E08DEA9FE00E94700E4A
S11322C0089580919807882361F00E94E31080E1CB
S11322D097E00E946D0E6DE081E691E10E94700E20
S11322E008956CEC77E08DE797E00E9483128330C9
S11322F081F487E297E00E946D0E0E94E31080E172
S113230097E00E946D0E6DE081E691E10E94700EEF
S1132310089581EE96E00E946D0E6BE082E291E1F9
S11323200E94700E08958BE397E00E94660E8DE57F
S113233097E00E94660E80E197E00E946D0E6DE0CA
S113234081E691E10E94700E08951F920F920FB6DC
S11323500F9211242F933F934F935F936F937F9327
S11323608F939F93AF93BF93EF93FF938CB180931D
S11323700D0890918C07992309F44DC0883059F4C5
S113238090917B07992309F446C0915090937B0761
S11323900E94DB0140C090917B07E92FF0E0E358F5
S11323A0F84F80839F5F90937B07913039F490912D
S11323B07D079D3019F410927B072DC08D3011F0EC
S11323C00E94DB01E0917B0780918C07E81310C029
S11323D0F0E0E458F84F80818D3051F081E0809333
S11323E0980780930C0810927B078DE00E94DB0114
S11323F080910D088D3079F4E0917B0780918C07F2
S11324008E1748F0F0E0E458F84F10828DE00E94F7
S1132410DB0110927B07FF91EF91BF91AF919F91E8
S11324208F917F916F915F914F913F912F910F9079
S11324300FBE0F901F9018951F920F920FB60F9218
S113244011242F933F934F935F936F937F938F93B5
S11324509F93AF93BF93EF93FF930E949311FF91C8
S1132460EF91BF91AF919F918F917F916F915F9108
S11324704F913F912F910F900FBE0F901F90189581
S11324801F920F920FB60F9211242F933F934F93E5
S11324905F936F937F938F939F93AF93BF93CF93E8
S11324A0DF93EF93FF9384B1C5B1D0E0DC2FCC2749
S11324B0C80FD11DC137D10528F041E063E487E09E
S11324C00E94DD04C435D10528F440E063E487E0CC
S11324D00E94DD0488B7816088BFFF91EF91DF918E
S11324E0CF91BF91AF919F918F917F916F915F91A8
S11324F04F913F912F910F900FBE0F901F90189501
S11325000E94AD0008959F92AF92BF92CF92DF9246
S1132510EF92FF920F931F93CF93DF93CDB7DEB764
S11325206D970FB6F894DEBF0FBECDBF7C016B0173
S1132530912C6BC0AE014F5F5F4F60E0892D0E940C
S1132540B000AE014E5F5F4F61E0892D0E94B00084
S1132550B12C56C0898190E00B2C02C095958795CB
S11325600A94E2F780FF4BC06FE1B69EA02C1124C1
S113257068E06A0D9E012D5F3F4F4DE050E0892DCC
S11325800E94D100BE016D5F7F4FC7010E94E21619
S1132590892BA9F565E16A0D9E01205F3F4F47E055
S11325A050E0892D0E94D1006CE16A0D9E01295EE4
S11325B03F4F47E050E0892D0E94D1008A8190E08E
S11325C002C095958795BA94E2F7982F9170F60119
S11325D09193BE016D5F7F4FCF010E94EB16BE0148
S11325E0605F7F4FC6010E960E94EB16BE01695EC6
S11325F07F4FC60145960E94EB1682E00BC0B39450
S113260087E08B1508F0A6CF939487E0891508F02E
S113261091CF83E06D960FB6F894DEBF0FBECDBFA9
S1132620DF91CF911F910F91FF90EF90DF90CF90AA
S1132630BF90AF909F9008959F92AF92BF92CF9218
S1132640DF92EF92FF920F931F93CF93DF93CDB757
S1132650DEB76D970FB6F894DEBF0FBECDBF7C0119
S11326606B01912C6BC0AE014F5F5F4F60E0892D11
S11326700E94B000AE014E5F5F4F61E0892D0E9461
S1132680B000B12C56C0898190E00B2C02C0959506
S113269087950A94E2F780FF4BC06FE1B69EA02CA9
S11326A0112465E16A0D9E01205F3F4F47E050E031
S11326B0892D0E94D100BE01605F7F4FC7010E9437
S11326C0E216892BA9F568E06A0D9E012D5F3F4F44
S11326D04DE050E0892D0E94D1006CE16A0D9E010D
S11326E0295E3F4F47E050E0892D0E94D1008A8146
S11326F090E002C095958795BA94E2F7982F91706F
S1132700F6019193BE016D5F7F4FCF010E94EB16DE
S1132710BE01605F7F4FC6010E960E94EB16BE019C
S1132720695E7F4FC60145960E94EB1682E00BC09E
S1132730B39487E08B1508F0A6CF939487E08915AE
S113274008F091CF83E06D960FB6F894DEBF0FBE0C
S1132750CDBFDF91CF911F910F91FF90EF90DF904C
S1132760CF90BF90AF909F90089566E084E40E945C
S1132770A4000895EF92FF920F931F93CF93DF93DA
S113278000D0CDB7DEB77B01082F069506950695D8
S1132790182F1770AE014F5F5F4F60E0802F0E94CB
S11327A0B000AE014E5F5F4F61E0802F0E94B00029
S11327B081E090E0012E02C0880F991F0A94E2F78D
S11327C04981482B4983F7012081222319F09A81FA
S11327D0892B8A8360E0802F0E9407014A8161E08F
S11327E0802F0E94070197012F5F3F4F6FE1169FD3
S11327F0102D112468E0610F4DE050E0802F0E94FD
S113280026019701225F3F4F65E1610F47E050E0E9
S1132810802F0E94260197012B5E3F4F6CE1610FD0
S11328204BE050E0802F0E9426010F900F90DF9123
S1132830CF911F910F91FF90EF900895EF92FF9227
S11328401F93CF93DF931F92CDB7DEB77C0110E0C7
S11328501AC0AE014F5F5F4F60E0812F0E94B0004D
S113286099819F3F79F002C08F5F01C080E0292FDA
S113287030E0082E02C0359527950A94E2F720FD32
S1132880F3CF04C01F5F183020F380E0183049F004
S1132890110F110F110FB701810F0E94BA1389E0B4
S11328A001C08BE00F90DF91CF911F91FF90EF90CB
S11328B00895CF92DF92EF92FF920F931F93CF93DD
S11328C0DF93CDB7DEB729970FB6F894DEBF0FBEFE
S11328D0CDBF6C0100E04DC0AE014F5F5F4F60E0C3
S11328E0802F0E94B000AE014E5F5F4F61E0802FE9
S11328F00E94B00010E03AC0898190E0012E02C02D
S1132900959587950A94E2F780FF2FC06FE1169F93
S1132910602D11246B5E9E012D5F3F4F47E050E018
S1132920802F0E94D100BE016D5F7F4FC6010E96BD
S11329300E94E216892BC9F481E090E002C0880F5E
S1132940991F1A95E2F780954981482349839A8112
S113295089238A8360E0802F0E9407014A8161E015
S1132960802F0E9407018AE008C01F5F183020F200
S11329700F5F083008F4B0CF83E029960FB6F894BF
S1132980DEBF0FBECDBFDF91CF911F910F91FF909E
S1132990EF90DF90CF9008955058BB27AA270E944C
S11329A0E4140C9435160E94271638F00E942E1653
S11329B020F039F49F3F19F426F40C9424160EF4F5
S11329C0E095E7FB0C941E16E92F0E94461658F377
S11329D0BA17620773078407950720F079F4A6F500
S11329E00C9468160EF4E0950B2EBA2FA02D0B0153
S11329F0B90190010C01CA01A0011124FF27591B40
S1132A0099F0593F50F4503E68F11A16F040A22F45
S1132A10232F342F4427585FF3CF469537952795B6
S1132A20A795F0405395C9F77EF41F16BA0B620BB5
S1132A30730B840BBAF09150A1F0FF0FBB1F661FFC
S1132A40771F881FC2F70EC0BA0F621F731F841F3F
S1132A5048F4879577956795B795F7959E3F08F065
S1132A60B0CF9395880F08F09927EE0F9795879527
S1132A7008950E944D150C9435160E942E1658F098
S1132A800E94271640F029F45F3F29F00C941E168B
S1132A9051110C9469160C9424160E94461668F37E
S1132AA09923B1F3552391F3951B550BBB27AA2703
S1132AB062177307840738F09F5F5F4F220F331F3D
S1132AC0441FAA1FA9F335D00E2E3AF0E0E832D005
S1132AD091505040E695001CCAF72BD0FE2F29D008
S1132AE0660F771F881FBB1F261737074807AB07DA
S1132AF0B0E809F0BB0B802DBF01FF2793585F4F4F
S1132B003AF09E3F510578F00C941E160C94691609
S1132B105F3FE4F3983ED4F3869577956795B79530
S1132B20F7959F5FC9F7880F911D9695879597F93B
S1132B300895E1E0660F771F881FBB1F62177307B4
S1132B408407BA0720F0621B730B840BBA0BEE1FC9
S1132B5088F7E09508950E94B2156894B1110C9419
S1132B60691608950E944E1688F09F5798F0B92F61
S1132B709927B751B0F0E1F0660F771F881F991FAE
S1132B801AF0BA95C9F714C0B13091F00E946816D2
S1132B90B1E008950C946816672F782F8827B85FE2
S1132BA039F0B93FCCF3869577956795B395D9F706
S1132BB03EF490958095709561957F4F8F4F9F4F10
S1132BC00895E89409C097FB3EF49095809570951C
S1132BD061957F4F8F4F9F4F9923A9F0F92F96E965
S1132BE0BB279395F695879577956795B795F111DA
S1132BF0F8CFFAF4BB0F11F460FF1BC06F5F7F4F77
S1132C008F4F9F4F16C0882311F096E911C0772388
S1132C1021F09EE8872F762F05C0662371F096E891
S1132C20862F70E060E02AF09A95660F771F881F60
S1132C30DAF7880F9695879597F9089597F99F671E
S1132C4080E870E060E008959FEF80EC0895002430
S1132C500A941616170618060906089500240A94FD
S1132C6012161306140605060895092E0394000C83
S1132C7011F4882352F0BB0F40F4BF2B11F460FF12
S1132C8004C06F5F7F4F8F4F9F4F089557FD90583B
S1132C90440F551F59F05F3F71F04795880F97FB1C
S1132CA0991F61F09F3F79F08795089512161306D6
S1132CB01406551FF2CF4695F1DF08C01616170605
S1132CC01806991FF1CF869571056105089408953A
S1132CD0E894BB2766277727CB0197F908950E94CC
S1132CE082160C9435160E94271638F00E942E1670
S1132CF020F0952311F00C941E160C942416112424
S1132D000C9469160E94461670F3959FC1F3950FB3
S1132D1050E0551F629FF001729FBB27F00DB11D5B
S1132D20639FAA27F00DB11DAA1F649F6627B00DEB
S1132D30A11D661F829F2227B00DA11D621F739FD4
S1132D40B00DA11D621F839FA00D611D221F749FE2
S1132D503327A00D611D231F849F600D211D822F29
S1132D60762F6A2F11249F5750409AF0F1F0882350
S1132D704AF0EE0FFF1FBB1F661F771F881F91507D
S1132D805040A9F79E3F510580F00C941E160C94F8
S1132D9069165F3FE4F3983ED4F38695779567957B
S1132DA0B795F795E7959F5FC1F7FE2B880F911DA7
S1132DB09695879597F90895EE0FFF1F0590F49166
S1132DC0E02D0994FB01DC018D9101908019011023
S1132DD0D9F3990B0895FB01DC0101900D920020B9
S1132DE0E1F70895AEE0B0E0E8EFF6E10C94B31932
S1132DF00D891E8986E08C831A8309838FEF9FE7F0
S1132E009E838D83AE01475E5F4F6F89788DCE01BF
S1132E1001960E941417EF81F885E00FF11F1082CC
S1132E202E96E4E00C94CF19ABE0B0E0EAE1F7E1D0
S1132E300C94A5196C017B018A01FC01178216828E
S1132E40838181FFCCC1CE0101963C01F6019381BF
S1132E50F70193FD859193FF81917F01882309F404
S1132E60BAC1853239F493FD859193FF81917F0135
S1132E70853229F4B60190E00E940B19E7CF912C1A
S1132E80212C312CFFE1F315D8F08B3279F038F492
S1132E90803279F08332A1F4232D20611DC08D325C
S1132EA061F0803369F4232D216016C0832D826084
S1132EB0382EE32DE4603E2E2AC0F32DF8601DC0A9
S1132EC037FC2DC020ED280F2A3040F08E32B9F4A3
S1132ED036FC81C1232D2064322E19C036FE06C073
S1132EE08AE0989E200D1124922E11C0EAE02E9EB5
S1132EF0200D1124222EF32DF0623F2E08C08C36B3
S1132F0021F4832D8068382E02C0883641F4F701FD
S1132F1093FD859193FF81917F018111B3CF982F08
S1132F209F7D9554933028F40C5F1F4F9FE3998342
S1132F300DC0833631F0833771F0833509F059C001
S1132F4021C0F801808189830E5F1F4F88248394F8
S1132F50912C530113C02801F2E04F0E511CF801CB
S1132F60A080B18036FE03C0692D70E002C06FEF0F
S1132F707FEFC5010E9400194C018201F32DFF77F8
S1132F803F2E16C0280122E0420E511CF801A080F9
S1132F90B18036FE03C0692D70E002C06FEF7FEF91
S1132FA0C5010E94F5184C01F32DF0683F2E8201F3
S1132FB033FC1BC0822D90E088169906B0F4B6014C
S1132FC080E290E00E940B192A94F4CFF50137FCBB
S1132FD0859137FE81915F01B60190E00E940B1943
S1132FE021102A9421E0821A91088114910471F726
S1132FF0E8C0843611F0893641F5F80137FE07C080
S113300060817181828193810C5F1F4F08C0608150
S11330107181072E000C880B990B0E5F1F4FF32D47
S1133020FF763F2E97FF09C0909580957095619526
S11330307F4F8F4F9F4FF0683F2E2AE030E0A3016F
S11330400E944719882E861845C0853731F4232DF0
S11330502F7EB22E2AE030E025C0932D997FB92E21
S11330608F36C1F018F4883579F0B5C0803719F07F
S1133070883721F0B0C0E92FE061BE2EB4FE0DC048
S1133080FB2DF460BF2E09C034FE0AC0292F266030
S1133090B22E06C028E030E005C020E130E002C0D6
S11330A020E132E0F801B7FE07C0608171818281BE
S11330B093810C5F1F4F06C06081718180E090E0B6
S11330C00E5F1F4FA3010E944719882E8618FB2DFF
S11330D0FF773F2E36FE0DC0232D2E7FA22E89149E
S11330E058F434FE0BC032FC09C0832D8E7EA82E0A
S11330F005C0B82CA32C03C0B82C01C0B92CA4FE65
S11331000FC0FE01E80DF11D8081803321F49A2D5A
S1133110997EA92E09C0A2FE06C0B394B39404C03C
S11331208A2D867809F0B394A3FC11C0A0FE06C0D2
S1133130B21488F4280C922C9B180EC0B21460F4BC
S1133140B60180E290E00E940B19B394F7CFB21459
S113315018F42B1802C0982C212CA4FE10C0B60120
S113316080E390E00E940B19A2FE17C0A1FC03C0EB
S113317088E790E002C088E590E0B6010CC08A2D93
S1133180867859F0A1FE02C08BE201C080E2A7FC60
S11331908DE2B60190E00E940B19891438F4B6014F
S11331A080E390E00E940B199A94F7CF8A94F3017C
S11331B0E80DF11D8081B60190E00E940B19811089
S11331C0F5CF222009F442CEB60180E290E00E94BD
S11331D00B192A94F6CFF6018681978102C08FEFEE
S11331E09FEF2B96E2E10C94C119FC01059061500C
S11331F070400110D8F7809590958E0F9F1F089509
S1133200FC016150704001900110D8F780959095B1
S11332108E0F9F1F08950F931F93CF93DF93FB018E
S1133220238121FD03C08FEF9FEF2CC022FF16C026
S113323046815781248135814217530744F4A08184
S1133240B1819D012F5F3F4F318320838C93268171
S113325037812F5F3F4F3783268314C08B01EC01E6
S1133260FB010084F185E02D0995892BE1F6D80155
S113327016968D919C911797019617969C938E9311
S11332801697CE01DF91CF911F910F910895FA0106
S1133290AA27283051F1203181F1E8946F936E7F91
S11332A06E5F7F4F8F4F9F4FAF4FB1E03ED0B4E082
S11332B03CD0670F781F891F9A1FA11D680F791FC3
S11332C08A1F911DA11D6A0F711D811D911DA11DD4
S11332D020D009F468943F912AE0269F11243019E4
S11332E0305D3193DEF6CF010895462F4770405D7F
S11332F04193B3E00FD0C9F7F6CF462F4F70405D2E
S11333004A3318F0495D31FD4052419302D0A9F788
S1133310EACFB4E0A6959795879577956795BA9582
S1133320C9F700976105710508959B01AC010A2E48
S113333006945795479537952795BA95C9F7620F1F
S1133340731F841F951FA01D08952F923F924F92C3
S11333505F926F927F928F929F92AF92BF92CF9221
S1133360DF92EF92FF920F931F93CF93DF93CDB72A
S1133370DEB7CA1BDB0B0FB6F894DEBF0FBECDBFA2
S113338009942A88398848885F846E847D848C8473
S11333909B84AA84B984C884DF80EE80FD800C817C
S11333A01B81AA81B981CE0FD11D0FB6F894DEBF5F
S10F33B00FBECDBFED010895F894FFCFCF
S11333BC013738392F3435362A3132332D23303D09
S11333CC2B31297F2032294C6F67696E20203329D9
S11333DC7E0031297F202020202032294C6F676900
S11333EC6E200032294C6F67696E2020202020202B
S11333FC33297E0031297F203229546F67676C652D
S113340C2033297E0031297F20202032294F6E2041
S113341C202033297E0031297F202032294F6666F3
S113342C20202033297E0032294F6E20202020209A
S113343C2020202033297E0032294F66662020204C
S113344C202020202033297E0031297F2032292B73
S113345C202033292D2034297E0031297F2020205F
S113346C2032294C6F67206F7574002D293C58004D
S113347C3D294F6B0041433A20004C616D70003A7A
S113348C20200025642525004F6E004F6666004CF5
S113349C6F67206F75743F0020617474656D707470
S11334AC730072656D61696E696E67202100546FDB
S11334BC6F206D616E790077726F6E672061747422
S11334CC656D70747321002D2053797374656D20B0
S11334DC2D002D2053757370656E646564202D006A
S11334EC5573657220436F64653A0057726F6E674B
S11334FC005573657220436F64652021005061731D
S113350C73776F72643A0057656C636F6D65005026
S113351C617373776F726420210041646D696E204E
S113352C5065726D697373696F6E0052657175695C
S113353C7265642021006C6F6767696E67206F7514
S113354C742E2E2E00476F6F642042796521000D76
S113355C0A0053656C656374206F6E65206F66207A
S113356C74686520666F6C6C6F77696E6720646530
S113357C766963657320746F20636F6E74726F6CFD
S113358C3A09005B315D204C616D702031005B3277
S113359C5D204C616D702032005B335D204C616D9D
S11335AC702033005B345D204C616D702034005B03
S11335BC355D204C616D702035005B365D204C61AF
S11335CC6D702036005B375D2054686520446F6F46
S11335DC72000D0A496E76616C696420696E7075AF
S11335EC742121090054686520646576696365203B
S11335FC686173206265656E207475726E656420F3
S113360C6F6E210054686520646576696365206873
S113361C6173206265656E207475726E6564206FCB
S113362C66662100546865206272696768746E6509
S113363C737320686173206265656E2061646A75BA
S113364C73746564210054686520446F6F7220693B
S113365C73206F70656E206E6F772E005468652032
S113366C446F6F7220697320636C6F736564206E92
S113367C6F772E00496E76616C6964206F70746983
S113368C6F6E210900446F20796F752077616E7419
S113369C20746F2073776974636820746865206480
S11336AC6576696365206F6E206F72206F66663F66
S11336BC2028456E746572203120746F20747572E5
S11336CC6E206974206F6E2E203020746F207475F8
S11336DC726E206974206F66662900466F722064CE
S11336EC696D6D61626C65206C616D7020746865C8
S11336FC206272696768746E657373206C65766595
S113370C6C73206172652066726F6D203020746F4B
S113371C20392E00496620796F7520736C656374AB
S113372C65642074686520646F6F722C20656E74F8
S113373C72203120746F206F70656E20616E64206E
S113374C3020746F20636C6F73652E0053656C6549
S113375C6374206F6E65206F662074686520666FD5
S113376C6C6C6F77696E67206F7074696F6E7328F9
S113377C627920656E746572696E67206974732052
S113378C6E756D626572293A09005B315D20416486
S113379C64207573657209005B325D2044656C6549
S11337AC7465207573657209005B335D20436F6E1D
S11337BC74726F6C20612064657669636509005BC3
S11337CC345D204C6F67206F757409005B315D208C
S11337DC436F6E74726F6C206120646576696365E7
S11337EC09005B325D204C6F67206F757409000D06
S11337FC0A496E76616C69642075736572206E611A
S113380C6D652109000D4572726F72212055736527
S113381C72206E6F7420666F756E642E2052657400
S113382C75726E696E6720746F20746865206D61A3
S113383C696E206D656E752E2E2E0054686520758C
S113384C73657220686173206265656E2064656CB3
S113385C65746564207375636365737366756C6CEA
S113386C79210900456E746572207468652075733E
S113387C6572206E616D653A2000546F206C6F6721
S113388C696E20616761696E20796F752068617655
S113389C6520746F20646973636F6E6E6563742046
S11338AC616E64207265636F6E6E65637420746FF1
S11338BC20746865204254206D6F64756C652E2EDF
S11338CC2E00596F75206861766520737563636586
S11338DC737366756C6C79206C6F67676564206FA5
S11338EC75742E2E2E0055736572206861732062D8
S11338FC65656E20616464656420737563636573C8
S113390C7366756C6C7921000D0A50617373776F53
S113391C726420746F6F206C6F6E672121090044F0
S113392C6F20796F752077616E7420746F206D61D0
S113393C6B6520746865206E6577207573657220DD
S113394C616E2061646D696E3F2028792F6E292089
S113395C000D0A496E76616C69642075736572207A
S113396C636F6465210900456E7465722074686523
S113397C206E65772075736572277320706173737D
S113398C776F72643A20000D546865207573657204
S113399C20636F646520616C72656164792065785D
S11339AC69737473210900456E74657220746865BB
S11339BC206E65772075736572277320636F646559
S11339CC286D757374206265206120756E6971753C
S11339DC652073697820646967697420636F646512
S11339EC293A20000D546865207573657220616C4A
S11339FC7265616479206578697374732109000DAB
S1133A0C0A496E76616C6964206C6F67696E20611B
S1133A1C7474656D707421200D0A256420617474AE
S1133A2C656D7074732072656D61696E696E672E55
S1133A3C00456E74657220796F75722070617373B2
S1133A4C776F72643A090057726F6E6720706173F6
S1133A5C73776F7264210057656C636F6D6520001A
S1133A6C456E74657220796F75722075736572205A
S1133A7C6E616D653A09005573657220646F6573E8
S1133A8C6E2774206578697374210057656C636FB5
S1133A9C6D6520746F2074686520536D6172742099
S1133AAC486F6D652053797374656D2100546F20D4
S1133ABC70726F636565642C20706C65617365202E
S10B3ACC6C6F67696E2E0000A7
S9030000FC
