:100000000C942A000C9447000C9447000C94470071
:100010000C9447000C9447000C9447000C94470044
:100020000C9447000C9447000C9447000C94470034
:100030000C9447000C9447000C9447000C94470024
:100040000C9447000C9447000C9447000C94470014
:100050000C94470011241FBECFE5D8E0DEBFCDBF12
:1000600010E0A0E6B0E0EAE6F7E002C005900D92ED
:10007000A036B107D9F720E0A0E6B0E001C01D929C
:10008000A036B207E1F70E9449000C94B3030C9428
:10009000000081B3806281BB81B3806181BB22E0BB
:1000A0004AE959E969E97EE381E00E94060222E01B
:1000B00043E353E363E37FE382E00E94060268E0E8
:1000C00070E081E00E94F201FFCF833010F481E004
:1000D000089580E008951F93CF93DF93182FEB01CD
:1000E0000E946500882309F46AC1113009F46FC0C9
:1000F00020F0123009F4D5C064C1C230D10578F0C7
:10010000C830D10561F0C034D10549F0C11581E096
:10011000D80729F0C11584E0D80709F054C1C830C8
:10012000D10549F128F4209781F02197C9F04DC1FC
:10013000C11581E0D807A9F1C11584E0D807E1F124
:10014000C034D10509F041C121C083B78E7F83BF80
:1001500083B78D7F83BF83B78B7F83BF80E03EC132
:1001600083B7816083BF83B78D7F83BF83B78B7F66
:1001700083BF80E033C183B78E7F83BF83B7826044
:1001800083BF83B78B7F83BF80E028C183B7816043
:1001900083BF83B7826083BF83B78B7F83BF80E0D9
:1001A0001DC183B78E7F83BF83B78D7F83BF83B726
:1001B000846083BF80E012C183B7816083BF83B74F
:1001C0008D7F83BF83B7846083BF80E007C1C23067
:1001D000D10578F0C830D10561F0C034D10549F0BF
:1001E000C11581E0D80729F0C11584E0D80709F0CE
:1001F000EEC0C830D10549F128F4209781F021974D
:10020000C9F0E7C0C11581E0D807A9F1C11584E0A4
:10021000D807E1F1C034D10509F0DBC021C08EB5AB
:100220008E7F8EBD8EB58D7F8EBD8EB58B7F8EBD44
:1002300080E0D4C08EB581608EBD8EB58D7F8EBDC1
:100240008EB58B7F8EBD80E0C9C08EB58E7F8EBD92
:100250008EB582608EBD8EB58B7F8EBD80E0BEC0B8
:100260008EB581608EBD8EB582608EBD8EB58B7F62
:100270008EBD80E0B3C08EB58E7F8EBD8EB58D7F76
:100280008EBD8EB584608EBD80E0A8C08EB58160C5
:100290008EBD8EB58D7F8EBD8EB584608EBD80E0A7
:1002A0009DC0C230D105A8F0C830D10591F0C03250
:1002B000D10579F0C034D10561F0C038D10549F0DD
:1002C000C11581E0D80729F0C11584E0D80709F0ED
:1002D00082C0C032D105E1F138F4C130D10511F14D
:1002E000B0F0289751F179C0C038D10509F446C063
:1002F00020F4C034D105B9F170C0C11581E0D80730
:1003000009F447C0C115D44009F44EC066C085B594
:100310008E7F85BD85B58D7F85BD85B58B7F85BD80
:1003200080E05CC085B5816085BD85B58D7F85BD6C
:1003300085B58B7F85BD80E051C085B58E7F85BD3D
:1003400085B5826085BD85B58B7F85BD80E046C063
:1003500085B5816085BD85B5826085BD85B58B7F9E
:1003600085BD80E03BC085B58E7F85BD85B58D7F21
:1003700085BD85B5846085BD80E030C085B5816070
:1003800085BD85B58D7F85BD85B5846085BD80E0E3
:1003900025C085B58E7F85BD85B5826085BD85B557
:1003A000846085BD80E01AC085B5816085BD85B556
:1003B000826085BD85B5846085BD80E00FC081E029
:1003C0000DC080E00BC082E009C080E007C082E081
:1003D00005C080E003C082E001C080E0DF91CF91E2
:1003E0001F9108950F931F93CF93C82F8B010E94E5
:1003F0006500882331F0B8018C2F0E946B0080E0EB
:1004000001C081E0CF911F910F910895CF92DF92AB
:10041000EF92FF92843008F0ADC09FEF920F9230C0
:1004200008F0AAC06A017B01833018F4813028F0FB
:1004300029C0833009F479C0A1C0213019F02230DD
:1004400041F00DC083B7806483BF83B7886083BFEA
:1004500006C083B7806483BF83B7877F83BF83B7BA
:100460008F7E83BF83B7806283BF20E030E04FE799
:1004700053E4C701B6010E941E030E94C6026CBF6E
:1004800080E07FC0213019F0223091F021C09FB56B
:100490009E7F9FBD9FB592609FBD9EB598609EBD9B
:1004A0009EB590619EBD2FEF3FEF37BD26BD10C0BA
:1004B0009FB59E7F9FBD9FB592609FBD9EB5977F64
:1004C0009EBD9EB590619EBD2FEF3FEF37BD26BD0F
:1004D000813019F08230A9F053C08FB58F7B8FBD6A
:1004E0008FB580688FBD20E03FEF4FE757E4C7012D
:1004F000B6010E941E030E94C6027BBD6ABD80E059
:1005000040C08FB58F7E8FBD8FB580628FBD20E0DC
:100510003FEF4FE757E4C701B6010E941E030E9458
:10052000C60279BD68BD80E02CC0213019F02230B0
:1005300041F00DC085B5806485BD85B5886085BDF9
:1005400006C085B5806485BD85B5877F85BD85B5C9
:100550008F7E85BD85B5806285BD20E030E04FE7A8
:1005600053E4C701B6010E941E030E94C60263BD88
:1005700080E007C086E005C085E003C080E001C0E0
:1005800080E0FF90EF90DF90CF9008950E94FD02F1
:1005900088F09F5798F0B92F9927B751B0F0E1F044
:1005A000660F771F881F991F1AF0BA95C9F714C0F4
:1005B000B13091F00E941703B1E008950C94170335
:1005C000672F782F8827B85F39F0B93FCCF386952D
:1005D00077956795B395D9F73EF49095809570958A
:1005E00061957F4F8F4F9F4F089557FD9058440F4F
:1005F000551F59F05F3F71F04795880F97FB991F82
:1006000061F09F3F79F0879508951216130614063E
:10061000551FF2CF4695F1DF08C0161617061806CB
:10062000991FF1CF86957105610508940895E894A6
:10063000BB2766277727CB0197F908950E943103DE
:100640000C94A2030E94940338F00E949B0320F0B4
:10065000952311F00C948B030C94910311240C94AA
:1006600018030E94F50270F3959FC1F3950F50E0B7
:10067000551F629FF001729FBB27F00DB11D639F54
:10068000AA27F00DB11DAA1F649F6627B00DA11DFA
:10069000661F829F2227B00DA11D621F739FB00DA0
:1006A000A11D621F839FA00D611D221F749F332710
:1006B000A00D611D231F849F600D211D822F762FA9
:1006C0006A2F11249F5750409AF0F1F088234AF086
:1006D000EE0FFF1FBB1F661F771F881F91505040F2
:1006E000A9F79E3F510580F00C948B030C941803DE
:1006F0005F3FE4F3983ED4F3869577956795B79579
:10070000F795E7959F5FC1F7FE2B880F911D969592
:10071000879597F9089597F99F6780E870E060E002
:1007200008959FEF80EC089500240A94161617068A
:1007300018060906089500240A94121613061406D2
:1007400005060895092E0394000C11F4882352F035
:10075000BB0F40F4BF2B11F460FF04C06F5F7F4FED
:0A0760008F4F9F4F0895F894FFCFCC
:00000001FF
