:100000000C942A000C9449000C9447000C9447006F
:100010000C9447000C9447000C9447000C94470044
:100020000C9447000C9447000C9447000C94470034
:100030000C9447000C9499010C9447000C944700D1
:100040000C9447000C9447000C9447000C94470014
:100050000C94470011241FBECFE5D8E0DEBFCDBF12
:1000600010E0A0E6B0E0EAE4F3E002C005900D92F3
:10007000A036B107D9F720E0A0E6B0E001C01D929C
:10008000A036B207E1F70E946F000C94A3010C9414
:1000900000001F920F920FB60F9211242F933F93DF
:1000A0004F935F936F937F938F939F93AF93BF9380
:1000B000EF93FF9364E483E00E942B01FF91EF91A3
:1000C000BF91AF919F918F917F916F915F914F9170
:1000D0003F912F910F900FBE0F901F90189583E0C6
:1000E0000E947C0140E064E482E00E94910041E0D3
:1000F00064E483E00E9491007894FFCF883010F48C
:1001000081E0089580E008958154843010F481E006
:10011000089580E00895823010F481E0089580E031
:1001200008951F93CF93DF93C82FD62F142F0E94CB
:100130007E00882309F484C08D2F0E9484008823C8
:1001400009F480C0812F0E948B00882309F47CC0B1
:10015000D23429F118F4D13439F078C0D334D1F144
:10016000D43409F452C072C0113061F42AB381E072
:1001700090E002C0880F991FCA95E2F7822B8ABBD4
:1001800080E065C02AB381E090E002C0880F991F2B
:10019000CA95E2F7809582238ABB80E058C011306F
:1001A00061F427B381E090E002C0880F991FCA95DF
:1001B000E2F7822B87BB80E04AC027B381E090E062
:1001C00002C0880F991FCA95E2F78095822387BBEA
:1001D00080E03DC0113061F424B381E090E002C0C2
:1001E000880F991FCA95E2F7822B84BB80E02FC04D
:1001F00024B381E090E002C0880F991FCA95E2F70E
:100200008095822384BB80E022C0113061F421B349
:1002100081E090E002C0880F991FCA95E2F7822B17
:1002200081BB80E014C021B381E090E002C0880F60
:10023000991FCA95E2F78095822381BB80E007C0B1
:1002400081E005C082E003C083E001C080E0DF916F
:10025000CF911F910895CF93DF93D82FC62F0E947F
:100260007E00882309F440C08C2F0E9484008823DC
:10027000E9F1C234A9F018F4C13431F039C0C33403
:10028000D9F0C43429F134C02BB381E090E002C02E
:10029000880F991FDA95E2F782278BBB80E029C08F
:1002A00028B381E090E002C0880F991FDA95E2F749
:1002B000822788BB80E01DC025B381E090E002C0AA
:1002C000880F991FDA95E2F7822785BB80E011C07D
:1002D00022B381E090E002C0880F991FDA95E2F71F
:1002E000822782BB80E005C081E003C082E001C0BC
:1002F00080E0DF91CF9108958430C8F4823041F0DE
:10030000833051F0813071F485B7816085BF0AC0B8
:1003100085B7826085BF06C085B7816085BF85B718
:10032000826085BF8BB780648BBF80E0089581E0D9
:1003300008951F920F920FB60F9211240F900FBEC7
:0A0340000F901F901895F894FFCF5E
:00000001FF
