:100000000C948C000C94EC130C94A9000C94A90093
:100010000C94A9000C94A9000C94A9000C94A900BC
:100020000C94A9000C94A9000C94A9000C94A900AC
:100030000C94A9000C9467130C94A9000C94A900CB
:100040000C9426140C94A9000C94A9000C94A900FB
:100050000C94A900B304B704BB04BF04C304C704D1
:10006000CB04D506E906E906E906E906E906E9064C
:10007000E906EB06E906E906E906E906E906E90606
:10008000E906D706E906E906E906E906E906E9060A
:10009000E906D906E906E906E906E906E906E906F8
:1000A000E906DB06E906E906E906E906E906E906E6
:1000B000E906DD06E906E906E906E906E906E906D4
:1000C000E906DF06E906E906E906E906E906E906C2
:1000D000E906E106E906E906E906E906E906E906B0
:1000E000E906E306E906E906E906E906E906E9069E
:1000F000E906E506E906E906E906E906E906E9068C
:10010000E906E706290C300C370C3E0C450C4C0C6C
:10011000530C5A0C610C680C11241FBECFE5D8E0BB
:10012000DEBFCDBF17E0A0E6B0E0E0E8F7E302C035
:1001300005900D92A63AB107D9F728E0A6EAB7E0F4
:1001400001C01D92AC35B207E1F70E9485040C9402
:10015000BE1B0C94000060E875E280E090E00E9415
:100160001E100E94F40B0E94410B0E94330B0E9450
:10017000101463E084E40E94CF00789481E08093BF
:10018000A907089502C00E94D50D8091A907811189
:10019000FACFF89463E084E40E94D800FFCF982F50
:1001A000862F41E0692F0E94EC04811181E00895BF
:1001B000982F862F41E0692F0E948605811182E0E9
:1001C00008950E94ED0608950F931F93CF93DF9338
:1001D000C82FD62F8A010E94F106CC0F80EA8C0F1F
:1001E0000E94F9068D2F0E94F9060E94F10681EA0D
:1001F0008C0F0E94F906C8010E940D070E94180783
:10020000DF91CF911F910F910895EF92FF920F937D
:100210001F93CF93DF93C82FD62F7A0189010E94B5
:10022000F106CC0F80EA8C0F0E94F9068D2F0E94F8
:10023000F9060E94F10681EA8C0F0E94F906C0E0DF
:10024000D0E006C0C8018C0F9D1F0E9402072196B6
:10025000C7010197C817D907A8F3C8018C0F9D1FC4
:100260000E940D070E941807DF91CF911F910F91F7
:10027000FF90EF9008951F93CF93DF93C82F162F11
:10028000D42F0E94F1068C2F880F80560E94F90609
:10029000812F0E94F9068D2F0E94F9060E941807EF
:1002A0008FE39CE90197F1F700C00000DF91CF9147
:1002B0001F9108956F927F928F929F92AF92BF92FB
:1002C000CF92DF92EF92FF920F931F93CF93DF9322
:1002D000782E662E6A018901862F8F7020E130E02A
:1002E0007901E81AF1084E155F0508F47A010E94B9
:1002F000F106872D880F0F2EF0EA7F2EF02D780E55
:10030000872D0E94F906862D0E94F906C0E0D0E0F4
:1003100007C0F801EC0FFD1F80810E94F9062196AD
:10032000CE15DF05B0F30E9418078FE39CE9019713
:10033000F1F700C00000EC14FD0409F461C056019F
:10034000A60CB11C9FE0A922BB24CE18DF08CA1856
:10035000DB08D694C794D694C794D694C794D69401
:10036000C794E12CF12C27C00E94F106872D0E9432
:10037000F9068C2F860D0E94F906812C912C0BC05A
:10038000FE01E80DF91DE00FF11F80810E94F906C2
:100390008FEF881A980A90E18916910488F3609685
:1003A0000E9418078FE39CE90197F1F700C0000055
:1003B0009FEFE91AF90AEC14FD04B0F20E94F1066D
:1003C000872D0E94F9068C2F860D0E94F906E12CDC
:1003D000F12C0BC0FE01EE0DFF1DE00FF11F80811F
:1003E0000E94F9068FEFE81AF80AEA14FB0490F36A
:1003F0000E9418078FE39CE90197F1F700C0000005
:10040000DF91CF911F910F91FF90EF90DF90CF90F0
:10041000BF90AF909F908F907F906F900895CF92F4
:10042000DF92EF92FF926B017C0140E064E482E096
:100430000E94EC04C701B6010E946A0AFF90EF9087
:10044000DF90CF9008950E940C0B08950E94120B2C
:10045000089541E062E480E00E94EC0441E062E43F
:1004600081E00E94EC0441E062E482E00E94EC043E
:1004700041E062E483E00E94EC0441E062E480E059
:100480000E94860541E062E481E00E94860541E029
:1004900062E482E00E94860541E062E483E00E941B
:1004A000860540E062E484E00E94EC0440E062E4FF
:1004B00085E00E94EC0440E062E486E00E94EC04E7
:1004C00040E062E487E00E94EC0441E062E484E002
:1004D0000E94860541E062E485E00E94860541E0D5
:1004E00062E486E00E94860541E062E487E00E94C3
:1004F000860580E00895813059F028F0823069F057
:10050000833081F0089562E480E00E9476060895C9
:1005100062E481E00E947606089562E482E00E942F
:100520007606089562E483E00E947606089581309D
:1005300061F028F0823079F0833099F00895AB01B2
:1005400062E484E00E9420060895AB0162E485E045
:100550000E9420060895AB0162E486E00E94200616
:100560000895AB0162E487E00E942006089581307F
:1005700061F028F0823079F0833099F00895AB0172
:1005800062E480E00E9420060895AB0162E481E00D
:100590000E9420060895AB0162E482E00E942006DA
:1005A0000895AB0162E483E00E9420060895EF9273
:1005B000FF920F931F93CF93DF93CDB7DEB7629770
:1005C0000FB6F894DEBF0FBECDBF7C0180E1E0E640
:1005D000F0E0DE01119601900D928A95E1F700E0BE
:1005E0001CC0BE016E5E7F4F802F0E94B7028A89B9
:1005F000882361F011C0BE016F5E7F4F812F0E9482
:10060000970289898823C9F11F5F01C010E0143067
:1006100090F3802F0E947B020F5F043010F300E004
:1006200028C0802F0E947B0210E01DC0BE016F5EBB
:100630007F4F812F0E9497028989811113C0E02F7B
:10064000F0E0EE0FFF1FEE0FFF1F81E090E08C0F38
:100650009D1FE80FF91FE10FF11D8081F7018083D5
:1006600081E00CC01F5F143008F3802F0E947B02D2
:100670000F5F0430B0F282E001C082E062960FB6F4
:10068000F894DEBF0FBECDBFDF91CF911F910F91C8
:10069000FF90EF90089541E061E486E00E948605B6
:1006A0008AE18A95F1F700C040E061E486E00E94AB
:1006B00086050895CF93C82F482F417061E480E0EC
:1006C0000E948605C1FB442740F961E481E00E9455
:1006D0008605C2FB442740F961E482E00E9486055A
:1006E000C3FB442740F961E483E00E948605CF9173
:1006F0000895CF93C82F82958F700E945A0341E0CE
:1007000061E484E00E9486050E944B038C2F0E94C6
:100710005A030E944B0385E08A95F1F70000CF91C0
:100720000895CF93C82F82958F700E945A0340E09E
:1007300061E484E00E9486050E944B038C2F0E9496
:100740005A030E944B038FED9EE20197F1F700C020
:100750000000CF91089581E00E94910308952FEF4A
:1007600089EF90E0215080409040E1F700C0000008
:1007700041E061E480E00E94EC0441E061E481E05A
:100780000E94EC0441E061E482E00E94EC0441E05C
:1007900061E483E00E94EC0441E061E484E00E94B3
:1007A000EC0441E061E485E00E94EC0441E061E496
:1007B00086E00E94EC0440E061E485E00E9486054A
:1007C00082E00E94910388E20E9491038CE00E94E3
:1007D000910386E00E9491030E94AB030895CF929B
:1007E000DF92EF92FF92CF93DF93EC01C12CD12CDB
:1007F000760107C00E9479038FEFC81AD80AE80A69
:10080000F80AFE01EC0DFD1D80818111F3CFDF910F
:10081000CF91FF90EF90DF90CF900895662319F06D
:10082000613029F0089580580E9491030895805402
:100830000E9491030895CF93DF93EA010E940E0472
:10084000CE010E94EF03DF91CF910895982F862F5C
:1008500041E0692F0E94EC04811181E00895982FF6
:10086000862F41E0692F0E948605811182E008955C
:10087000982F862F40E0692F0E948605811183E022
:100880000895982F862F692F0E947606811184E0A3
:100890000895CF93DF93C82FD62F40E061E40E94E4
:1008A000EC048D2F0E9496048C2F0E948C04DF9103
:1008B000CF91089541E064E485E00E94EC0422E0D9
:1008C0004DEC5CEC6CEC7CE381E00E94840968E018
:1008D00070E081E00E9414090895682F70E080E0C4
:1008E00090E00E94C31720E030E041EE54E40E9403
:1008F0001B172DEC3CEC4CEC5CE30E94AF16AB01FB
:10090000BC0181E00E942B0A08950E94AB000E9466
:10091000C20080E090E00895883030F497B1907E76
:10092000892B87B980E0089581E00895E82F87B189
:10093000806487B987B1806887B986B1816086B9DC
:1009400086B1826086B986B1846086B986B18062DC
:1009500086B98E2F90E08730910500F5FC01E65DA9
:10096000FF4F0C94BE1886B1806486B917C080B75B
:10097000806280BF13C080B7806480BF0FC080B723
:10098000806680BF0BC080B7806880BF07C080B71B
:10099000806A80BF03C080B7806C80BF86B18068EA
:1009A00086B980E00895883010F481E0089580E0F1
:1009B00008958154843010F481E0089580E0089512
:1009C000823010F481E0089580E00895823010F4C0
:1009D00081E0089580E008951F93CF93DF93C82F9F
:1009E000D62F142F0E94D304882309F484C08D2F9E
:1009F0000E94D904882309F480C0812F0E94E0045A
:100A0000882309F47CC0D23429F118F4D13439F0A8
:100A100078C0D334D1F1D43409F452C072C011304B
:100A200061F42AB381E090E002C0880F991FCA9553
:100A3000E2F7822B8ABB80E065C02AB381E090E0B8
:100A400002C0880F991FCA95E2F7809582238ABB5E
:100A500080E058C0113061F427B381E090E002C01B
:100A6000880F991FCA95E2F7822B87BB80E04AC0A6
:100A700027B381E090E002C0880F991FCA95E2F782
:100A80008095822387BB80E03DC0113061F424B3A0
:100A900081E090E002C0880F991FCA95E2F7822B8F
:100AA00084BB80E02FC024B381E090E002C0880FB7
:100AB000991FCA95E2F78095822384BB80E022C00B
:100AC000113061F421B381E090E002C0880F991FDA
:100AD000CA95E2F7822B81BB80E014C021B381E08C
:100AE00090E002C0880F991FCA95E2F78095822393
:100AF00081BB80E007C081E005C082E003C083E0E5
:100B000001C080E0DF91CF911F9108951F93CF9393
:100B1000DF93C82FD62F142F0E94D304882309F403
:100B200084C08D2F0E94D904882309F480C0812FAE
:100B30000E94E604882309F47CC0D23429F118F419
:100B4000D13439F078C0D334D1F1D43409F452C05F
:100B500072C0113061F42BB381E090E002C0880FC5
:100B6000991FCA95E2F7822B8BBB80E065C02BB33F
:100B700081E090E002C0880F991FCA95E2F7809546
:100B800082238BBB80E058C0113061F428B381E030
:100B900090E002C0880F991FCA95E2F7822B88BBAC
:100BA00080E04AC028B381E090E002C0880F991F1E
:100BB000CA95E2F78095822388BB80E03DC0113062
:100BC00061F425B381E090E002C0880F991FCA95B7
:100BD000E2F7822B85BB80E02FC025B381E090E057
:100BE00002C0880F991FCA95E2F78095822385BBC2
:100BF00080E022C0113061F422B381E090E002C0B5
:100C0000880F991FCA95E2F7822B82BB80E014C03F
:100C100022B381E090E002C0880F991FCA95E2F7E5
:100C20008095822382BB80E007C081E005C082E01E
:100C300003C084E001C080E0DF91CF911F9108954F
:100C40000F931F93CF93DF93D82FC62F8A010E9453
:100C5000D304882309F440C08C2F0E94D904882330
:100C6000E9F1C234A9F018F4C13431F039C0C33409
:100C7000D9F0C43429F134C089B390E002C095950D
:100C80008795DA95E2F78170F801808380E029C0CA
:100C900086B390E002C095958795DA95E2F781706A
:100CA000F801808380E01DC083B390E002C0959579
:100CB0008795DA95E2F78170F801808380E011C0B2
:100CC00080B390E002C095958795DA95E2F7817040
:100CD000F801808380E005C081E003C082E001C0AC
:100CE00080E0DF91CF911F910F910895CF93DF9313
:100CF000D82FC62F0E94D304882309F440C08C2F1C
:100D00000E94D9048823E9F1C234A9F018F4C1344F
:100D100031F039C0C334D9F0C43429F134C02BB315
:100D200081E090E002C0880F991FDA95E2F78227F0
:100D30008BBB80E029C028B381E090E002C0880F1F
:100D4000991FDA95E2F7822788BB80E01DC025B3A2
:100D500081E090E002C0880F991FDA95E2F78227C0
:100D600085BB80E011C022B381E090E002C0880F13
:100D7000991FDA95E2F7822782BB80E005C081E007
:100D800003C082E001C080E0DF91CF91089581B17E
:100D9000E82FE87F8E2F90E0FC013897E135F105D0
:100DA000C0F4EF5CFF4F0C94BE1880E0089582E021
:100DB000089583E0089584E0089585E0089586E02D
:100DC000089587E0089588E0089589E008958AE00D
:100DD00008958BE0089581E0089511B88FEF80B9F0
:100DE000089584EA86BF06B607FEFDCF0E94C706B7
:100DF000089583B984E886BF06B607FEFDCF0E943A
:100E0000C706089524EC26BF06B607FEFDCF23B122
:100E1000FC0120830E94C706089524E826BF06B679
:100E200007FEFDCF23B1FC0120830E94C706089571
:100E300084E986BF06B604FCFDCF08958430C8F46B
:100E4000823041F0833051F0813071F485B7816098
:100E500085BF0AC085B7826085BF06C085B781603F
:100E600085BF85B7826085BF8BB780648BBF80E00C
:100E7000089581E0089586B1886086B980E008957C
:100E80008AB180688AB980E00895833010F481E0E7
:100E9000089580E008951F93CF93DF93182FEB01FF
:100EA0000E944507882309F46AC1113009F46FC014
:100EB00020F0123009F4D5C064C1C230D10578F0F9
:100EC000C830D10561F0C034D10549F0C11581E0C9
:100ED000D80729F0C11584E0D80709F054C1C830FB
:100EE000D10549F128F4209781F02197C9F04DC12F
:100EF000C11581E0D807A9F1C11584E0D807E1F157
:100F0000C034D10509F041C121C083B78E7F83BFB2
:100F100083B78D7F83BF83B78B7F83BF80E03EC164
:100F200083B7816083BF83B78D7F83BF83B78B7F98
:100F300083BF80E033C183B78E7F83BF83B7826076
:100F400083BF83B78B7F83BF80E028C183B7816075
:100F500083BF83B7826083BF83B78B7F83BF80E00B
:100F60001DC183B78E7F83BF83B78D7F83BF83B758
:100F7000846083BF80E012C183B7816083BF83B781
:100F80008D7F83BF83B7846083BF80E007C1C23099
:100F9000D10578F0C830D10561F0C034D10549F0F1
:100FA000C11581E0D80729F0C11584E0D80709F000
:100FB000EEC0C830D10549F128F4209781F021977F
:100FC000C9F0E7C0C11581E0D807A9F1C11584E0D7
:100FD000D807E1F1C034D10509F0DBC021C08EB5DE
:100FE0008E7F8EBD8EB58D7F8EBD8EB58B7F8EBD77
:100FF00080E0D4C08EB581608EBD8EB58D7F8EBDF4
:101000008EB58B7F8EBD80E0C9C08EB58E7F8EBDC4
:101010008EB582608EBD8EB58B7F8EBD80E0BEC0EA
:101020008EB581608EBD8EB582608EBD8EB58B7F94
:101030008EBD80E0B3C08EB58E7F8EBD8EB58D7FA8
:101040008EBD8EB584608EBD80E0A8C08EB58160F7
:101050008EBD8EB58D7F8EBD8EB584608EBD80E0D9
:101060009DC0C230D105A8F0C830D10591F0C03282
:10107000D10579F0C034D10561F0C038D10549F00F
:10108000C11581E0D80729F0C11584E0D80709F01F
:1010900082C0C032D105E1F138F4C130D10511F17F
:1010A000B0F0289751F179C0C038D10509F446C095
:1010B00020F4C034D105B9F170C0C11581E0D80762
:1010C00009F447C0C115D44009F44EC066C085B5C7
:1010D0008E7F85BD85B58D7F85BD85B58B7F85BDB3
:1010E00080E05CC085B5816085BD85B58D7F85BD9F
:1010F00085B58B7F85BD80E051C085B58E7F85BD70
:1011000085B5826085BD85B58B7F85BD80E046C095
:1011100085B5816085BD85B5826085BD85B58B7FD0
:1011200085BD80E03BC085B58E7F85BD85B58D7F53
:1011300085BD85B5846085BD80E030C085B58160A2
:1011400085BD85B58D7F85BD85B5846085BD80E015
:1011500025C085B58E7F85BD85B5826085BD85B589
:10116000846085BD80E01AC085B5816085BD85B588
:10117000826085BD85B5846085BD80E00FC081E05B
:101180000DC080E00BC082E009C080E007C082E0B3
:1011900005C080E003C082E001C080E0DF91CF9114
:1011A0001F9108950F931F93CF93C82F8B010E9417
:1011B0004507882381F1CC2311F0C23021F40F3F81
:1011C000110509F050F5C13069F018F0C230D1F0C6
:1011D00026C083B7877F83BF83B78F7B83BF02BF60
:1011E00080E01EC08FB58E7F8FBD8FB58D7F8FBD88
:1011F0008EB5877F8EBD8EB58F7E8EBD1DBD0CBD1D
:1012000080E00EC085B5877F85BD85B58F7B85BDA8
:1012100004BD80E005C081E003C083E001C080E040
:10122000CF911F910F9108950F931F93CF93C82FC4
:101230008B010E944507882331F0B8018C2F0E9452
:101240004B0780E001C081E0CF911F910F9108957D
:10125000843040F5813071F028F0823099F083308D
:10126000C9F022C083B78F7E83BF83B78F7D83BFD2
:1012700080E008958FB58F7B8FBD8FB58F778FBD41
:1012800080E008958FB58F7E8FBD8FB58F7D8FBD28
:1012900080E0089585B58F7E85BD85B58F7D85BD40
:1012A00080E0089587E0089580E00895843040F557
:1012B000813071F028F0823099F08330C9F022C07B
:1012C00083B78F7E83BF83B7806283BF80E008953A
:1012D0008FB58F7B8FBD8FB580688FBD80E00895FF
:1012E0008FB58F7E8FBD8FB580628FBD80E00895F2
:1012F00085B58F7E85BD85B5806285BD80E008950A
:1013000087E0089580E00895CF92DF92EF92FF92F8
:10131000CF93843008F096C09FEF920F923008F080
:1013200093C06A017B01C82F833018F4813028F004
:1013300022C0833009F464C080C0213019F022300B
:1013400041F00DC083B7806483BF83B7886083BFDB
:1013500006C083B7806483BF83B7877F83BF20E0E5
:1013600030E04FE753E4C701B6010E9451180E94D4
:1013700094176CBF62C0213019F0223091F021C067
:101380008FB58E7F8FBD8FB582608FBD8EB5886023
:101390008EBD8EB580618EBD80E29EE497BD86BD18
:1013A00010C08FB58E7F8FBD8FB582608FBD8EB51B
:1013B000877F8EBD8EB580618EBD80E29EE497BD35
:1013C00086BDC13019F0C23071F037C020E030E482
:1013D0004CE956E4C701B6010E9451180E949417C7
:1013E0007BBD6ABD2AC020E030E44CE956E4C70169
:1013F000B6010E9451180E94941779BD68BD1DC0A6
:10140000213019F0223041F00DC085B5806485BDD2
:1014100085B5886085BD06C085B5806485BD85B508
:10142000877F85BD20E030E04FE753E4C701B60178
:101430000E9451180E94941763BD8C2F0E94560978
:1014400080E003C087E001C086E0CF91FF90EF907D
:10145000DF90CF900895282F8430C0F5CB01BA01DA
:10146000213089F028F02230D1F0233021F130C032
:1014700020E030E04FE753E40E9451180E94941797
:101480006CBF80E0089520E030E44CE956E40E940F
:1014900051180E9494177BBD6ABD80E0089520E03A
:1014A00030E44CE956E40E9451180E94941779BD2B
:1014B00068BD80E0089520E030E04FE753E40E94EB
:1014C00051180E94941763BD80E0089587E0089545
:1014D00080E00895611526E972078105910509F4F8
:1014E00072C058F5603825E272078105910509F44C
:1014F0005EC070F4603629E072078105910509F439
:101500004EC0603C72418105910509F44DC082C016
:1015100061152BE472078105910509F44EC060380E
:1015200020E772078105910509F44AC060347843C9
:101530008105910509F06EC03DC0611524E8720770
:1015400023E08207910509F44AC0A8F461152CE252
:10155000720721E082079105E1F1611522EC720723
:1015600021E082079105C1F16115714E8105910558
:1015700009F050C02BC0603221EA720727E08207D1
:10158000910599F1603422E472072FE082079105FA
:1015900079F16039704D83409105E1F523C081E018
:1015A00080BD80EA89B925C08FEC89B922C087E661
:1015B00089B91FC084E489B91CC083E389B919C003
:1015C00082E289B916C089E189B913C080E189B97D
:1015D00010C08CE089B90DC088E089B90AC083E0E9
:1015E00089B907C083E089B904C081E089B901C025
:1015F00019B88AB188608AB98AB180618AB980B520
:10160000806880BD80B5826080BD80B5846080BD0B
:1016100080E0089581E008955D9BFECF8CB95E9BCC
:10162000FECF0895CF92DF92EF92FF92CF93DF9398
:10163000EC01C12CD12C760107C00E940C0B8FEF5E
:10164000C81AD80AE80AF80AFE01EC0DFD1D8081CF
:101650008111F3CF0E940C0BDF91CF91FF90EF909F
:10166000DF90CF9008950E945A0480E00E946D049C
:10167000089584EB0E946D04089580E00E946D043B
:10168000089562E083E40E94260463E083E40E94FC
:10169000260464E083E40E94260465E083E40E945B
:1016A000260466E083E40E94260467E084E40E9446
:1016B000260421E040E050E0BA0183E00E94840962
:1016C00060E071E082E00E94140908958330B1F077
:1016D00028F4813049F0823061F008958530C1F0FE
:1016E00090F08630D1F0089562E083E40E942F04E8
:1016F000089563E083E40E942F04089564E083E486
:101700000E942F04089565E083E40E942F04089549
:1017100066E083E40E942F04089583E00E94560946
:1017200008958330B1F028F4813049F0823061F0BF
:1017300008958530C1F090F08630D1F0089562E0D0
:1017400083E40E943804089563E083E40E9438042F
:10175000089564E083E40E943804089565E083E41A
:101760000E943804089566E083E40E9438040895D6
:1017700083E00E94280908958330B1F028F4813075
:1017800049F0823061F008958530C1F090F08630E4
:10179000D1F0089562E083E40E944104089563E07B
:1017A00083E40E944104089564E083E40E944104BC
:1017B000089565E083E40E944104089566E083E4AF
:1017C0000E944104089505B405FE04C086E00E940D
:1017D000910B089586E00E94660B0895AB01BC0151
:1017E00083E00E942B0A08950E94AF030E94290201
:1017F0000E9466140895CF93C0E00AC04C2F50E0B9
:101800004552584F63E482E08C0F0E942006CF5F60
:10181000C530A0F385B585FB882780F98093E00764
:1018200041EE57E064E487E00E94200683B590E033
:101830009093D9078093D807CF91089590E0FC0149
:101840003197EA30F10508F049C0EE57FF4F0C948C
:10185000BE1840E750E061E080E00E941B0408955C
:1018600041E850E061E080E00E941B04089542E9F5
:1018700050E061E080E00E941B04089543EA50E0DC
:1018800061E080E00E941B04089544EB50E061E0B9
:1018900080E00E941B04089545EC50E061E080E088
:1018A0000E941B04089546ED50E061E080E00E9434
:1018B0001B04089547EE50E061E080E00E941B04A5
:1018C000089548EF50E061E080E00E941B04089515
:1018D00049E051E061E080E00E941B0408954AE184
:1018E00051E060E08CE00E941B044FE151E061E0B8
:1018F0008CE00E941B040895EF92FF921F93CF93F8
:10190000DF9300D000D0CDB7DEB7182F0E94AB0315
:10191000173039F444E251E060E080E00E941B049B
:101920000EC049E251E060E080E00E941B0480E3C9
:10193000810F0E9479038EE291E00E94EF0316303E
:1019400049F56091D8077091D907072E000C880BD4
:10195000990B0E94C51723E333E343E250E40E944E
:101960001B170E9494171F926F9382E391E09F933D
:101970008F93CE0101967C019F938F930E94D41880
:10198000C7010E94EF030F900F900F900F900F90E0
:101990000F9010C0E12FF0E0E652F84F80818823CD
:1019A00029F087E391E00E94EF0304C08AE391E00D
:1019B0000E94EF03113019F0173029F008C083E0BE
:1019C0000E941E0C07C082E00E941E0C03C081E032
:1019D0000E941E0C0F900F900F900F90DF91CF91EF
:1019E0001F91FF90EF900895EF92FF921F93CF9376
:1019F000DF9300D000D0CDB7DEB7182F0E94AB0325
:101A000049E251E060E080E00E941B0480E3810F26
:101A10000E9479038EE291E00E94EF03163088F471
:101A2000E12FF0E0E652F84F8081882329F087E328
:101A300091E00E94EF0338C08AE391E00E94EF0337
:101A400033C0163049F56091D8077091D907072E39
:101A5000000C880B990B0E94C51723E333E343E284
:101A600050E40E941B170E9494171F926F9382E309
:101A700091E09F938F93CE0101967C019F938F936A
:101A80000E94D418C7010E94EF030F900F900F908F
:101A90000F900F900F9008C00E94AB034EE351E0EF
:101AA00060E084E00E941B04163081F0173091F052
:101AB0001130A1F48091DB07882321F088E00E9497
:101AC0001E0C1AC087E00E941E0C16C089E00E94FE
:101AD0001E0C12C08AE00E941E0C0EC0E12FF0E026
:101AE000E652F84F8081882321F086E00E941E0C88
:101AF00003C085E00E941E0C0F900F900F900F9076
:101B0000DF91CF911F91FF90EF9008958091AA07E8
:101B10008F5F8093AA07833000F50E94AB0360E0DB
:101B200083E00E940E049091AA0783E3891B0E9420
:101B3000790387E491E00E94EF0341E551E061E021
:101B400083E00E941B042FEF83ED90E3215080403F
:101B50009040E1F700C0000008950E94AB034DE5FE
:101B600051E060E084E00E941B0446E651E061E041
:101B700080E00E941B042FEF83ED90E32150804012
:101B80009040E1F700C000000E94AB0346E751E03F
:101B900060E083E00E941B0441E851E061E082E0E4
:101BA0000E941B041092A90708951F93CF93DF93FF
:101BB0001F92CDB7DEB7CE0101960E94D702182F33
:101BC0008091AB078130A9F120F0823009F448C13F
:101BD00030C20E94FB0B8091E407811108C081E0B4
:101BE0000E947C0C8091E4078F5F8093E4071230A1
:101BF00009F41FC28981823361F0833371F081332C
:101C000099F48091E407823078F081508093E40762
:101C10000BC081E08093AB0707C08091E407873059
:101C200018F48F5F8093E4078091E4070E947C0C96
:101C300000C28091E307882321F0813009F473C04A
:101C4000F8C18091E207811113C00E94AB030E948A
:101C50006F0C4FE851E060E080E00E941B0461E0FF
:101C600080E00E940E0481E08093E2071092AC07AE
:101C7000123009F4DEC189818D32A1F48091AC0764
:101C8000882319F081508093AC0740E351E061E074
:101C90008091AC070E941B0461E08091AC070E9418
:101CA0000E04C7C18D3339F5E091AC07F0E0E35382
:101CB000F84F10826DEA77E08DEC97E00E940315F3
:101CC000823031F41092E20781E08093E307B1C1E2
:101CD0000E94AB034AE951E060E085E00E941B04EA
:101CE00040EA51E061E082E00E941B040E94860D00
:101CF0001092E2079EC190ED980F9A3008F099C1BA
:101D00009091AC07963008F094C10E9479038091BD
:101D1000AC07E82FF0E0E353F84F998190838F5F91
:101D20008093AC0786C18091E207811113C00E94A5
:101D3000AB030E946F0C4CEA51E060E080E00E942F
:101D40001B0461E080E00E940E0481E08093E207C2
:101D50001092AC0789818D32A1F48091AC07882361
:101D600019F081508093AC0740E351E061E080912D
:101D7000AC070E941B0461E08091AC070E940E0436
:101D800058C18D3309F054C0E091AC07F0E0E35343
:101D9000F84F108262EC77E08DEC97E00E94C41857
:101DA000892B99F51092E2071092E30782E0809365
:101DB000AB0781E08093A6070E94AB0346EB51E09E
:101DC00060E084E00E941B04EEEAF7E0019000204E
:101DD000E9F79F012F5A374080E190E0821B930B77
:101DE000969587954EEA57E061E081500E941B046A
:101DF00081E20E9479032FEF83ED90E32150804030
:101E00009040E1F700C0000014C10E94AB034AE912
:101E100051E060E085E00E941B044EEB51E061E080
:101E200083E00E941B041092E2070E94860D01C10C
:101E300090ED980F9A3008F0FCC09091AC079A3062
:101E400008F0F7C00E9479038091AC07E82FF0E01A
:101E5000E353F84F998190838F5F8093AC07E9C07B
:101E60008091A807882399F08091A70781110FC05E
:101E70000E94AB0349EC51E060E080E00E941B044B
:101E80004AED51E061E083E00E941B04D2C00E9451
:101E9000FB0B8091DA07811108C081E00E94F40CED
:101EA0008091DA078F5F8093DA07123009F4C1C09E
:101EB00089818233A1F018F4813341F0B6C08333B5
:101EC00009F473C0843309F4A9C0AFC08091DA0764
:101ED000823008F4AAC081508093DA07A6C08091AE
:101EE000DA07863019F08730A1F153C06091D80726
:101EF0007091D907072E000C880B990B0E94C5170B
:101F000020E030E04CE452E40E94AF160E948D17AE
:101F10007093D9076093D8076F3F710539F034F09B
:101F20008FEF90E09093D9078093D8076091D807FE
:101F30007091D907072E000C880B990B0E94C517CA
:101F400020E030E04FE753E40E941B170E94EE0BA5
:101F50006CC01092A6071092DA071092E407109254
:101F6000AB070E94AB0345EE51E060E081E00E94C8
:101F70001B0444EF51E061E084E00E941B042FEF5A
:101F800083ED90E3215080409040E1F700C00000D5
:101F90004CC00E94BC0BE091DA07F0E0E652F84F2B
:101FA000908181E08927808340C08091DA07863064
:101FB00079F56091D8077091D907072E000C880B2E
:101FC000990B0E94C51720E030E04CE452E40E94D7
:101FD000AE160E948D177093D9076093D8077723A8
:101FE00024F41092D9071092D8076091D807709105
:101FF000D907072E000C880B990B0E94C51720E00B
:1020000030E04FE753E40E941B170E94EE0B0DC017
:10201000873058F48F5F8093DA0707C08091DA0722
:10202000863019F48F5F8093DA078091DA070E9477
:10203000F40C0F90DF91CF911F910895CF92DF9212
:10204000EF92FF926B017C010E946614C701B601FA
:102050000E940F0283E00E941E070E944007FF902B
:10206000EF90DF90CF9008950E9426028EEF91E0CE
:102070000E94260208950E9426020895E0915908C0
:10208000F0915A080995089590935A088093590839
:10209000609336084093E6070895AB0163E48E5FD2
:1020A0000E942006089581E092E00E94341082E3AD
:1020B00092E00E9434108DE392E00E94341088E494
:1020C00092E00E94341083E592E00E9434108EE585
:1020D00092E00E94341089E692E00E9434108091D0
:1020E000E707882349F08FE792E00E9434108CE8DC
:1020F00092E00E943410089585EA92E00E94341024
:1021000008958091E7078823E9F08EEB92E00E9422
:1021100034108CEF92E00E9434108AE093E00E9429
:1021200034108BE193E00E94341081E393E00E942D
:1021300034108091A607882389F08EE393E00E94F3
:10214000341008958EEB92E00E9434108CE593E0F9
:102150000E94341082E793E00E943410089581E0D9
:102160008093A70708951092A8078FE793E00E9435
:10217000341087EC93E00E943410109236080895D2
:1021800080915B0881110CC00E94811041E062E0E7
:1021900080EC90E10E94441081E080935B080895F8
:1021A00010925B088091E707882349F18091270806
:1021B0009FEC980F953038F08BEE93E00E9434102E
:1021C0000E94C0100895833389F028F4813341F0D0
:1021D000823349F00895843361F0853369F00895BE
:1021E0000E948B1208950E94171108950E944311B6
:1021F00008950E94B31008950E94AF100895809131
:1022000027089FEC980F923038F08BEE93E00E94F5
:1022100034100E94C0100895813319F0823321F0E8
:1022200008950E94431108950E94B310089580916B
:102230005B0881110EC08CEF93E00E943B1040E0E0
:102240006DE087E191E10E94441081E080935B089A
:10225000089510925B0867E078E087E298E00E94BA
:102260006A14833029F481E394E00E94341008C09A
:1022700087E098E00E943B1687E694E00E943410C5
:102280000E94C01008950F931F93CF93DF931F9266
:10229000CDB7DEB780915B0881110CC00E9453104E
:1022A00041E062E083E491E10E94441081E0809388
:1022B0005B084BC010925B08109127088091E707DC
:1022C000811102C0183320F4113310F0193338F0A3
:1022D0008BEE93E00E9434100E94431136C0BE0181
:1022E0006F5F7F4F00ED010F802F0E944D10009314
:1022F0003808173379F01833F9F0163301F580E90F
:1023000094E00E943B1041E062E08BEA91E10E9480
:1023100044101BC08091E707882359F081ED94E0B9
:102320000E94341041E062E08BEA91E10E94441087
:102330000CC00E94C01009C00E94C01006C040E03E
:1023400062E08BEA91E10E9444100F90DF91CF91FF
:102350001F910F9108956091270880913808863069
:1023600019F08730D9F033C060536A3028F08EEF0F
:1023700094E00E94341037C070E080E090E00E944A
:10238000C31720E030E040E151E40E941B170E9497
:10239000EE0B81E195E00E94341025C080ED860FA0
:1023A000823028F08EEF94E00E9434101CC060331D
:1023B00039F40E943D0B83E395E00E94341013C072
:1023C0000E94390B8BE495E00E9434100CC06935F3
:1023D00051F0693741F06E3631F06E3421F08EEFF6
:1023E00094E00E9434100E944311089580915B088C
:1023F00081110EC081E695E00E94341040E062E059
:1024000086EF91E10E94441081E080935B0808957B
:1024100010925B0880912708893721F0893521F4D3
:1024200081E003C081E001C080E08093390889E346
:1024300098E00E94001683E995E00E9434100E9403
:10244000C010089580915B0881110EC085EB95E066
:102450000E94341041E06BE082E292E10E9444105D
:1024600081E080935B08089510925B08E7E2F8E052
:1024700001900020E9F73197E752F840349738F49B
:1024800080E296E00E9434100E942212089567E2D2
:1024900078E08EE498E00E94CD180E94F61108952D
:1024A00080915B0881110EC086E396E00E943B108C
:1024B00041E067E080E592E10E94441081E0809372
:1024C0005B08089510925B08E7E2F8E001900020B5
:1024D000E9F7EE52F84039F083E796E00E943410B5
:1024E0000E945012089567E078E087E298E00E9429
:1024F0000315833049F467E278E087E498E00E94AE
:10250000CD180E942212089588E896E00E943410A7
:102510000E945012089580915B0881110EC088EAD4
:1025200096E00E943B1040E06DE08BE892E10E9453
:10253000441081E080935B08089510925B0867E087
:1025400078E087E298E00E946A14833049F467E2F9
:1025500078E08AE398E00E94CD180E945012089516
:1025600084EC96E00E9434100E94C01008950F93EE
:102570001F93CF93DF93CDB7DEB7E2970FB6F894F2
:10258000DEBF0FBECDBF8091AA078F5F8093AA07E1
:102590008330E8F423E030E0A901481B5109CA0167
:1025A0009F934F938FED96E09F938F938E010F5FD4
:1025B0001F4F1F930F930E94D418C8010E9434101C
:1025C0000F900F900F900F900F900F900FC084E31B
:1025D000EFE0F7E0DE01119601900D928A95E1F7A8
:1025E000CE0101960E9434101092A907E2960FB610
:1025F000F894DEBF0FBECDBFDF91CF911F910F9139
:10260000089580915B0881110EC083E497E00E94D9
:102610003B1041E06BE081E093E10E94441081E0D7
:1026200080935B08089510925B0867E278E08CEF76
:1026300097E00E94C418892B49F089E597E00E9431
:1026400034100E94B7120E940113089581E0809314
:10265000A80789E697E00E943B1088EE97E00E9469
:102660003B1083EE91E00E9434100E94C010089548
:1026700080915B0881110EC082E797E00E943B10B9
:1026800040E06DE088E393E10E94441081E0809394
:102690005B08089567EE77E087E298E00E946A148D
:1026A00010925B08833049F489E897E00E94341067
:1026B0000E94B7120E94381308950E9401130895D2
:1026C0008DE997E00E9434100E94381308951F92FC
:1026D0000F920FB60F9211242F933F934F935F9356
:1026E0006F937F938F939F93AF93BF93EF93FF93DA
:1026F0008CB18093370890913608992309F45BC018
:102700009091E607992359F090ED980F9A3038F0A0
:10271000883029F08D3019F08A3009F04CC08830AB
:1027200059F49091E507992309F445C0915090938D
:10273000E5070E9423023FC09091E507E92FF0E0F2
:10274000E95DF74F80839F5F9093E507913039F4FF
:10275000909127089D3019F41092E5072CC08D3018
:1027600011F00E9423028091E507909136088913A9
:102770000DC0E82FF0E0EA5DF74F90819D3031F019
:1027800081508093E50788E00E94230280913708FA
:102790008D3089F4E091E507809136088E1758F066
:1027A000F0E0EA5DF74F10828DE00E9423020E9464
:1027B0003E101092E507FF91EF91BF91AF919F916D
:1027C0008F917F916F915F914F913F912F910F90DA
:1027D0000FBE0F901F9018951F920F920FB60F9279
:1027E00011242F933F934F935F936F937F938F9316
:1027F0009F93AF93BF93EF93FF930E946013FF915A
:10280000EF91BF91AF919F918F917F916F915F9168
:102810004F913F912F910F900FBE0F901F901895E1
:1028200064E087E00E94490441E063E487E00E949D
:10283000EC040E943B0760E070E080E00E94D20858
:1028400060E074E080E00E94140908951F920F92E6
:102850000FB60F9211242F933F934F935F936F9373
:102860007F938F939F93AF93BF93CF93DF93EF9318
:10287000FF9384B1C5B1D0E0DC2FCC27C80FD11DA8
:10288000C137D10528F041E063E487E00E94860566
:10289000C435D10528F440E063E487E00E94860552
:1028A00088B7816088BFFF91EF91DF91CF91BF9191
:1028B000AF919F918F917F916F915F914F913F91D8
:1028C0002F910F900FBE0F901F9018950E94E1005E
:1028D00088E008959F92AF92BF92CF92DF92EF92DD
:1028E000FF920F931F93CF93DF93CDB7DEB76D9712
:1028F0000FB6F894DEBF0FBECDBF7C016B01912CEB
:102900006BC0AE014F5F5F4F60E0892D0E94E40015
:10291000AE014E5F5F4F61E0892D0E94E400B12C53
:1029200056C0898190E00B2C02C0959587950A943A
:10293000E2F780FF4BC06FE1B69EA02C112468E047
:102940006A0D9E012D5F3F4F4DE050E0892D0E94A2
:102950000501BE016D5F7F4FC7010E94C418892B1E
:10296000A9F565E16A0D9E01205F3F4F47E050E009
:10297000892D0E9405016CE16A0D9E01295E3F4F81
:1029800047E050E0892D0E9405018A8190E002C055
:1029900095958795BA94E2F7982F9170F6019193E7
:1029A000BE016D5F7F4FCF010E94CD18BE01605FF9
:1029B0007F4FC6010E960E94CD18BE01695E7F4F03
:1029C000C60145960E94CD1882E00BC0B39487E003
:1029D0008B1508F0A6CF939487E0891508F091CF66
:1029E00083E06D960FB6F894DEBF0FBECDBFDF91CA
:1029F000CF911F910F91FF90EF90DF90CF90BF90FC
:102A0000AF909F9008959F92AF92BF92CF92DF9226
:102A1000EF92FF920F931F93CF93DF93CDB7DEB763
:102A20006D970FB6F894DEBF0FBECDBF7C016B0172
:102A3000912C6BC0AE014F5F5F4F60E0892D0E940B
:102A4000E400AE014E5F5F4F61E0892D0E94E4001B
:102A5000B12C56C0898190E00B2C02C095958795CA
:102A60000A94E2F780FF4BC06FE1B69EA02C1124C0
:102A700065E16A0D9E01205F3F4F47E050E0892DE0
:102A80000E940501BE01605F7F4FC7010E94C4180C
:102A9000892BA9F568E06A0D9E012D5F3F4F4DE03F
:102AA00050E0892D0E9405016CE16A0D9E01295EAE
:102AB0003F4F47E050E0892D0E9405018A8190E058
:102AC00002C095958795BA94E2F7982F9170F60118
:102AD0009193BE016D5F7F4FCF010E94CD18BE0163
:102AE000605F7F4FC6010E960E94CD18BE01695EE1
:102AF0007F4FC60145960E94CD1882E00BC0B3946B
:102B000087E08B1508F0A6CF939487E0891508F02D
:102B100091CF83E06D960FB6F894DEBF0FBECDBFA8
:102B2000DF91CF911F910F91FF90EF90DF90CF90A9
:102B3000BF90AF909F900895EF92FF920F931F93D5
:102B4000CF93DF9300D0CDB7DEB77B01082F06957A
:102B500006950695182F1770AE014F5F5F4F60E026
:102B6000802F0E94E400AE014E5F5F4F61E0802F36
:102B70000E94E40081E090E0012E02C0880F991FBE
:102B80000A94E2F74981482B4983F70120812223E7
:102B900019F09A81892B8A8360E0802F0E943B0183
:102BA0004A8161E0802F0E943B0197012F5F3F4FD8
:102BB0006FE1169F102D112468E0610F4DE050E089
:102BC000802F0E945A019701225F3F4F65E1610FFC
:102BD00047E050E0802F0E945A0197012B5E3F4F43
:102BE0006CE1610F4BE050E0802F0E945A010F9082
:102BF0000F90DF91CF911F910F91FF90EF9008956B
:102C0000EF92FF921F93CF93DF931F92CDB7DEB762
:102C10007C0110E01AC0AE014F5F5F4F60E0812F72
:102C20000E94E40099819F3F79F002C08F5F01C04C
:102C300080E0292F30E0082E02C0359527950A94B0
:102C4000E2F720FDF3CF04C01F5F183020F380E0CF
:102C5000183049F0110F110F110FB701810F0E94A9
:102C60009C158AE001C08CE00F90DF91CF911F91FD
:102C7000FF90EF900895CF92DF92EF92FF920F9323
:102C80001F93CF93DF93CDB7DEB729970FB6F89494
:102C9000DEBF0FBECDBF6C0100E04DC0AE014F5F87
:102CA0005F4F60E0802F0E94E400AE014E5F5F4FF7
:102CB00061E0802F0E94E40010E03AC0898190E03A
:102CC000012E02C0959587950A94E2F780FF2FC0E8
:102CD0006FE1169F602D11246B5E9E012D5F3F4FAB
:102CE00047E050E0802F0E940501BE016D5F7F4FDD
:102CF000C6010E960E94C418892BC9F481E090E0A9
:102D000002C0880F991F1A95E2F7809549814823E0
:102D100049839A8189238A8360E0802F0E943B0146
:102D20004A8161E0802F0E943B018BE008C01F5F59
:102D3000183020F20F5F083008F4B0CF83E02996F6
:102D40000FB6F894DEBF0FBECDBFDF91CF911F91BC
:102D50000F91FF90EF90DF90CF9008955058BB27D0
:102D6000AA270E94C6160C9417180E94091838F05A
:102D70000E94101820F039F49F3F19F426F40C94A7
:102D800006180EF4E095E7FB0C940018E92F0E945A
:102D9000281858F3BA17620773078407950720F0BD
:102DA00079F4A6F50C944A180EF4E0950B2EBA2F80
:102DB000A02D0B01B90190010C01CA01A001112441
:102DC000FF27591B99F0593F50F4503E68F11A16ED
:102DD000F040A22F232F342F4427585FF3CF46957E
:102DE00037952795A795F0405395C9F77EF41F16A0
:102DF000BA0B620B730B840BBAF09150A1F0FF0F6A
:102E0000BB1F661F771F881FC2F70EC0BA0F621F55
:102E1000731F841F48F4879577956795B795F79545
:102E20009E3F08F0B0CF9395880F08F09927EE0FDA
:102E30009795879508950E942F170C9417180E9454
:102E4000101858F00E94091840F029F45F3F29F04B
:102E50000C94001851110C944B180C9406180E94F5
:102E6000281868F39923B1F3552391F3951B550B5B
:102E7000BB27AA2762177307840738F09F5F5F4F4D
:102E8000220F331F441FAA1FA9F335D00E2E3AF08C
:102E9000E0E832D091505040E695001CCAF72BD0A4
:102EA000FE2F29D0660F771F881FBB1F26173707F5
:102EB0004807AB07B0E809F0BB0B802DBF01FF2727
:102EC00093585F4F3AF09E3F510578F00C940018EC
:102ED0000C944B185F3FE4F3983ED4F386957795B6
:102EE0006795B795F7959F5FC9F7880F911D9695E0
:102EF000879597F90895E1E0660F771F881FBB1F3C
:102F0000621773078407BA0720F0621B730B840BE8
:102F1000BA0BEE1F88F7E09508950E949417689405
:102F2000B1110C944B1808950E94301888F09F57E7
:102F300098F0B92F9927B751B0F0E1F0660F771FDD
:102F4000881F991F1AF0BA95C9F714C0B13091F0D3
:102F50000E944A18B1E008950C944A18672F782F00
:102F60008827B85F39F0B93FCCF386957795679598
:102F7000B395D9F73EF490958095709561957F4F04
:102F80008F4F9F4F0895E89409C097FB3EF49095AA
:102F90008095709561957F4F8F4F9F4F9923A9F032
:102FA000F92F96E9BB279395F695879577956795C1
:102FB000B795F111F8CFFAF4BB0F11F460FF1BC005
:102FC0006F5F7F4F8F4F9F4F16C0882311F096E998
:102FD00011C0772321F09EE8872F762F05C0662346
:102FE00071F096E8862F70E060E02AF09A95660FFF
:102FF000771F881FDAF7880F9695879597F90895B8
:1030000097F99F6780E870E060E008959FEF80EC9B
:10301000089500240A94161617061806090608953E
:1030200000240A9412161306140605060895092EA4
:103030000394000C11F4882352F0BB0F40F4BF2B13
:1030400011F460FF04C06F5F7F4F8F4F9F4F089553
:1030500057FD9058440F551F59F05F3F71F0479549
:10306000880F97FB991F61F09F3F79F0879508952E
:10307000121613061406551FF2CF4695F1DF08C04D
:10308000161617061806991FF1CF8695710561056A
:1030900008940895E894BB2766277727CB0197F912
:1030A00008950E9464180C9417180E94091838F0AB
:1030B0000E94101820F0952311F00C9400180C9425
:1030C000061811240C944B180E94281870F3959F31
:1030D000C1F3950F50E0551F629FF001729FBB270F
:1030E000F00DB11D639FAA27F00DB11DAA1F649FAB
:1030F0006627B00DA11D661F829F2227B00DA11D5E
:10310000621F739FB00DA11D621F839FA00D611DE3
:10311000221F749F3327A00D611D231F849F600D04
:10312000211D822F762F6A2F11249F5750409AF02D
:10313000F1F088234AF0EE0FFF1FBB1F661F771FB9
:10314000881F91505040A9F79E3F510580F00C9484
:1031500000180C944B185F3FE4F3983ED4F3869527
:1031600077956795B795F795E7959F5FC1F7FE2B24
:10317000880F911D9695879597F90895EE0FFF1F7B
:103180000590F491E02D0994FB01DC018D910190F3
:1031900080190110D9F3990B0895FB01DC0101900E
:1031A0000D920020E1F70895AEE0B0E0EAEDF8E11D
:1031B0000C94951B0D891E8986E08C831A830983E4
:1031C0008FEF9FE79E838D83AE01475E5F4F6F89D0
:1031D000788DCE0101960E94F618EF81F885E00FF8
:1031E000F11F10822E96E4E00C94B11BABE0B0E02E
:1031F000ECEFF8E10C94871B6C017B018A01FC0168
:1032000017821682838181FFCCC1CE0101963C01D9
:10321000F6019381F70193FD859193FF81917F01E1
:10322000882309F4BAC1853239F493FD859193FF5F
:1032300081917F01853229F4B60190E00E94ED1A58
:10324000E7CF912C212C312CFFE1F315D8F08B32F4
:1032500079F038F4803279F08332A1F4232D2061A3
:103260001DC08D3261F0803369F4232D216016C0BA
:10327000832D8260382EE32DE4603E2E2AC0F32D8C
:10328000F8601DC037FC2DC020ED280F2A3040F01B
:103290008E32B9F436FC81C1232D2064322E19C040
:1032A00036FE06C08AE0989E200D1124922E11C091
:1032B000EAE02E9E200D1124222EF32DF0623F2EE7
:1032C00008C08C3621F4832D8068382E02C08836E1
:1032D00041F4F70193FD859193FF81917F01811165
:1032E000B3CF982F9F7D9554933028F40C5F1F4FD8
:1032F0009FE399830DC0833631F0833771F08335B6
:1033000009F059C021C0F801808189830E5F1F4FE9
:1033100088248394912C530113C02801F2E04F0EAE
:10332000511CF801A080B18036FE03C0692D70E009
:1033300002C06FEF7FEFC5010E94E21A4C018201CB
:10334000F32DFF773F2E16C0280122E0420E511CBC
:10335000F801A080B18036FE03C0692D70E002C084
:103360006FEF7FEFC5010E94D71A4C01F32DF06873
:103370003F2E820133FC1BC0822D90E088169906F7
:10338000B0F4B60180E290E00E94ED1A2A94F4CFE6
:10339000F50137FC859137FE81915F01B60190E020
:1033A0000E94ED1A21102A9421E0821A91088114BA
:1033B000910471F7E8C0843611F0893641F5F801BF
:1033C00037FE07C060817181828193810C5F1F4F3E
:1033D00008C060817181072E000C880B990B0E5F6D
:1033E0001F4FF32DFF763F2E97FF09C090958095D4
:1033F000709561957F4F8F4F9F4FF0683F2E2AE069
:1034000030E0A3010E94291B882E861845C085370D
:1034100031F4232D2F7EB22E2AE030E025C0932DEB
:10342000997FB92E8F36C1F018F4883579F0B5C080
:10343000803719F0883721F0B0C0E92FE061BE2E47
:10344000B4FE0DC0FB2DF460BF2E09C034FE0AC0CF
:10345000292F2660B22E06C028E030E005C020E10A
:1034600030E002C020E132E0F801B7FE07C0608121
:103470007181828193810C5F1F4F06C060817181D1
:1034800080E090E00E5F1F4FA3010E94291B882E51
:103490008618FB2DFF773F2E36FE0DC0232D2E7F85
:1034A000A22E891458F434FE0BC032FC09C0832DBF
:1034B0008E7EA82E05C0B82CA32C03C0B82C01C04A
:1034C000B92CA4FE0FC0FE01E80DF11D80818033F0
:1034D00021F49A2D997EA92E09C0A2FE06C0B394AC
:1034E000B39404C08A2D867809F0B394A3FC11C06C
:1034F000A0FE06C0B21488F4280C922C9B180EC0B3
:10350000B21460F4B60180E290E00E94ED1AB39428
:10351000F7CFB21418F42B1802C0982C212CA4FE5B
:1035200010C0B60180E390E00E94ED1AA2FE17C021
:10353000A1FC03C088E790E002C088E590E0B601F6
:103540000CC08A2D867859F0A1FE02C08BE201C022
:1035500080E2A7FC8DE2B60190E00E94ED1A89148A
:1035600038F4B60180E390E00E94ED1A9A94F7CF08
:103570008A94F301E80DF11D8081B60190E00E946C
:10358000ED1A8110F5CF222009F442CEB60180E277
:1035900090E00E94ED1A2A94F6CFF6018681978179
:1035A00002C08FEF9FEF2B96E2E10C94A31BFC016E
:1035B0000590615070400110D8F7809590958E0F5E
:1035C0009F1F0895FC016150704001900110D8F7D1
:1035D000809590958E0F9F1F08950F931F93CF9303
:1035E000DF93FB01238121FD03C08FEF9FEF2CC0F0
:1035F00022FF16C046815781248135814217530727
:1036000044F4A081B1819D012F5F3F4F318320831E
:103610008C93268137812F5F3F4F3783268314C0D9
:103620008B01EC01FB010084F185E02D0995892BCC
:10363000E1F6D80116968D919C91179701961796F1
:103640009C938E931697CE01DF91CF911F910F918E
:103650000895FA01AA27283051F1203181F1E89428
:103660006F936E7F6E5F7F4F8F4F9F4FAF4FB1E075
:103670003ED0B4E03CD0670F781F891F9A1FA11D70
:10368000680F791F8A1F911DA11D6A0F711D811D71
:10369000911DA11D20D009F468943F912AE0269F36
:1036A00011243019305D3193DEF6CF010895462F95
:1036B0004770405D4193B3E00FD0C9F7F6CF462F76
:1036C0004F70405D4A3318F0495D31FD40524193DF
:1036D00002D0A9F7EACFB4E0A6959795879577959C
:1036E0006795BA95C9F700976105710508959B0123
:1036F000AC010A2E06945795479537952795BA95AC
:10370000C9F7620F731F841F951FA01D08952F9284
:103710003F924F925F926F927F928F929F92AF9261
:10372000BF92CF92DF92EF92FF920F931F93CF93AE
:10373000DF93CDB7DEB7CA1BDB0B0FB6F894DEBF45
:103740000FBECDBF09942A88398848885F846E846B
:103750007D848C849B84AA84B984C884DF80EE80B5
:10376000FD800C811B81AA81B981CE0FD11D0FB6BE
:10377000F894DEBF0FBECDBFED010895F894FFCFE2
:103780003738392F3435362A3132332D23303D2B1B
:1037900031297F2032294C6F67696E202033297EC2
:1037A0000031297F202020202032294C6F67696E4C
:1037B000200032294C6F67696E20202020202033A2
:1037C000297E0031297F203229546F67676C65207C
:1037D00033297E0031297F20202032294F6E20207E
:1037E0002033297E0031297F202032294F66662030
:1037F000202033297E0032294F6E202020202020D7
:1038000020202033297E0032294F66662020202088
:103810002020202033297E0031297F2032292B20AF
:103820002033292D2034297E0031297F202020209B
:1038300032294C6F67206F7574002D293C58003D6C
:10384000294F6B0041433A20004C616D70003A20D3
:10385000200025642525004F6E004F6666004C6FE2
:1038600067206F75743F0020617474656D707473A8
:103870000072656D61696E696E67202100546F6F1B
:10388000206D616E790077726F6E67206174746568
:103890006D70747321002D2053797374656D202D24
:1038A000002D2053757370656E646564202D00557E
:1038B00073657220436F64653A0057726F6E6700DC
:1038C0005573657220436F646520210050617373E6
:1038D000776F72643A0057656C636F6D6500506175
:1038E0007373776F726420210041646D696E20509C
:1038F00065726D697373696F6E0052657175697277
:1039000065642021006C6F6767696E67206F75744E
:103910002E2E2E00476F6F642042796521000D0A1C
:103920000053656C656374206F6E65206F6620744C
:10393000686520666F6C6C6F77696E67206465766A
:103940006963657320746F20636F6E74726F6C3A75
:1039500009005B315D204C616D702031005B325D90
:10396000204C616D702032005B335D204C616D70C6
:103970002033005B345D204C616D702034005B357A
:103980005D204C616D702035005B365D204C616DB3
:10399000702036202864696D6D61626C6529005B5A
:1039A000375D2054686520446F6F72005B385D207E
:1039B000476F206261636B20746F206D61696E20B8
:1039C0006D656E75005B375D20476F206261636BCC
:1039D00020746F206D61696E206D656E7500536592
:1039E0006C656374206F6E65206F66207468652057
:1039F000666F6C6C6F77696E67206F7074696F6E3D
:103A00007328627920656E746572696E67206974C7
:103A100073206E756D626572293A09005B315D2015
:103A2000416464207573657209005B325D204465F2
:103A30006C657465207573657209005B335D2043A6
:103A40006F6E74726F6C20612064657669636509BE
:103A5000005B345D204C6F67206F757409005B3527
:103A60005D20416C6C6F77206C6F63616C207573A7
:103A7000657220636F6E74726F6C09005B315D203C
:103A8000436F6E74726F6C20612064657669636544
:103A900009005B325D204C6F67206F75740900541C
:103AA0006F206C6F67696E20616761696E20796F46
:103AB00075206861766520746F20646973636F6E2A
:103AC0006E65637420616E64207265636F6E6E65EF
:103AD000637420746F20746865204254206D6F6495
:103AE000756C652E2E2E00596F75206861766520E5
:103AF0007375636365737366756C6C79206C6F673F
:103B0000676564206F75742E2E2E00496E76616C89
:103B10006964206F7074696F6E210900456E746569
:103B200072207468652075736572206E616D652002
:103B30006F6620746865207573657220796F7520D3
:103B400077616E7420746F2064656C6574653A20CB
:103B5000000D4572726F72212055736572206E6F71
:103B60007420666F756E642E2052657475726E696E
:103B70006E6720746F20746865206D61696E206DBA
:103B8000656E752E2E2E0054686520757365722043
:103B9000686173206265656E2064656C6574656438
:103BA000207375636365737366756C6C79210900A6
:103BB000456E746572207468652062726967687406
:103BC0006E657373206C6576656C20666F72207409
:103BD0006865206C616D702866726F6D2030286F8B
:103BE00066662920746F2039286D617829293A206A
:103BF00000456E746572203120746F206F70656EA1
:103C00002074686520646F6F7220616E64203020BC
:103C1000746F20636C6F73652069743A20000D0A1D
:103C2000496E76616C696420696E70757421210932
:103C300000546865206272696768746E65737320EA
:103C4000686173206265656E2061646A757374656E
:103C500064210054686520446F6F7220697320638B
:103C60006C6F736564206E6F772E00546865204416
:103C70006F6F72206973206F70656E206E6F772E84
:103C800000446F20796F752077616E7420746F2007
:103C90006D616B6520746865206E6577207573654E
:103CA0007220616E2061646D696E3F2028792F6EED
:103CB0002920005573657220686173206265656E06
:103CC00020616464656420737563636573736675EE
:103CD0006C6C792100456E74657220746865206E85
:103CE0006577207573657227732070617373776FC2
:103CF0007264285468652070617373776F726420F2
:103D000063616E206F6E6C7920636F6E736973747C
:103D1000206F66206E756D6265727320616E64201F
:103D20003420646967697473206174206C65617301
:103D3000742C203130206174206D6178293A200084
:103D400050617373776F726420746F6F2073686F44
:103D5000727421210900456E7465722074686520B3
:103D60006E65772075736572277320636F646528AD
:103D70006D757374206265206120756E697175655B
:103D80002073697820646967697420636F646529AA
:103D90003A20005573657220636F646520746F6FFD
:103DA0002073686F727421000D5468652075736507
:103DB0007220636F646520616C726561647920654F
:103DC0007869737473210900456E74657220746894
:103DD00065206E657720757365722773206E616D3F
:103DE000653A20000D546865207573657220616C1A
:103DF000726561647920657869737473210900497B
:103E00006E76616C6964206C6F67696E2061747492
:103E1000656D707421200D0A256420617474656DD0
:103E20007074732072656D61696E696E672E0054DF
:103E30006F6F206D616E79206C6F67696E206174A1
:103E400074656D70747321200D2D2D2D20537973A1
:103E500074656D2053757370656E64656421202DE3
:103E60002D2D00456E74657220796F75722070611A
:103E70007373776F72643A090057726F6E672070C0
:103E8000617373776F7264210057656C636F6D6542
:103E90002000456E74657220796F757220757365A8
:103EA00072206E616D653A09005573657220646F0A
:103EB00065736E2774206578697374210057656C8B
:063EC000636F6D65210037
:00000001FF
