S0120000536D6172745F486F6D652E7372656323
S11300000C9484000C940E0D0C94A1000C94A1008B
S11300100C94A1000C94A1000C94A1000C94A100D8
S11300200C94A1000C94A1000C94A1000C94A100C8
S11300300C94A1000C94930C0C94A1000C94A100BA
S11300400C94320D0C94A1000C94A1000C94A1000A
S11300500C94A100D604EA04EA04EA04EA04EA04DB
S1130060EA04EA04EC04EA04EA04EA04EA04EA041A
S1130070EA04EA04D804EA04EA04EA04EA04EA041E
S1130080EA04EA04DA04EA04EA04EA04EA04EA040C
S1130090EA04EA04DC04EA04EA04EA04EA04EA04FA
S11300A0EA04EA04DE04EA04EA04EA04EA04EA04E8
S11300B0EA04EA04E004EA04EA04EA04EA04EA04D6
S11300C0EA04EA04E204EA04EA04EA04EA04EA04C4
S11300D0EA04EA04E404EA04EA04EA04EA04EA04B2
S11300E0EA04EA04E604EA04EA04EA04EA04EA04A0
S11300F0EA04EA04E804D608DD08E408EB08F20898
S1130100F908000907090E0911241FBECFE5D8E03C
S1130110DEBFCDBF16E0A0E6B0E0ECE8F9E202C035
S113012005900D92AE38B107D9F727E0AEE8B6E0F6
S113013001C01D92A131B207E1F70E94E8020C94BC
S1130140C4140C940000982F862F41E0692F0E945C
S1130150D803811182E008950F931F93CF93DF9307
S1130160C82FD62F8A010E94EE04CC0F80EA8C0F90
S11301700E94F6048D2F0E94F6040E94EE0481EA88
S11301808C0F0E94F604C8010E940A050E941505FE
S1130190DF91CF911F910F910895EF92FF920F93EA
S11301A01F93CF93DF93C82FD62F7A0189010E9422
S11301B0EE04CC0F80EA8C0F0E94F6048D2F0E946F
S11301C0F6040E94EE0481EA8C0F0E94F604C0E05B
S11301D0D0E006C0C8018C0F9D1F0E94FF04219629
S11301E0C7010197C817D907A8F3C8018C0F9D1F31
S11301F00E940A050E941505DF91CF911F910F916E
S1130200FF90EF9008951F93CF93DF93C82F162F7D
S1130210D42F0E94EE048C2F880F80560E94F6047F
S1130220812F0E94F6048D2F0E94F6040E9415056A
S11302308FE39CE90197F1F700C00000DF91CF91B3
S11302401F9108956F927F928F929F92AF92BF9267
S1130250CF92DF92EF92FF920F931F93CF93DF938E
S1130260782E662E6A018901862F8F7020E130E096
S11302707901E81AF1084E155F0508F47A010E9425
S1130280EE04872D880F0F2EF0EA7F2EF02D780EC6
S1130290872D0E94F604862D0E94F604C0E0D0E06B
S11302A007C0F801EC0FFD1F80810E94F60421961F
S11302B0CE15DF05B0F30E9415058FE39CE9019785
S11302C0F1F700C00000EC14FD0409F461C056010C
S11302D0A60CB11C9FE0A922BB24CE18DF08CA18C3
S11302E0DB08D694C794D694C794D694C794D6946E
S11302F0C794E12CF12C27C00E94EE04872D0E94A4
S1130300F6048C2F860D0E94F604812C912C0BC0D0
S1130310FE01E80DF91DE00FF11F80810E94F60433
S11303208FEF881A980A90E18916910488F36096F1
S11303300E9415058FE39CE90197F1F700C00000C6
S11303409FEFE91AF90AEC14FD04B0F20E94EE04DE
S1130350872D0E94F6048C2F860D0E94F604E12C52
S1130360F12C0BC0FE01EE0DFF1DE00FF11F80818B
S11303700E94F6048FEFE81AF80AEA14FB0490F3DB
S11303800E9415058FE39CE90197F1F700C0000076
S1130390DF91CF911F910F91FF90EF90DF90CF905D
S11303A0BF90AF909F908F907F906F9008950E9420
S11303B0FE0708950E940408089541E061E486E080
S11303C00E94D8038AE18A95F1F700C040E061E415
S11303D086E00E94D8030895CF93C82F482F417018
S11303E061E480E00E94D803C1FB442740F961E442
S11303F081E00E94D803C2FB442740F961E482E013
S11304000E94D803C3FB442740F961E483E00E94BF
S1130410D803CF910895CF93C82F82958F700E94EF
S1130420EC0141E061E484E00E94D8030E94DD0114
S11304308C2F0E94EC010E94DD0185E08A95F1F782
S11304400000CF910895CF93C82F82958F700E949A
S1130450EC0140E061E484E00E94D8030E94DD01E5
S11304608C2F0E94EC010E94DD018FED9EE201972A
S1130470F1F700C00000CF91089581E00E942302AB
S113048008952FEF89EF90E0215080409040E1F7EC
S113049000C0000041E061E480E00E943E0341E0CE
S11304A061E481E00E943E0341E061E482E00E9455
S11304B03E0341E061E483E00E943E0341E061E4E5
S11304C084E00E943E0341E061E485E00E943E0333
S11304D041E061E486E00E943E0340E061E485E09F
S11304E00E94D80382E00E94230288E20E94230231
S11304F08CE00E94230286E00E9423020E943D02B7
S11305000895CF92DF92EF92FF92CF93DF93EC01A5
S1130510C12CD12C760107C00E940B028FEFC81AA0
S1130520D80AE80AF80AFE01EC0DFD1D808181114C
S1130530F3CFDF91CF91FF90EF90DF90CF900895AC
S1130540CF93DF93EA01662319F0613029F007C0E5
S113055080580E94230203C080540E942302CE01CB
S11305600E948102DF91CF910895982F862F41E058
S1130570692F0E943E03811181E00895982F862FF0
S113058041E0692F0E94D803811182E00895982FD9
S1130590862F40E0692F0E94D803811183E00895DB
S11305A0682F70E080E090E00E94C91020E030E005
S11305B041EE54E40E9428102DEC3CEC4CEC5CE33E
S11305C00E94BC0FAB01BC0181E00E94BF070895EB
S11305D00E9441020E942D0883E00E9452080E945A
S11305E0AE0881E00E9415092FEF89E698E12150B9
S11305F080409040E1F700C0000082E00E941509AD
S11306002FEF89E698E1215080409040E1F700C047
S1130610000083E00E9415092FEF89E698E121503C
S113062080409040E1F700C0000084E00E9415097A
S11306302FEF89E698E1215080409040E1F700C017
S1130640000087E00E941509FFCF883010F481E094
S1130650089580E008958154843010F481E0089571
S113066080E00895823010F481E0089580E00895D8
S1130670823010F481E0089580E008951F93CF93B1
S1130680DF93C82FD62F142F0E942503882309F443
S113069084C08D2F0E942B03882309F480C0812FEE
S11306A00E943203882309F47CC0D23429F118F45F
S11306B0D13439F078C0D334D1F1D43409F452C0F0
S11306C072C0113061F42AB381E090E002C0880F57
S11306D0991FCA95E2F7822B8ABB80E065C02AB3D2
S11306E081E090E002C0880F991FCA95E2F78095D7
S11306F082238ABB80E058C0113061F427B381E0C3
S113070090E002C0880F991FCA95E2F7822B87BB3D
S113071080E04AC027B381E090E002C0880F991FAF
S1130720CA95E2F78095822387BB80E03DC01130F3
S113073061F424B381E090E002C0880F991FCA9548
S1130740E2F7822B84BB80E02FC024B381E090E0E9
S113075002C0880F991FCA95E2F78095822384BB53
S113076080E022C0113061F421B381E090E002C046
S1130770880F991FCA95E2F7822B81BB80E014C0D1
S113078021B381E090E002C0880F991FCA95E2F777
S11307908095822381BB80E007C081E005C082E0B0
S11307A003C083E001C080E0DF91CF911F910895E1
S11307B01F93CF93DF93C82FD62F142F0E942503A6
S11307C0882309F484C08D2F0E942B03882309F405
S11307D080C0812F0E943803882309F47CC0D2345E
S11307E029F118F4D13439F078C0D334D1F1D434A8
S11307F009F452C072C0113061F42BB381E090E06F
S113080002C0880F991FCA95E2F7822B8BBB80E048
S113081065C02BB381E090E002C0880F991FCA9590
S1130820E2F7809582238BBB80E058C0113061F4DD
S113083028B381E090E002C0880F991FCA95E2F7BF
S1130840822B88BB80E04AC028B381E090E002C0DC
S1130850880F991FCA95E2F78095822388BB80E0B0
S11308603DC0113061F425B381E090E002C0880FEF
S1130870991FCA95E2F7822B85BB80E02FC025B370
S113088081E090E002C0880F991FCA95E2F7809535
S1130890822385BB80E022C0113061F422B381E061
S11308A090E002C0880F991FCA95E2F7822B82BBA1
S11308B080E014C022B381E090E002C0880F991F49
S11308C0CA95E2F78095822382BB80E007C081E06D
S11308D005C082E003C084E001C080E0DF91CF91D5
S11308E01F9108950F931F93CF93DF93D82FC62F93
S11308F08A010E942503882309F440C08C2F0E949A
S11309002B038823E9F1C234A9F018F4C13431F07F
S113091039C0C334D9F0C43429F134C089B390E068
S113092002C095958795DA95E2F78170F801808386
S113093080E029C086B390E002C095958795DA954A
S1130940E2F78170F801808380E01DC083B390E0FA
S113095002C095958795DA95E2F78170F801808356
S113096080E011C080B390E002C095958795DA9538
S1130970E2F78170F801808380E005C081E003C064
S113098082E001C080E0DF91CF911F910F91089523
S113099081B1E82FE87F8E2F90E0FC013897E13594
S11309A0F105C0F4E65DFF4F0C94C41180E0089596
S11309B082E0089583E0089584E0089585E0089531
S11309C086E0089587E0089588E0089589E0089511
S11309D08AE008958BE0089581E0089584EA86BF53
S11309E006B607FEFDCF0E94C804089583B984E8C3
S11309F086BF06B607FEFDCF0E94C804089524EC06
S1130A0026BF06B607FEFDCF23B1FC0120830E945A
S1130A10C804089524E826BF06B607FEFDCF23B117
S1130A20FC0120830E94C804089584E986BF06B6A9
S1130A3004FCFDCF0895833010F481E0089580E034
S1130A4008951F93CF93DF93182FEB010E941B058A
S1130A50882309F46AC1113009F46FC020F0123000
S1130A6009F4D5C064C1C230D10578F0C830D105CD
S1130A7061F0C034D10549F0C11581E0D80729F0EF
S1130A80C11584E0D80709F054C1C830D10549F133
S1130A9028F4209781F02197C9F04DC1C11581E058
S1130AA0D807A9F1C11584E0D807E1F1C034D10514
S1130AB009F041C121C083B78E7F83BF83B78D7F87
S1130AC083BF83B78B7F83BF80E03EC183B78160E0
S1130AD083BF83B78D7F83BF83B78B7F83BF80E062
S1130AE033C183B78E7F83BF83B7826083BF83B7ED
S1130AF08B7F83BF80E028C183B7816083BF83B7C6
S1130B00826083BF83B78B7F83BF80E01DC183B7BF
S1130B108E7F83BF83B78D7F83BF83B7846083BF9A
S1130B2080E012C183B7816083BF83B78D7F83BFA9
S1130B3083B7846083BF80E007C1C230D10578F0F9
S1130B40C830D10561F0C034D10549F0C11581E048
S1130B50D80729F0C11584E0D80709F0EEC0C830E1
S1130B60D10549F128F4209781F02197C9F0E7C015
S1130B70C11581E0D807A9F1C11584E0D807E1F1D6
S1130B80C034D10509F0DBC021C08EB58E7F8EBD87
S1130B908EB58D7F8EBD8EB58B7F8EBD80E0D4C02B
S1130BA08EB581608EBD8EB58D7F8EBD8EB58B7FEB
S1130BB08EBD80E0C9C08EB58E7F8EBD8EB582603D
S1130BC08EBD8EB58B7F8EBD80E0BEC08EB581603C
S1130BD08EBD8EB582608EBD8EB58B7F8EBD80E05E
S1130BE0B3C08EB58E7F8EBD8EB58D7F8EBD8EB516
S1130BF084608EBD80E0A8C08EB581608EBD8EB548
S1130C008D7F8EBD8EB584608EBD80E09DC0C23068
S1130C10D105A8F0C830D10591F0C032D10579F0E2
S1130C20C034D10561F0C038D10549F0C11581E067
S1130C30D80729F0C11584E0D80709F082C0C03272
S1130C40D105E1F138F4C130D10511F1B0F02897A4
S1130C5051F179C0C038D10509F446C020F4C0343C
S1130C60D105B9F170C0C11581E0D80709F447C0B6
S1130C70C115D44009F44EC066C085B58E7F85BDCC
S1130C8085B58D7F85BD85B58B7F85BD80E05CC0D6
S1130C9085B5816085BD85B58D7F85BD85B58B7F27
S1130CA085BD80E051C085B58E7F85BD85B58260E8
S1130CB085BD85B58B7F85BD80E046C085B58160E7
S1130CC085BD85B5826085BD85B58B7F85BD80E09A
S1130CD03BC085B58E7F85BD85B58D7F85BD85B5CA
S1130CE0846085BD80E030C085B5816085BD85B5F3
S1130CF08D7F85BD85B5846085BD80E025C085B5C3
S1130D008E7F85BD85B5826085BD85B5846085BDD2
S1130D1080E01AC085B5816085BD85B5826085BDDA
S1130D2085B5846085BD80E00FC081E00DC080E0A2
S1130D300BC082E009C080E007C082E005C080E00B
S1130D4003C082E001C080E0DF91CF911F9108953C
S1130D500F931F93CF93C82F8B010E941B058823E9
S1130D6031F0B8018C2F0E94210580E001C081E0A0
S1130D70CF911F910F910895843040F5813071F027
S1130D8028F0823099F08330C9F022C083B78F7E77
S1130D9083BF83B78F7D83BF80E008958FB58F7B3A
S1130DA08FBD8FB58F778FBD80E008958FB58F7E0F
S1130DB08FBD8FB58F7D8FBD80E0089585B58F7E03
S1130DC085BD85B58F7D85BD80E0089587E0089554
S1130DD080E00895843040F5813071F028F082304D
S1130DE099F08330C9F022C083B78F7E83BF83B765
S1130DF0806283BF80E008958FB58F7B8FBD8FB5F0
S1130E0080688FBD80E008958FB58F7E8FBD8FB5CC
S1130E1080628FBD80E0089585B58F7E85BD85B5E0
S1130E20806285BD80E0089587E0089580E008959C
S1130E30CF92DF92EF92FF92CF93843008F096C066
S1130E409FEF920F923008F093C06A017B01C82F84
S1130E50833018F4813028F022C0833009F464C050
S1130E6080C0213019F0223041F00DC083B7806476
S1130E7083BF83B7886083BF06C083B7806483BFA2
S1130E8083B7877F83BF20E030E04FE753E4C70197
S1130E90B6010E9457110E949A106CBF62C02130A3
S1130EA019F0223091F021C08FB58E7F8FBD8FB5A0
S1130EB082608FBD8EB588608EBD8EB580618EBD1B
S1130EC080E29EE497BD86BD10C08FB58E7F8FBD36
S1130ED08FB582608FBD8EB5877F8EBD8EB58061E4
S1130EE08EBD80E29EE497BD86BDC13019F0C2304C
S1130EF071F037C020E030E44CE956E4C701B60194
S1130F000E9457110E949A107BBD6ABD2AC020E03E
S1130F1030E44CE956E4C701B6010E9457110E941F
S1130F209A1079BD68BD1DC0213019F0223041F0FE
S1130F300DC085B5806485BD85B5886085BD06C056
S1130F4085B5806485BD85B5877F85BD20E030E0AB
S1130F504FE753E4C701B6010E9457110E949A104B
S1130F6063BD8C2F0E94EA0680E003C087E001C0C5
S1130F7086E0CF91FF90EF90DF90CF900895282FD7
S1130F808430C0F5CB01BA01213089F028F0223039
S1130F90D1F0233021F130C020E030E04FE753E4BA
S1130FA00E9457110E949A106CBF80E0089520E0BF
S1130FB030E44CE956E40E9457110E949A107BBD1C
S1130FC06ABD80E0089520E030E44CE956E40E94D4
S1130FD057110E949A1079BD68BD80E0089520E001
S1130FE030E04FE753E40E9457110E949A1063BD0A
S1130FF080E0089587E0089580E008955D9BFECF2A
S11310008CB95E9BFECF0895CF92DF92EF92FF9250
S1131010CF93DF93EC01C12CD12C760107C00E9441
S1131020FE078FEFC81AD80AE80AF80AFE01EC0D89
S1131030FD1D80818111F3CF0E94FE07DF91CF91C6
S1131040FF90EF90DF90CF90089584EB0E94D00240
S1131050089580E00E94D002089562E083E40E9433
S1131060B50263E083E40E94B50264E083E40E9475
S1131070B50265E083E40E94B50266E083E40E9461
S1131080B50267E084E40E94B50221E040E050E04C
S1131090BA0183E00E94180760E071E082E00E94D8
S11310A0A80608958330B1F028F4813049F08230E5
S11310B061F008958530C1F090F08630D1F0089544
S11310C062E083E40E94BE02089563E083E40E9428
S11310D0BE02089564E083E40E94BE02089565E0C0
S11310E083E40E94BE02089566E083E40E94BE0287
S11310F0089583E00E94EA0608958330B1F028F44D
S1131100813049F0823061F008958530C1F090F06B
S11311108630D1F0089562E083E40E94C702089506
S113112063E083E40E94C702089564E083E40E94BC
S1131130C702089565E083E40E94C702089566E04B
S113114083E40E94C702089583E00E94BC060895C8
S1131150AB01BC0183E00E94BF070895CF93C0E0B8
S11311600AC04C2F50E04F55594F63E482E08C0F76
S11311700E947204CF5FC530A0F385B585FB882734
S113118080F98093A60647EA56E064E487E00E946B
S11311907204CF91089590E0FC013197E930F10594
S11311A008F042C0E558FF4F0C94C41141E650E0EA
S11311B061E080E00E94A002089542E750E061E00F
S11311C080E00E94A002089543E850E061E080E0DE
S11311D00E94A002089544E950E061E080E00E948A
S11311E0A002089545EA50E061E080E00E94A00278
S11311F0089546EB50E061E080E00E94A00208956B
S113120047EC50E061E080E00E94A002089548EDC0
S113121050E061E080E00E94A002089549EE50E0B1
S113122061E080E00E94A0020895CF93C82F0E943D
S11312303D02C73039F444E051E060E080E00E94B0
S1131240A0020EC049E051E060E080E00E94A002EC
S113125080E38C0F0E940B0287EA95E00E948102D2
S1131260EC2FF0E0E056F94F8081882329F08EE0DE
S113127091E00E94810204C081E191E00E94810218
S1131280C13019F0C73029F008C083E00E94CB08B0
S113129007C082E00E94CB0803C081E00E94CB0813
S11312A0CF910895E0910F07F091100709950895E3
S11312B00E94DA0185E191E00E94DA0108950E941A
S11312C0DA0108959093100780930F076093A006A6
S11312D0089588E191E00E94580989E491E00E9410
S11312E0580984E591E00E9458098FE591E00E9435
S11312F058098AE691E00E94580985E791E00E9426
S1131300580980E891E00E9458098091A906882331
S113131021F08BE891E00E945809089560919106AC
S11313208091A806811104C0603310F06A3360F024
S113133088E991E00E9458090E94690962E087EEF9
S113134099E00E94620908958091EE06863080F447
S1131350613339F40E9452088BEA91E00E945809E3
S11313602EC00E947D088AEC91E00E94580927C093
S11313708630B1F470E060537109072E000C880BBD
S1131380990B0E94CB1020E030E040E151E40E9430
S113139028100E94A8088AEE91E00E9458090FC004
S11313A0613339F40E9425088CE092E00E945809C8
S11313B006C00E94290882E292E00E9458090E9415
S11313C0690962E087EE99E00E9462090895CF936B
S11313D0C09191068091A906882349F18091A806BD
S11313E0811104C0C13310F0C83360F08AE392E085
S11313F00E9458090E94690962E087EE99E00E9400
S113140062093DC08BE492E00E94580981EA92E0AF
S11314100E9458098AED92E00E94580962E08EE821
S113142099E00E946209C053C093EE0628C08091DF
S1131430A806811104C0C13310F0C73360F08AE3F9
S113144092E00E9458090E94690962E087EE99E0DF
S11314500E94620914C08BE492E00E94580981EA58
S113146092E00E9458098AED92E00E94580962E0D5
S11314708EE899E00E946209C053C093EE06CF91B2
S113148008958091A9068823A9F082E193E00E943F
S1131490580980E593E00E9458098EE593E00E9484
S11314A058098FE693E00E94580985E893E00E946A
S11314B05809089582E193E00E94580982E993E073
S11314C00E94580988EA93E00E945809089580917F
S11314D0A806882361F085EB93E00E9458090E94D6
S11314E0410A62E08BE99AE00E946209089569EC7E
S11314F076E081E996E00E94720D833061F48BEC12
S113150093E00E9458090E94410A62E08BE99AE044
S11315100E946209089589EC96E00E94480F81E0D8
S113152094E00E9458090E94410A62E08BE99AE023
S11315300E94620908958091A906882309F44BC08A
S1131540809191069091A806911104C0813310F006
S1131550853360F08AE392E00E9458090E94410AB0
S113156062E08BE99AE00E9462090895823399F05F
S113157018F4813331F008958333B9F08433E9F0FA
S113158008958AE294E00E945F096DE08DE99BE092
S11315900E94620908958AE294E00E945F096DE066
S11315A087E69AE00E94620908950E94690962E050
S11315B087EE99E00E946209089581E080938F0686
S11315C080E494E00E94580988E894E00E94580955
S11315D01092A0060895809191069091A806911109
S11315E004C0813310F0833360F08AE392E00E94F8
S11315F058090E94410A62E08BE99AE00E9462095C
S11316000895813319F0823349F008950E946909DD
S113161062E087EE99E00E946209089581E0809378
S11316208F0680E494E00E94580988E894E00E94C0
S113163058091092A00608958091A806882361F0A5
S113164088E991E00E9458090E94410A62E08BE90E
S11316509AE00E946209089580919106893721F0E9
S1131660893521F481E003C081E001C080E08093EA
S1131670EF068FEE96E00E940D0F8CEA94E00E9434
S113168058090E94410A62E08BE99AE00E946209CB
S113169008958091A806882361F08EEC94E00E945E
S11316A058090E94410A62E08BE99AE00E946209AB
S11316B0089561E976E084E097E00E94D31185EE15
S11316C094E00E945F0962E08CE19BE00E94620961
S11316D008958091A806882361F087E195E00E942F
S11316E058090E94410A62E08BE99AE00E9462096B
S11316F0089569EC76E081E996E00E940B0E833050
S113170081F461E976E08DEF96E00E94D3118DE2D9
S113171095E00E945F096BE089E49BE00E94620906
S113172008958DE495E00E9458090E94410A62E000
S11317308BE99AE00E94620908958091A8068823A3
S113174061F085EB93E00E9458090E94410A62E02F
S11317508BE99AE00E946209089569EC76E081E9D8
S113176096E00E94720D833081F461E976E080EFA7
S113177096E00E94D3118DE695E00E945F0967E030
S113178089E69BE00E94620908958AEA95E00E9436
S113179058090E94410A62E08BE99AE00E946209BA
S11317A008950F931F93CF93DF93CDB7DEB7E297DE
S11317B00FB6F894DEBF0FBECDBF80918E068F5F4B
S11317C080938E068330E8F423E030E0A901481BBF
S11317D05109CA019F934F9385EC95E09F938F9392
S11317E08E010F5F1F4F1F930F930E94DA11C801E0
S11317F00E9458090F900F900F900F900F900F9028
S113180004C00E94A40E10926000E2960FB6F894F1
S1131810DEBF0FBECDBFDF91CF911F910F91089511
S11318208091A806882361F00E94D10B87EF95E090
S11318300E945F096BE080E19CE00E9462090895C8
S113184061E976E08EEB96E00E94CA11892B81F063
S11318508DE096E00E945F090E94D10B87EF95E02E
S11318600E945F096BE080E19CE00E946209089598
S113187081E080938F068DE196E00E945F098AEAF9
S113188096E00E945F098AE092E00E9458090E9453
S1131890410A62E08BE99AE00E946209089580910E
S11318A0A806882361F00E94D10B86E296E00E948C
S11318B05F096DE08FE49CE00E946209089569EA83
S11318C076E081E996E00E94720D833081F48DE325
S11318D096E00E945F090E94D10B86E296E00E9486
S11318E05F096DE08FE49CE00E946209089587EF30
S11318F095E00E945F096BE080E19CE00E94620930
S1131900089581E596E00E94580983E796E00E94D5
S1131910580986E296E00E945F096DE08FE49CE03E
S11319200E94620908951F920F920FB60F9211241C
S11319302F933F934F935F936F937F938F939F93D3
S1131940AF93BF93EF93FF938CB18093ED06909187
S1131950A006992309F451C0883059F49091900657
S1131960992309F44AC09150909390060E94D7019C
S113197044C090919006E92FF0E0EF56F94F808330
S11319809F5F90939006913039F4909191069D3029
S113199019F41092900631C08D3011F00E94D701D5
S11319A0E09190068091A006E81312C0F0E0E057A1
S11319B0F94F80818D3061F081E08093A806809397
S11319C0E906109290068DE00E94D7010E94520908
S11319D08091ED068D3089F4E09190068091A00607
S11319E08E1758F0F0E0E057F94F10828DE00E9416
S11319F0D7010E94520910929006FF91EF91BF9176
S1131A00AF919F918F917F916F915F914F913F9192
S1131A102F910F900FBE0F901F9018951F920F9249
S1131A200FB60F9211242F933F934F935F936F93AD
S1131A307F938F939F93AF93BF93EF93FF930E94F2
S1131A40810CFF91EF91BF91AF919F918F917F9105
S1131A506F915F914F913F912F910F900FBE0F9017
S1131A601F9018951F920F920FB60F9211242F9367
S1131A703F934F935F936F937F938F939F93AF9312
S1131A80BF93CF93DF93EF93FF9384B1C5B1D0E0BD
S1131A90DC2FCC27C80FD11DC137D10528F041E078
S1131AA063E487E00E94D803C435D10528F440E0FC
S1131AB063E487E00E94D80388B7816088BFFF9100
S1131AC0EF91DF91CF91BF91AF919F918F917F91D2
S1131AD06F915F914F913F912F910F900FBE0F9097
S1131AE01F9018959F92AF92BF92CF92DF92EF9280
S1131AF0FF920F931F93CF93DF93CDB7DEB76D970C
S1131B000FB6F894DEBF0FBECDBF7C016B01912CE4
S1131B106BC0AE014F5F5F4F60E0892D0E94AC0047
S1131B20AE014E5F5F4F61E0892D0E94AC00B12C85
S1131B3056C0898190E00B2C02C0959587950A9434
S1131B40E2F780FF4BC06FE1B69EA02C112468E041
S1131B506A0D9E012D5F3F4F4DE050E0892D0E949C
S1131B60CD00BE016D5F7F4FC7010E94CA11892B52
S1131B70A9F565E16A0D9E01205F3F4F47E050E003
S1131B80892D0E94CD006CE16A0D9E01295E3F4FB4
S1131B9047E050E0892D0E94CD008A8190E002C088
S1131BA095958795BA94E2F7982F9170F6019193E1
S1131BB0BE016D5F7F4FCF010E94D311BE01605FF4
S1131BC07F4FC6010E960E94D311BE01695E7F4FFE
S1131BD0C60145960E94D31182E00BC0B39487E0FE
S1131BE08B1508F0A6CF939487E0891508F091CF60
S1131BF083E06D960FB6F894DEBF0FBECDBFDF91C4
S1131C00CF911F910F91FF90EF90DF90CF90BF90F5
S1131C10AF909F9008959F92AF92BF92CF92DF9220
S1131C20EF92FF920F931F93CF93DF93CDB7DEB75D
S1131C306D970FB6F894DEBF0FBECDBF7C016B016C
S1131C40912C6BC0AE014F5F5F4F60E0892D0E9405
S1131C50AC00AE014E5F5F4F61E0892D0E94AC0085
S1131C60B12C56C0898190E00B2C02C095958795C4
S1131C700A94E2F780FF4BC06FE1B69EA02C1124BA
S1131C8065E16A0D9E01205F3F4F47E050E0892DDA
S1131C900E94CD00BE01605F7F4FC7010E94CA1140
S1131CA0892BA9F568E06A0D9E012D5F3F4F4DE039
S1131CB050E0892D0E94CD006CE16A0D9E01295EE1
S1131CC03F4F47E050E0892D0E94CD008A8190E08B
S1131CD002C095958795BA94E2F7982F9170F60112
S1131CE09193BE016D5F7F4FCF010E94D311BE015E
S1131CF0605F7F4FC6010E960E94D311BE01695EDC
S1131D007F4FC60145960E94D31182E00BC0B39465
S1131D1087E08B1508F0A6CF939487E0891508F027
S1131D2091CF83E06D960FB6F894DEBF0FBECDBFA2
S1131D30DF91CF911F910F91FF90EF90DF90CF90A3
S1131D40BF90AF909F90089566E084E40E94A30042
S1131D500895EF92FF920F931F93CF93DF9300D0D8
S1131D60CDB7DEB77B01082F069506950695182F8B
S1131D701770AE014F5F5F4F60E0802F0E94AC0090
S1131D80AE014E5F5F4F61E0802F0E94AC0081E0A6
S1131D9090E0012E02C0880F991F0A94E2F749814E
S1131DA0482B4983F7012081222319F09A81892B3A
S1131DB08A8360E0802F0E9403014A8161E0802FC2
S1131DC00E94030197012F5F3F4F6FE1169F102D73
S1131DD0112468E0610F4DE050E0802F0E94220141
S1131DE09701225F3F4F65E1610F47E050E0802F8C
S1131DF00E94220197012B5E3F4F6CE1610F4BE083
S1131E0050E0802F0E9422010F900F90DF91CF911C
S1131E101F910F91FF90EF900895EF92FF921F93FF
S1131E20CF93DF931F92CDB7DEB77C0110E01AC0C9
S1131E30AE014F5F5F4F60E0812F0E94AC0099813B
S1131E409F3F79F002C08F5F01C080E0292F30E00E
S1131E50082E02C0359527950A94E2F720FDF3CFAA
S1131E6004C01F5F183020F380E0183049F0110FD0
S1131E70110F110FB701810F0E94A90E89E001C053
S1131E808BE00F90DF91CF911F91FF90EF90089519
S1131E90CF92DF92EF92FF920F931F93CF93DF9332
S1131EA0CDB7DEB729970FB6F894DEBF0FBECDBF0E
S1131EB06C0100E04DC0AE014F5F5F4F60E0802FCA
S1131EC00E94AC00AE014E5F5F4F61E0802F0E9424
S1131ED0AC0010E03AC0898190E0012E02C09595D3
S1131EE087950A94E2F780FF2FC06FE1169F602D5B
S1131EF011246B5E9E012D5F3F4F47E050E0802F21
S1131F000E94CD00BE016D5F7F4FC6010E960E94F8
S1131F10CA11892BC9F481E090E002C0880F991F8F
S1131F201A95E2F780954981482349839A81892348
S1131F308A8360E0802F0E9403014A8161E0802F40
S1131F400E9403018AE008C01F5F183020F20F5F6F
S1131F50083008F4B0CF83E029960FB6F894DEBFBA
S1131F600FBECDBFDF91CF911F910F91FF90EF90E6
S1131F70DF90CF9008955058BB27AA270E94D30F13
S1131F800C941D110E940F1138F00E94161120F0BC
S1131F9039F49F3F19F426F40C940C110EF4E095D7
S1131FA0E7FB0C940611E92F0E942E1158F3BA177F
S1131FB0620773078407950720F079F4A6F50C945B
S1131FC050110EF4E0950B2EBA2FA02D0B01B90180
S1131FD090010C01CA01A0011124FF27591B99F09B
S1131FE0593F50F4503E68F11A16F040A22F232FA7
S1131FF0342F4427585FF3CF469537952795A795F7
S1132000F0405395C9F77EF41F16BA0B620B730B9D
S1132010840BBAF09150A1F0FF0FBB1F661F771F0E
S1132020881FC2F70EC0BA0F621F731F841F48F4C3
S1132030879577956795B795F7959E3F08F0B0CF4C
S11320409395880F08F09927EE0F97958795089533
S11320500E943C100C941D110E94161158F00E940D
S11320600F1140F029F45F3F29F00C94061151112F
S11320700C9451110C940C110E942E1168F39923A5
S1132080B1F3552391F3951B550BBB27AA27621770
S11320907307840738F09F5F5F4F220F331F441F7D
S11320A0AA1FA9F335D00E2E3AF0E0E832D09150B1
S11320B05040E695001CCAF72BD0FE2F29D0660F9E
S11320C0771F881FBB1F261737074807AB07B0E8E1
S11320D009F0BB0B802DBF01FF2793585F4F3AF0E7
S11320E09E3F510578F00C9406110C9451115F3FFA
S11320F0E4F3983ED4F3869577956795B795F7956D
S11321009F5FC9F7880F911D9695879597F9089554
S1132110E1E0660F771F881FBB1F621773078407F0
S1132120BA0720F0621B730B840BBA0BEE1F88F7FF
S1132130E09508950E94361188F09F5798F0B92FC2
S11321409927B751B0F0E1F0660F771F881F991FE8
S11321501AF0BA95C9F714C0B13091F00E94501129
S1132160B1E008950C945011672F782F8827B85F39
S113217039F0B93FCCF3869577956795B395D9F740
S11321803EF490958095709561957F4F8F4F9F4F4A
S11321900895E89409C097FB3EF490958095709556
S11321A061957F4F8F4F9F4F9923A9F0F92F96E99F
S11321B0BB279395F695879577956795B795F11114
S11321C0F8CFFAF4BB0F11F460FF1BC06F5F7F4FB1
S11321D08F4F9F4F16C0882311F096E911C07723C3
S11321E021F09EE8872F762F05C0662371F096E8CC
S11321F0862F70E060E02AF09A95660F771F881F9B
S1132200DAF7880F9695879597F9089597F99F6758
S113221080E870E060E008959FEF80EC089500246A
S11322200A941616170618060906089500240A9437
S113223012161306140605060895092E0394000CBD
S113224011F4882352F0BB0F40F4BF2B11F460FF4C
S113225004C06F5F7F4F8F4F9F4F089557FD905875
S1132260440F551F59F05F3F71F04795880F97FB56
S1132270991F61F09F3F79F0879508951216130610
S11322801406551FF2CF4695F1DF08C0161617063F
S11322901806991FF1CF8695710561050894089574
S11322A0E894BB2766277727CB0197F908950E9406
S11322B06A110C941D110E940F1138F00E9416111E
S11322C020F0952311F00C9406110C940C11112498
S11322D00C9451110E942E1170F3959FC1F3950F28
S11322E050E0551F629FF001729FBB27F00DB11D96
S11322F0639FAA27F00DB11DAA1F649F6627B00D26
S1132300A11D661F829F2227B00DA11D621F739F0E
S1132310B00DA11D621F839FA00D611D221F749F1C
S11323203327A00D611D231F849F600D211D822F63
S1132330762F6A2F11249F5750409AF0F1F088238A
S11323404AF0EE0FFF1FBB1F661F771F881F9150B7
S11323505040A9F79E3F510580F00C9406110C944F
S113236051115F3FE4F3983ED4F3869577956795D2
S1132370B795F795E7959F5FC1F7FE2B880F911DE1
S11323809695879597F90895EE0FFF1F0590F491A0
S1132390E02D0994FB01DC018D910190801901105D
S11323A0D9F3990B0895FB01DC0101900D920020F3
S11323B0E1F70895AEE0B0E0E0EEF1E10C949B1497
S11323C00D891E8986E08C831A8309838FEF9FE72A
S11323D09E838D83AE01475E5F4F6F89788DCE01FA
S11323E001960E94FC11EF81F885E00FF11F108225
S11323F02E96E4E00C94B714ABE0B0E0E2E0F2E136
S11324000C948D146C017B018A01FC0117821682E5
S1132410838181FFCCC1CE0101963C01F6019381F9
S1132420F70193FD859193FF81917F01882309F43E
S1132430BAC1853239F493FD859193FF81917F016F
S1132440853229F4B60190E00E94F313E7CF912C72
S1132450212C312CFFE1F315D8F08B3279F038F4CC
S1132460803279F08332A1F4232D20611DC08D3296
S113247061F0803369F4232D216016C0832D8260BE
S1132480382EE32DE4603E2E2AC0F32DF8601DC0E3
S113249037FC2DC020ED280F2A3040F08E32B9F4DD
S11324A036FC81C1232D2064322E19C036FE06C0AD
S11324B08AE0989E200D1124922E11C0EAE02E9EEF
S11324C0200D1124222EF32DF0623F2E08C08C36ED
S11324D021F4832D8068382E02C0883641F4F70138
S11324E093FD859193FF81917F018111B3CF982F43
S11324F09F7D9554933028F40C5F1F4F9FE399837D
S11325000DC0833631F0833771F0833509F059C03B
S113251021C0F801808189830E5F1F4F8824839432
S1132520912C530113C02801F2E04F0E511CF80105
S1132530A080B18036FE03C0692D70E002C06FEF49
S11325407FEFC5010E94E8134C018201F32DFF7750
S11325503F2E16C0280122E0420E511CF801A08033
S1132560B18036FE03C0692D70E002C06FEF7FEFCB
S1132570C5010E94DD134C01F32DF0683F2E82014A
S113258033FC1BC0822D90E088169906B0F4B60186
S113259080E290E00E94F3132A94F4CFF50137FC13
S11325A0859137FE81915F01B60190E00E94F3139B
S11325B021102A9421E0821A91088114910471F760
S11325C0E8C0843611F0893641F5F80137FE07C0BA
S11325D060817181828193810C5F1F4F08C060818B
S11325E07181072E000C880B990B0E5F1F4FF32D82
S11325F0FF763F2E97FF09C0909580957095619561
S11326007F4F8F4F9F4FF0683F2E2AE030E0A301A9
S11326100E942F14882E861845C0853731F4232D47
S11326202F7EB22E2AE030E025C0932D997FB92E5B
S11326308F36C1F018F4883579F0B5C0803719F0B9
S1132640883721F0B0C0E92FE061BE2EB4FE0DC082
S1132650FB2DF460BF2E09C034FE0AC0292F26606A
S1132660B22E06C028E030E005C020E130E002C010
S113267020E132E0F801B7FE07C0608171818281F8
S113268093810C5F1F4F06C06081718180E090E0F0
S11326900E5F1F4FA3010E942F14882E8618FB2D56
S11326A0FF773F2E36FE0DC0232D2E7FA22E8914D8
S11326B058F434FE0BC032FC09C0832D8E7EA82E44
S11326C005C0B82CA32C03C0B82C01C0B92CA4FE9F
S11326D00FC0FE01E80DF11D8081803321F49A2D95
S11326E0997EA92E09C0A2FE06C0B394B39404C077
S11326F08A2D867809F0B394A3FC11C0A0FE06C00D
S1132700B21488F4280C922C9B180EC0B21460F4F6
S1132710B60180E290E00E94F313B394F7CFB214B1
S113272018F42B1802C0982C212CA4FE10C0B6015A
S113273080E390E00E94F313A2FE17C0A1FC03C043
S113274088E790E002C088E590E0B6010CC08A2DCD
S1132750867859F0A1FE02C08BE201C080E2A7FC9A
S11327608DE2B60190E00E94F313891438F4B601A7
S113277080E390E00E94F3139A94F7CF8A94F301D4
S1132780E80DF11D8081B60190E00E94F3138110E1
S1132790F5CF222009F442CEB60180E290E00E94F7
S11327A0F3132A94F6CFF6018681978102C08FEF46
S11327B09FEF2B96E2E10C94A914FC010590615063
S11327C070400110D8F7809590958E0F9F1F089543
S11327D0FC016150704001900110D8F780959095EC
S11327E08E0F9F1F08950F931F93CF93DF93FB01C9
S11327F0238121FD03C08FEF9FEF2CC022FF16C061
S113280046815781248135814217530744F4A081BE
S1132810B1819D012F5F3F4F318320838C932681AB
S113282037812F5F3F4F3783268314C08B01EC0120
S1132830FB010084F185E02D0995892BE1F6D8018F
S113284016968D919C911797019617969C938E934B
S11328501697CE01DF91CF911F910F910895FA0140
S1132860AA27283051F1203181F1E8946F936E7FCB
S11328706E5F7F4F8F4F9F4FAF4FB1E03ED0B4E0BC
S11328803CD0670F781F891F9A1FA11D680F791FFD
S11328908A1F911DA11D6A0F711D811D911DA11D0E
S11328A020D009F468943F912AE0269F112430191E
S11328B0305D3193DEF6CF010895462F4770405DB9
S11328C04193B3E00FD0C9F7F6CF462F4F70405D68
S11328D04A3318F0495D31FD4052419302D0A9F7C3
S11328E0EACFB4E0A6959795879577956795BA95BD
S11328F0C9F700976105710508959B01AC010A2E83
S113290006945795479537952795BA95C9F7620F59
S1132910731F841F951FA01D08952F923F924F92FD
S11329205F926F927F928F929F92AF92BF92CF925B
S1132930DF92EF92FF920F931F93CF93DF93CDB764
S1132940DEB7CA1BDB0B0FB6F894DEBF0FBECDBFDC
S113295009942A88398848885F846E847D848C84AD
S11329609B84AA84B984C884DF80EE80FD800C81B6
S11329701B81AA81B981CE0FD11D0FB6F894DEBF99
S10F29800FBECDBFED010895F894FFCF09
S113298C0131297F2032294C6F67696E202033294D
S113299C7E0031297F20202020202032294C6F6793
S11329AC696E0031294C6F67696E2020202020202D
S11329BC32297E0031297F203229546F67676C6578
S11329CC2033297E0031297F20202032294F6E208C
S11329DC202033297E0031297F202032294F66663E
S11329EC20202033297E0031294F6E2020202020E6
S11329FC2020202032297E0031294F666620202099
S1132A0C202020202032297E0031297F20202032D2
S1132A1C292B2020202033292D0031293C78003209
S1132A2C294F6B0041433A20004C616D70004F6E8E
S1132A3C004F6666000D0A0053656C656374206F65
S1132A4C6E65206F662074686520666F6C6C6F779A
S1132A5C696E67206465766963657320746F20639F
S1132A6C6F6E74726F6C3A09005B315D204C616D52
S1132A7C702031005B325D204C616D702032005B44
S1132A8C335D204C616D702033005B345D204C61F0
S1132A9C6D702034005B355D204C616D7020350009
S1132AAC5B365D204C616D702036005B375D2054C5
S1132ABC686520446F6F72000D0A496E76616C690B
S1132ACC6420696E70757421210900546865206452
S1132ADC657669636520686173206265656E207430
S1132AEC75726E6564206F6E210054686520646590
S1132AFC7669636520686173206265656E20747500
S1132B0C726E6564206F666621005468652062727B
S1132B1C696768746E657373206861732062656598
S1132B2C6E2061646A757374656421005468652051
S1132B3C446F6F72206973206F70656E206E6F77AF
S1132B4C2E0054686520446F6F7220697320636C87
S1132B5C6F736564206E6F772E00496E76616C69B5
S1132B6C64206F7074696F6E210900446F20796F53
S1132B7C752077616E7420746F2073776974636841
S1132B8C2074686520646576696365206F6E206FB8
S1132B9C72206F66663F2028456E74657220312062
S1132BAC746F207475726E206974206F6E2E2030D1
S1132BBC20746F207475726E206974206F66662998
S1132BCC00466F722064696D6D61626C65206C6186
S1132BDC6D7020746865206272696768746E6573C1
S1132BEC73206C6576656C73206172652066726FF8
S1132BFC6D203020746F20392E00496620796F7552
S1132C0C20736C65637465642074686520646F6FED
S1132C1C722C20656E7472203120746F206F706575
S1132C2C6E20616E64203020746F20636C6F73654A
S1132C3C2E0053656C656374206F6E65206F66207F
S1132C4C74686520666F6C6C6F77696E67206F7043
S1132C5C74696F6E7328627920656E746572696E1F
S1132C6C6720697473206E756D626572293A090068
S1132C7C5B315D20416464207573657209005B32BD
S1132C8C5D2044656C657465207573657209005B21
S1132C9C335D20436F6E74726F6C206120646576B3
S1132CAC69636509005B345D204C6F67206F757434
S1132CBC09005B315D20436F6E74726F6C20612070
S1132CCC64657669636509005B325D204C6F67202F
S1132CDC6F757409000D0A496E76616C6964207510
S1132CEC736572206E616D652109000D4572726FFA
S1132CFC72212055736572206E6F7420666F756E29
S1132D0C642E2052657475726E696E6720746F2020
S1132D1C746865206D61696E206D656E752E2E2E3E
S1132D2C0054686520757365722068617320626550
S1132D3C656E2064656C6574656420737563636586
S1132D4C737366756C6C79210900456E7465722019
S1132D5C7468652075736572206E616D653A200028
S1132D6C546F206C6F67696E20616761696E20799E
S1132D7C6F75206861766520746F20646973636F66
S1132D8C6E6E65637420616E64207265636F6E6E23
S1132D9C65637420746F20746865204254206D6FD1
S1132DAC64756C652E2E2E00596F752068617665DE
S1132DBC207375636365737366756C6C79206C6FC3
S1132DCC67676564206F75742E2E2E0055736572BB
S1132DDC20686173206265656E206164646564209B
S1132DEC7375636365737366756C6C7921000D0A76
S1132DFC50617373776F726420746F6F206C6F6E95
S1132E0C6721210900446F20796F752077616E74F6
S1132E1C20746F206D616B6520746865206E657716
S1132E2C207573657220616E2061646D696E3F203C
S1132E3C28792F6E2920000D0A496E76616C69641D
S1132E4C207573657220636F6465210900456E7487
S1132E5C657220746865206E6577207573657227BA
S1132E6C732070617373776F72643A20000D546829
S1132E7C65207573657220636F646520616C72657F
S1132E8C61647920657869737473210900456E74E3
S1132E9C657220746865206E65772075736572277A
S1132EAC7320636F6465286D75737420626520618B
S1132EBC20756E697175652073697820646967691A
S1132ECC7420636F6465293A20000D54686520757D
S1132EDC73657220616C72656164792065786973BD
S1132EEC74732109000D0A496E76616C6964206C57
S1132EFC6F67696E20617474656D707421200D0A9E
S1132F0C256420617474656D7074732072656D61D1
S1132F1C696E696E672E00456E74657220796F75E3
S1132F2C722070617373776F72643A090057726F11
S1132F3C6E672070617373776F7264210057656CD0
S1132F4C636F6D652000456E74657220796F7572C0
S1132F5C2075736572206E616D653A090055736551
S1132F6C7220646F65736E2774206578697374219D
S1132F7C0057656C636F6D6520746F2074686520F1
S1132F8C536D61727420486F6D6520537973746549
S1132F9C6D2100546F2070726F636565642C207012
S1112FAC6C65617365206C6F67696E2E0000A2
S9030000FC
