S0120000536D6172745F486F6D652E7372656323
S11300000C942A000C9447000C9447000C9447006D
S11300100C9447000C9447000C9447000C94470040
S11300200C9447000C9447000C9447000C94470030
S11300300C9447000C9447000C9447000C94470020
S11300400C9447000C9447000C9447000C94470010
S11300500C94470011241FBECFE5D8E0DEBFCDBF0E
S113006010E0A0E6B0E0E4EFFBE002C005900D92E2
S1130070A036B107D9F720E0A0E6B0E001C01D9298
S1130080A036B207E1F70E947A000C94F8050C94AC
S1130090000041E064E485E00E94B50022E04DECFC
S11300A05CEC6CE47DE381E00E94F00268E070E0C7
S11300B081E00E94DC020895682F70E080E090E007
S11300C00E94FD0420E030E041E655E40E945C0417
S11300D020E030E040EA51E40E945C042DEC3CEC6A
S11300E04CE45DE30E94F003AB01BC0181E00E949B
S11300F0B00308950E944900C0E0D0E00DC08C2FE9
S11301000E945C002FEF89EF90E0215080409040E6
S1130110E1F700C000002596C93BD10584F3C4EB88
S1130120D0E00DC08C2F0E945C002FEF89EF90E08F
S1130130215080409040E1F700C000002597DD2366
S11301408CF7DACF883010F481E0089580E00895C8
S11301508154843010F481E0089580E00895823061
S113016010F481E0089580E008951F93CF93DF9306
S1130170C82FD62F142F0E94A200882309F484C00C
S11301808D2F0E94A800882309F480C0812F0E942B
S1130190AF00882309F47CC0D23429F118F4D13497
S11301A039F078C0D334D1F1D43409F452C072C0D8
S11301B0113061F42AB381E090E002C0880F991FE6
S11301C0CA95E2F7822B8ABB80E065C02AB381E03E
S11301D090E002C0880F991FCA95E2F780958223A8
S11301E08ABB80E058C0113061F427B381E090E00D
S11301F002C0880F991FCA95E2F7822B87BB80E063
S11302004AC027B381E090E002C0880F991FCA95C5
S1130210E2F78095822387BB80E03DC0113061F412
S113022024B381E090E002C0880F991FCA95E2F7D9
S1130230822B84BB80E02FC024B381E090E002C015
S1130240880F991FCA95E2F78095822384BB80E0CA
S113025022C0113061F421B381E090E002C0880F24
S1130260991FCA95E2F7822B81BB80E014C021B3A9
S113027081E090E002C0880F991FCA95E2F780954B
S1130280822381BB80E007C081E005C082E003C017
S113029083E001C080E0DF91CF911F910895833006
S11302A010F481E0089580E008951F93CF93DF93C5
S11302B0182FEB010E944F01882309F46AC1113001
S11302C009F46FC020F0123009F4D5C064C1C23003
S11302D0D10578F0C830D10561F0C034D10549F0BA
S11302E0C11581E0D80729F0C11584E0D80709F0C9
S11302F054C1C830D10549F128F4209781F02197E1
S1130300C9F04DC1C11581E0D807A9F1C11584E038
S1130310D807E1F1C034D10509F041C121C083B748
S11303208E7F83BF83B78D7F83BF83B78B7F83BF6C
S113033080E03EC183B7816083BF83B78D7F83BF75
S113034083B78B7F83BF80E033C183B78E7F83BF46
S113035083B7826083BF83B78B7F83BF80E028C16C
S113036083B7816083BF83B7826083BF83B78B7F8A
S113037083BF80E01DC183B78E7F83BF83B78D7F2A
S113038083BF83B7846083BF80E012C183B7816079
S113039083BF83B78D7F83BF83B7846083BF80E0CF
S11303A007C1C230D10578F0C830D10561F0C0343E
S11303B0D10549F0C11581E0D80729F0C11584E0C1
S11303C0D80709F0EEC0C830D10549F128F42097C8
S11303D081F02197C9F0E7C0C11581E0D807A9F1E0
S11303E0C11584E0D807E1F1C034D10509F0DBC0C0
S11303F021C08EB58E7F8EBD8EB58D7F8EBD8EB5A0
S11304008B7F8EBD80E0D4C08EB581608EBD8EB5ED
S11304108D7F8EBD8EB58B7F8EBD80E0C9C08EB5BD
S11304208E7F8EBD8EB582608EBD8EB58B7F8EBD68
S113043080E0BEC08EB581608EBD8EB582608EBDFB
S11304408EB58B7F8EBD80E0B3C08EB58E7F8EBDA2
S11304508EB58D7F8EBD8EB584608EBD80E0A8C0C4
S11304608EB581608EBD8EB58D7F8EBD8EB5846058
S11304708EBD80E09DC0C230D105A8F0C830D10542
S113048091F0C032D10579F0C034D10561F0C038A3
S1130490D10549F0C11581E0D80729F0C11584E0E0
S11304A0D80709F082C0C032D105E1F138F4C13077
S11304B0D10511F1B0F0289751F179C0C038D105B8
S11304C009F446C020F4C034D105B9F170C0C11597
S11304D081E0D80709F447C0C115D44009F44EC0DF
S11304E066C085B58E7F85BD85B58D7F85BD85B597
S11304F08B7F85BD80E05CC085B5816085BD85B599
S11305008D7F85BD85B58B7F85BD80E051C085B568
S11305108E7F85BD85B5826085BD85B58B7F85BDA4
S113052080E046C085B5816085BD85B5826085BDA6
S113053085B58B7F85BD80E03BC085B58E7F85BD4D
S113054085B58D7F85BD85B5846085BD80E030C06F
S113055085B5816085BD85B58D7F85BD85B5846094
S113056085BD80E025C085B58E7F85BD85B582605B
S113057085BD85B5846085BD80E01AC085B5816080
S113058085BD85B5826085BD85B5846085BD80E007
S11305900FC081E00DC080E00BC082E009C080E0A4
S11305A007C082E005C080E003C082E001C080E0B3
S11305B0DF91CF911F9108950F931F93CF93C82F6D
S11305C08B010E944F01882331F0B8018C2F0E94C7
S11305D0550180E001C081E0CF911F910F910895F2
S11305E0CF92DF92EF92FF92843008F0ADC09FEF7C
S11305F0920F923008F0AAC06A017B01833018F48C
S1130600813028F029C0833009F479C0A1C0213099
S113061019F0223041F00DC083B7806483BF83B7E3
S1130620886083BF06C083B7806483BF83B7877F36
S113063083BF83B78F7E83BF83B7806283BF20E08D
S113064030E04FE753E4C701B6010E948B050E94D6
S1130650CE046CBF80E07FC0213019F0223091F0CD
S113066021C09FB59E7F9FBD9FB592609FBD9EB5E3
S113067098609EBD9EB590619EBD2FEF3FEF37BD44
S113068026BD10C09FB59E7F9FBD9FB592609FBD44
S11306909EB5977F9EBD9EB590619EBD20E23EE4CF
S11306A037BD26BD813019F08230A9F053C08FB513
S11306B08F7B8FBD8FB580688FBD20E03FEF4FE704
S11306C057E4C701B6010E948B050E94CE047BBD8E
S11306D06ABD80E040C08FB58F7E8FBD8FB58062CC
S11306E08FBD20E03FEF4FE757E4C701B6010E94FA
S11306F08B050E94CE0479BD68BD80E02CC02130FA
S113070019F0223041F00DC085B5806485BD85B5F2
S1130710886085BD06C085B5806485BD85B5877F45
S113072085BD85B58F7E85BD85B5806285BD20E09C
S113073030E04FE753E4C701B6010E948B050E94E5
S1130740CE0463BD80E007C086E005C085E003C039
S113075080E001C080E0FF90EF90DF90CF9008959B
S1130760282F8430C0F5CB01BA01213089F028F05C
S11307702230D1F0233021F130C020E030E04FE7C7
S113078053E40E948B050E94CE046CBF80E0089560
S113079020E03FEF4FE757E40E948B050E94CE0410
S11307A07BBD6ABD80E0089520E03FEF4FE757E44A
S11307B00E948B050E94CE0479BD68BD80E0089537
S11307C020E030E04FE753E40E948B050E94CE0402
S11307D063BD80E0089586E0089580E00895505850
S11307E0BB27AA270E9407040C9451050E944305C5
S11307F038F00E944A0520F039F49F3F19F426F49A
S11308000C9440050EF4E095E7FB0C943A05E92FAF
S11308100E94620558F3BA176207730784079507A5
S113082020F079F4A6F50C9484050EF4E0950B2ED3
S1130830BA2FA02D0B01B90190010C01CA01A0012E
S11308401124FF27591B99F0593F50F4503E68F189
S11308501A16F040A22F232F342F4427585FF3CFCA
S1130860469537952795A795F0405395C9F77EF49B
S11308701F16BA0B620B730B840BBAF09150A1F0E4
S1130880FF0FBB1F661F771F881FC2F70EC0BA0F6A
S1130890621F731F841F48F4879577956795B795F2
S11308A0F7959E3F08F0B0CF9395880F08F09927ED
S11308B0EE0F9795879508950E9470040C94510546
S11308C00E944A0558F00E94430540F029F45F3F16
S11308D029F00C943A0551110C9485050C944005AB
S11308E00E94620568F39923B1F3552391F3951B94
S11308F0550BBB27AA2762177307840738F09F5F3D
S11309005F4F220F331F441FAA1FA9F335D00E2EA9
S11309103AF0E0E832D091505040E695001CCAF716
S11309202BD0FE2F29D0660F771F881FBB1F2617D9
S113093037074807AB07B0E809F0BB0B802DBF01B0
S1130940FF2793585F4F3AF09E3F510578F00C947F
S11309503A050C9485055F3FE4F3983ED4F38695FD
S113096077956795B795F7959F5FC9F7880F911DA0
S11309709695879597F90895E1E0660F771F881F8C
S1130980BB1F621773078407BA0720F0621B730B3F
S1130990840BBA0BEE1F88F7E09508950E946A0550
S11309A088F09F5798F0B92F9927B751B0F0E1F02C
S11309B0660F771F881F991F1AF0BA95C9F714C0DC
S11309C0B13091F00E948405B1E008950C9484053F
S11309D0672F782F8827B85F39F0B93FCCF3869515
S11309E077956795B395D9F73EF490958095709572
S11309F061957F4F8F4F9F4F0895E89409C097FBEF
S1130A003EF490958095709561957F4F8F4F9F4FE1
S1130A109923A9F0F92F96E9BB279395F695879525
S1130A2077956795B795F111F8CFFAF4BB0F11F4E8
S1130A3060FF1BC06F5F7F4F8F4F9F4F16C088238F
S1130A4011F096E911C0772321F09EE8872F762FC5
S1130A5005C0662371F096E8862F70E060E02AF006
S1130A609A95660F771F881FDAF7880F96958795F2
S1130A7097F9089597F99F6780E870E060E008951A
S1130A809FEF80EC089500240A94161617061806A2
S1130A900906089500240A9412161306140605067E
S1130AA00895092E0394000C11F4882352F0BB0F0F
S1130AB040F4BF2B11F460FF04C06F5F7F4F8F4F72
S1130AC09F4F089557FD9058440F551F59F05F3FAD
S1130AD071F04795880F97FB991F61F09F3F79F05C
S1130AE087950895121613061406551FF2CF4695DE
S1130AF0F1DF08C0161617061806991FF1CF869560
S1130B007105610508940895E894BB276627772743
S1130B10CB0197F908950E949E050C9451050E94FB
S1130B20430538F00E944A0520F0952311F00C94F7
S1130B303A050C94400511240C9485050E94620525
S1130B4070F3959FC1F3950F50E0551F629FF0011C
S1130B50729FBB27F00DB11D639FAA27F00DB11D35
S1130B60AA1F649F6627B00DA11D661F829F2227BE
S1130B70B00DA11D621F739FB00DA11D621F839F45
S1130B80A00D611D221F749F3327A00D611D231F1B
S1130B90849F600D211D822F762F6A2F11249F5769
S1130BA050409AF0F1F088234AF0EE0FFF1FBB1F6C
S1130BB0661F771F881F91505040A9F79E3F51052B
S1130BC080F00C943A050C9485055F3FE4F3983E5D
S1130BD0D4F3869577956795B795F795E7959F5FD5
S1130BE0C1F7FE2B880F911D9695879597F9089567
S1070BF0F894FFCFA3
S9030000FC
